{
	"DegenToken-main/contracts/DegenToken.sol": {
		"FoodToken": {
			"abi": [
				{
					"inputs": [
						{
							"internalType": "address",
							"name": "initialOwner",
							"type": "address"
						}
					],
					"stateMutability": "nonpayable",
					"type": "constructor"
				},
				{
					"inputs": [
						{
							"internalType": "address",
							"name": "spender",
							"type": "address"
						},
						{
							"internalType": "uint256",
							"name": "allowance",
							"type": "uint256"
						},
						{
							"internalType": "uint256",
							"name": "needed",
							"type": "uint256"
						}
					],
					"name": "ERC20InsufficientAllowance",
					"type": "error"
				},
				{
					"inputs": [
						{
							"internalType": "address",
							"name": "sender",
							"type": "address"
						},
						{
							"internalType": "uint256",
							"name": "balance",
							"type": "uint256"
						},
						{
							"internalType": "uint256",
							"name": "needed",
							"type": "uint256"
						}
					],
					"name": "ERC20InsufficientBalance",
					"type": "error"
				},
				{
					"inputs": [
						{
							"internalType": "address",
							"name": "approver",
							"type": "address"
						}
					],
					"name": "ERC20InvalidApprover",
					"type": "error"
				},
				{
					"inputs": [
						{
							"internalType": "address",
							"name": "receiver",
							"type": "address"
						}
					],
					"name": "ERC20InvalidReceiver",
					"type": "error"
				},
				{
					"inputs": [
						{
							"internalType": "address",
							"name": "sender",
							"type": "address"
						}
					],
					"name": "ERC20InvalidSender",
					"type": "error"
				},
				{
					"inputs": [
						{
							"internalType": "address",
							"name": "spender",
							"type": "address"
						}
					],
					"name": "ERC20InvalidSpender",
					"type": "error"
				},
				{
					"inputs": [
						{
							"internalType": "address",
							"name": "owner",
							"type": "address"
						}
					],
					"name": "OwnableInvalidOwner",
					"type": "error"
				},
				{
					"inputs": [
						{
							"internalType": "address",
							"name": "account",
							"type": "address"
						}
					],
					"name": "OwnableUnauthorizedAccount",
					"type": "error"
				},
				{
					"anonymous": false,
					"inputs": [
						{
							"indexed": true,
							"internalType": "address",
							"name": "owner",
							"type": "address"
						},
						{
							"indexed": true,
							"internalType": "address",
							"name": "spender",
							"type": "address"
						},
						{
							"indexed": false,
							"internalType": "uint256",
							"name": "value",
							"type": "uint256"
						}
					],
					"name": "Approval",
					"type": "event"
				},
				{
					"anonymous": false,
					"inputs": [
						{
							"indexed": true,
							"internalType": "address",
							"name": "redeemer",
							"type": "address"
						},
						{
							"indexed": false,
							"internalType": "uint256",
							"name": "itemId",
							"type": "uint256"
						},
						{
							"indexed": false,
							"internalType": "string",
							"name": "itemName",
							"type": "string"
						},
						{
							"indexed": false,
							"internalType": "uint256",
							"name": "itemCost",
							"type": "uint256"
						}
					],
					"name": "ItemRedeemed",
					"type": "event"
				},
				{
					"anonymous": false,
					"inputs": [
						{
							"indexed": true,
							"internalType": "address",
							"name": "previousOwner",
							"type": "address"
						},
						{
							"indexed": true,
							"internalType": "address",
							"name": "newOwner",
							"type": "address"
						}
					],
					"name": "OwnershipTransferred",
					"type": "event"
				},
				{
					"anonymous": false,
					"inputs": [
						{
							"indexed": true,
							"internalType": "address",
							"name": "from",
							"type": "address"
						},
						{
							"indexed": true,
							"internalType": "address",
							"name": "to",
							"type": "address"
						},
						{
							"indexed": false,
							"internalType": "uint256",
							"name": "value",
							"type": "uint256"
						}
					],
					"name": "Transfer",
					"type": "event"
				},
				{
					"inputs": [
						{
							"internalType": "address",
							"name": "owner",
							"type": "address"
						},
						{
							"internalType": "address",
							"name": "spender",
							"type": "address"
						}
					],
					"name": "allowance",
					"outputs": [
						{
							"internalType": "uint256",
							"name": "",
							"type": "uint256"
						}
					],
					"stateMutability": "view",
					"type": "function"
				},
				{
					"inputs": [
						{
							"internalType": "address",
							"name": "spender",
							"type": "address"
						},
						{
							"internalType": "uint256",
							"name": "value",
							"type": "uint256"
						}
					],
					"name": "approve",
					"outputs": [
						{
							"internalType": "bool",
							"name": "",
							"type": "bool"
						}
					],
					"stateMutability": "nonpayable",
					"type": "function"
				},
				{
					"inputs": [
						{
							"internalType": "address",
							"name": "account",
							"type": "address"
						}
					],
					"name": "balanceOf",
					"outputs": [
						{
							"internalType": "uint256",
							"name": "",
							"type": "uint256"
						}
					],
					"stateMutability": "view",
					"type": "function"
				},
				{
					"inputs": [
						{
							"internalType": "uint256",
							"name": "amount",
							"type": "uint256"
						}
					],
					"name": "burn",
					"outputs": [],
					"stateMutability": "nonpayable",
					"type": "function"
				},
				{
					"inputs": [],
					"name": "decimals",
					"outputs": [
						{
							"internalType": "uint8",
							"name": "",
							"type": "uint8"
						}
					],
					"stateMutability": "view",
					"type": "function"
				},
				{
					"inputs": [
						{
							"internalType": "uint256",
							"name": "",
							"type": "uint256"
						}
					],
					"name": "foodItems",
					"outputs": [
						{
							"internalType": "uint256",
							"name": "id",
							"type": "uint256"
						},
						{
							"internalType": "string",
							"name": "name",
							"type": "string"
						},
						{
							"internalType": "uint256",
							"name": "cost",
							"type": "uint256"
						}
					],
					"stateMutability": "view",
					"type": "function"
				},
				{
					"inputs": [],
					"name": "getFoodItems",
					"outputs": [
						{
							"components": [
								{
									"internalType": "uint256",
									"name": "id",
									"type": "uint256"
								},
								{
									"internalType": "string",
									"name": "name",
									"type": "string"
								},
								{
									"internalType": "uint256",
									"name": "cost",
									"type": "uint256"
								}
							],
							"internalType": "struct FoodToken.FoodItem[]",
							"name": "",
							"type": "tuple[]"
						}
					],
					"stateMutability": "view",
					"type": "function"
				},
				{
					"inputs": [],
					"name": "getOwnedItems",
					"outputs": [
						{
							"components": [
								{
									"internalType": "uint256",
									"name": "id",
									"type": "uint256"
								},
								{
									"internalType": "string",
									"name": "name",
									"type": "string"
								},
								{
									"internalType": "uint256",
									"name": "cost",
									"type": "uint256"
								}
							],
							"internalType": "struct FoodToken.FoodItem[]",
							"name": "",
							"type": "tuple[]"
						}
					],
					"stateMutability": "view",
					"type": "function"
				},
				{
					"inputs": [
						{
							"internalType": "address",
							"name": "to",
							"type": "address"
						},
						{
							"internalType": "uint256",
							"name": "amount",
							"type": "uint256"
						}
					],
					"name": "mint",
					"outputs": [],
					"stateMutability": "nonpayable",
					"type": "function"
				},
				{
					"inputs": [],
					"name": "name",
					"outputs": [
						{
							"internalType": "string",
							"name": "",
							"type": "string"
						}
					],
					"stateMutability": "view",
					"type": "function"
				},
				{
					"inputs": [],
					"name": "owner",
					"outputs": [
						{
							"internalType": "address",
							"name": "",
							"type": "address"
						}
					],
					"stateMutability": "view",
					"type": "function"
				},
				{
					"inputs": [
						{
							"internalType": "uint256",
							"name": "itemId",
							"type": "uint256"
						}
					],
					"name": "redeem",
					"outputs": [],
					"stateMutability": "nonpayable",
					"type": "function"
				},
				{
					"inputs": [],
					"name": "renounceOwnership",
					"outputs": [],
					"stateMutability": "nonpayable",
					"type": "function"
				},
				{
					"inputs": [],
					"name": "symbol",
					"outputs": [
						{
							"internalType": "string",
							"name": "",
							"type": "string"
						}
					],
					"stateMutability": "view",
					"type": "function"
				},
				{
					"inputs": [],
					"name": "totalSupply",
					"outputs": [
						{
							"internalType": "uint256",
							"name": "",
							"type": "uint256"
						}
					],
					"stateMutability": "view",
					"type": "function"
				},
				{
					"inputs": [
						{
							"internalType": "address",
							"name": "to",
							"type": "address"
						},
						{
							"internalType": "uint256",
							"name": "value",
							"type": "uint256"
						}
					],
					"name": "transfer",
					"outputs": [
						{
							"internalType": "bool",
							"name": "",
							"type": "bool"
						}
					],
					"stateMutability": "nonpayable",
					"type": "function"
				},
				{
					"inputs": [
						{
							"internalType": "address",
							"name": "from",
							"type": "address"
						},
						{
							"internalType": "address",
							"name": "to",
							"type": "address"
						},
						{
							"internalType": "uint256",
							"name": "value",
							"type": "uint256"
						}
					],
					"name": "transferFrom",
					"outputs": [
						{
							"internalType": "bool",
							"name": "",
							"type": "bool"
						}
					],
					"stateMutability": "nonpayable",
					"type": "function"
				},
				{
					"inputs": [
						{
							"internalType": "address",
							"name": "newOwner",
							"type": "address"
						}
					],
					"name": "transferOwnership",
					"outputs": [],
					"stateMutability": "nonpayable",
					"type": "function"
				}
			],
			"devdoc": {
				"errors": {
					"ERC20InsufficientAllowance(address,uint256,uint256)": [
						{
							"details": "Indicates a failure with the `spender`’s `allowance`. Used in transfers.",
							"params": {
								"allowance": "Amount of tokens a `spender` is allowed to operate with.",
								"needed": "Minimum amount required to perform a transfer.",
								"spender": "Address that may be allowed to operate on tokens without being their owner."
							}
						}
					],
					"ERC20InsufficientBalance(address,uint256,uint256)": [
						{
							"details": "Indicates an error related to the current `balance` of a `sender`. Used in transfers.",
							"params": {
								"balance": "Current balance for the interacting account.",
								"needed": "Minimum amount required to perform a transfer.",
								"sender": "Address whose tokens are being transferred."
							}
						}
					],
					"ERC20InvalidApprover(address)": [
						{
							"details": "Indicates a failure with the `approver` of a token to be approved. Used in approvals.",
							"params": {
								"approver": "Address initiating an approval operation."
							}
						}
					],
					"ERC20InvalidReceiver(address)": [
						{
							"details": "Indicates a failure with the token `receiver`. Used in transfers.",
							"params": {
								"receiver": "Address to which tokens are being transferred."
							}
						}
					],
					"ERC20InvalidSender(address)": [
						{
							"details": "Indicates a failure with the token `sender`. Used in transfers.",
							"params": {
								"sender": "Address whose tokens are being transferred."
							}
						}
					],
					"ERC20InvalidSpender(address)": [
						{
							"details": "Indicates a failure with the `spender` to be approved. Used in approvals.",
							"params": {
								"spender": "Address that may be allowed to operate on tokens without being their owner."
							}
						}
					],
					"OwnableInvalidOwner(address)": [
						{
							"details": "The owner is not a valid owner account. (eg. `address(0)`)"
						}
					],
					"OwnableUnauthorizedAccount(address)": [
						{
							"details": "The caller account is not authorized to perform an operation."
						}
					]
				},
				"events": {
					"Approval(address,address,uint256)": {
						"details": "Emitted when the allowance of a `spender` for an `owner` is set by a call to {approve}. `value` is the new allowance."
					},
					"Transfer(address,address,uint256)": {
						"details": "Emitted when `value` tokens are moved from one account (`from`) to another (`to`). Note that `value` may be zero."
					}
				},
				"kind": "dev",
				"methods": {
					"allowance(address,address)": {
						"details": "See {IERC20-allowance}."
					},
					"approve(address,uint256)": {
						"details": "See {IERC20-approve}. NOTE: If `value` is the maximum `uint256`, the allowance is not updated on `transferFrom`. This is semantically equivalent to an infinite approval. Requirements: - `spender` cannot be the zero address."
					},
					"balanceOf(address)": {
						"details": "See {IERC20-balanceOf}."
					},
					"decimals()": {
						"details": "Returns the number of decimals used to get its user representation. For example, if `decimals` equals `2`, a balance of `505` tokens should be displayed to a user as `5.05` (`505 / 10 ** 2`). Tokens usually opt for a value of 18, imitating the relationship between Ether and Wei. This is the default value returned by this function, unless it's overridden. NOTE: This information is only used for _display_ purposes: it in no way affects any of the arithmetic of the contract, including {IERC20-balanceOf} and {IERC20-transfer}."
					},
					"name()": {
						"details": "Returns the name of the token."
					},
					"owner()": {
						"details": "Returns the address of the current owner."
					},
					"renounceOwnership()": {
						"details": "Leaves the contract without owner. It will not be possible to call `onlyOwner` functions. Can only be called by the current owner. NOTE: Renouncing ownership will leave the contract without an owner, thereby disabling any functionality that is only available to the owner."
					},
					"symbol()": {
						"details": "Returns the symbol of the token, usually a shorter version of the name."
					},
					"totalSupply()": {
						"details": "See {IERC20-totalSupply}."
					},
					"transfer(address,uint256)": {
						"details": "See {IERC20-transfer}. Requirements: - `to` cannot be the zero address. - the caller must have a balance of at least `value`."
					},
					"transferFrom(address,address,uint256)": {
						"details": "See {IERC20-transferFrom}. Skips emitting an {Approval} event indicating an allowance update. This is not required by the ERC. See {xref-ERC20-_approve-address-address-uint256-bool-}[_approve]. NOTE: Does not update the allowance if the current allowance is the maximum `uint256`. Requirements: - `from` and `to` cannot be the zero address. - `from` must have a balance of at least `value`. - the caller must have allowance for ``from``'s tokens of at least `value`."
					},
					"transferOwnership(address)": {
						"details": "Transfers ownership of the contract to a new account (`newOwner`). Can only be called by the current owner."
					}
				},
				"version": 1
			},
			"evm": {
				"assembly": "    /* \"DegenToken-main/contracts/DegenToken.sol\":168:2089  contract FoodToken is ERC20, Ownable {... */\n  mstore(0x40, 0x80)\n    /* \"DegenToken-main/contracts/DegenToken.sol\":553:882  constructor(address initialOwner) ERC20(\"FoodToken\", \"FOOD\") Ownable(initialOwner) {... */\n  callvalue\n  dup1\n  iszero\n  tag_1\n  jumpi\n  0x00\n  dup1\n  revert\ntag_1:\n  pop\n  mload(0x40)\n  sub(codesize, bytecodeSize)\n  dup1\n  bytecodeSize\n  dup4\n  codecopy\n  dup2\n  dup2\n  add\n  0x40\n  mstore\n  dup2\n  add\n  swap1\n  tag_2\n  swap2\n  swap1\n  tag_3\n  jump\t// in\ntag_2:\n    /* \"DegenToken-main/contracts/DegenToken.sol\":622:634  initialOwner */\n  dup1\n    /* \"@openzeppelin/contracts/token/ERC20/ERC20.sol\":1601:1714  constructor(string memory name_, string memory symbol_) {... */\n  mload(0x40)\n  dup1\n  0x40\n  add\n  0x40\n  mstore\n  dup1\n  0x09\n  dup2\n  mstore\n  0x20\n  add\n  0x466f6f64546f6b656e0000000000000000000000000000000000000000000000\n  dup2\n  mstore\n  pop\n  mload(0x40)\n  dup1\n  0x40\n  add\n  0x40\n  mstore\n  dup1\n  0x04\n  dup2\n  mstore\n  0x20\n  add\n  0x464f4f4400000000000000000000000000000000000000000000000000000000\n  dup2\n  mstore\n  pop\n    /* \"@openzeppelin/contracts/token/ERC20/ERC20.sol\":1675:1680  name_ */\n  dup2\n    /* \"@openzeppelin/contracts/token/ERC20/ERC20.sol\":1667:1672  _name */\n  0x03\n    /* \"@openzeppelin/contracts/token/ERC20/ERC20.sol\":1667:1680  _name = name_ */\n  swap1\n  dup2\n  tag_8\n  swap2\n  swap1\n  tag_9\n  jump\t// in\ntag_8:\n  pop\n    /* \"@openzeppelin/contracts/token/ERC20/ERC20.sol\":1700:1707  symbol_ */\n  dup1\n    /* \"@openzeppelin/contracts/token/ERC20/ERC20.sol\":1690:1697  _symbol */\n  0x04\n    /* \"@openzeppelin/contracts/token/ERC20/ERC20.sol\":1690:1707  _symbol = symbol_ */\n  swap1\n  dup2\n  tag_10\n  swap2\n  swap1\n  tag_9\n  jump\t// in\ntag_10:\n  pop\n    /* \"@openzeppelin/contracts/token/ERC20/ERC20.sol\":1601:1714  constructor(string memory name_, string memory symbol_) {... */\n  pop\n  pop\n    /* \"@openzeppelin/contracts/access/Ownable.sol\":1297:1298  0 */\n  0x00\n    /* \"@openzeppelin/contracts/access/Ownable.sol\":1273:1299  initialOwner == address(0) */\n  0xffffffffffffffffffffffffffffffffffffffff\n  and\n    /* \"@openzeppelin/contracts/access/Ownable.sol\":1273:1285  initialOwner */\n  dup2\n    /* \"@openzeppelin/contracts/access/Ownable.sol\":1273:1299  initialOwner == address(0) */\n  0xffffffffffffffffffffffffffffffffffffffff\n  and\n  sub\n    /* \"@openzeppelin/contracts/access/Ownable.sol\":1269:1364  if (initialOwner == address(0)) {... */\n  tag_12\n  jumpi\n    /* \"@openzeppelin/contracts/access/Ownable.sol\":1350:1351  0 */\n  0x00\n    /* \"@openzeppelin/contracts/access/Ownable.sol\":1322:1353  OwnableInvalidOwner(address(0)) */\n  mload(0x40)\n  0x1e4fbdf700000000000000000000000000000000000000000000000000000000\n  dup2\n  mstore\n  0x04\n  add\n  tag_13\n  swap2\n  swap1\n  tag_14\n  jump\t// in\ntag_13:\n  mload(0x40)\n  dup1\n  swap2\n  sub\n  swap1\n  revert\n    /* \"@openzeppelin/contracts/access/Ownable.sol\":1269:1364  if (initialOwner == address(0)) {... */\ntag_12:\n    /* \"@openzeppelin/contracts/access/Ownable.sol\":1373:1405  _transferOwnership(initialOwner) */\n  tag_15\n    /* \"@openzeppelin/contracts/access/Ownable.sol\":1392:1404  initialOwner */\n  dup2\n    /* \"@openzeppelin/contracts/access/Ownable.sol\":1373:1391  _transferOwnership */\n  shl(0x20, tag_16)\n    /* \"@openzeppelin/contracts/access/Ownable.sol\":1373:1405  _transferOwnership(initialOwner) */\n  0x20\n  shr\n  jump\t// in\ntag_15:\n    /* \"@openzeppelin/contracts/access/Ownable.sol\":1225:1412  constructor(address initialOwner) {... */\n  pop\n    /* \"DegenToken-main/contracts/DegenToken.sol\":683:692  foodItems */\n  0x06\n    /* \"DegenToken-main/contracts/DegenToken.sol\":698:722  FoodItem(1, \"Pizza\", 10) */\n  mload(0x40)\n  dup1\n  0x60\n  add\n  0x40\n  mstore\n  dup1\n    /* \"DegenToken-main/contracts/DegenToken.sol\":707:708  1 */\n  0x01\n    /* \"DegenToken-main/contracts/DegenToken.sol\":698:722  FoodItem(1, \"Pizza\", 10) */\n  dup2\n  mstore\n  0x20\n  add\n  mload(0x40)\n  dup1\n  0x40\n  add\n  0x40\n  mstore\n  dup1\n  0x05\n  dup2\n  mstore\n  0x20\n  add\n  0x50697a7a61000000000000000000000000000000000000000000000000000000\n  dup2\n  mstore\n  pop\n  dup2\n  mstore\n  0x20\n  add\n    /* \"DegenToken-main/contracts/DegenToken.sol\":719:721  10 */\n  0x0a\n    /* \"DegenToken-main/contracts/DegenToken.sol\":698:722  FoodItem(1, \"Pizza\", 10) */\n  dup2\n  mstore\n  pop\n    /* \"DegenToken-main/contracts/DegenToken.sol\":683:723  foodItems.push(FoodItem(1, \"Pizza\", 10)) */\n  swap1\n  dup1\n  0x01\n  dup2\n  sload\n  add\n  dup1\n  dup3\n  sstore\n  dup1\n  swap2\n  pop\n  pop\n  0x01\n  swap1\n  sub\n  swap1\n  0x00\n  mstore\n  keccak256(0x00, 0x20)\n  swap1\n  0x03\n  mul\n  add\n  0x00\n  swap1\n  swap2\n  swap1\n  swap2\n  swap1\n  swap2\n  pop\n  0x00\n  dup3\n  add\n  mload\n  dup2\n  0x00\n  add\n  sstore\n  0x20\n  dup3\n  add\n  mload\n  dup2\n  0x01\n  add\n  swap1\n  dup2\n  tag_19\n  swap2\n  swap1\n  tag_9\n  jump\t// in\ntag_19:\n  pop\n  0x40\n  dup3\n  add\n  mload\n  dup2\n  0x02\n  add\n  sstore\n  pop\n  pop\n    /* \"DegenToken-main/contracts/DegenToken.sol\":733:742  foodItems */\n  0x06\n    /* \"DegenToken-main/contracts/DegenToken.sol\":748:773  FoodItem(2, \"Burger\", 15) */\n  mload(0x40)\n  dup1\n  0x60\n  add\n  0x40\n  mstore\n  dup1\n    /* \"DegenToken-main/contracts/DegenToken.sol\":757:758  2 */\n  0x02\n    /* \"DegenToken-main/contracts/DegenToken.sol\":748:773  FoodItem(2, \"Burger\", 15) */\n  dup2\n  mstore\n  0x20\n  add\n  mload(0x40)\n  dup1\n  0x40\n  add\n  0x40\n  mstore\n  dup1\n  0x06\n  dup2\n  mstore\n  0x20\n  add\n  0x4275726765720000000000000000000000000000000000000000000000000000\n  dup2\n  mstore\n  pop\n  dup2\n  mstore\n  0x20\n  add\n    /* \"DegenToken-main/contracts/DegenToken.sol\":770:772  15 */\n  0x0f\n    /* \"DegenToken-main/contracts/DegenToken.sol\":748:773  FoodItem(2, \"Burger\", 15) */\n  dup2\n  mstore\n  pop\n    /* \"DegenToken-main/contracts/DegenToken.sol\":733:774  foodItems.push(FoodItem(2, \"Burger\", 15)) */\n  swap1\n  dup1\n  0x01\n  dup2\n  sload\n  add\n  dup1\n  dup3\n  sstore\n  dup1\n  swap2\n  pop\n  pop\n  0x01\n  swap1\n  sub\n  swap1\n  0x00\n  mstore\n  keccak256(0x00, 0x20)\n  swap1\n  0x03\n  mul\n  add\n  0x00\n  swap1\n  swap2\n  swap1\n  swap2\n  swap1\n  swap2\n  pop\n  0x00\n  dup3\n  add\n  mload\n  dup2\n  0x00\n  add\n  sstore\n  0x20\n  dup3\n  add\n  mload\n  dup2\n  0x01\n  add\n  swap1\n  dup2\n  tag_21\n  swap2\n  swap1\n  tag_9\n  jump\t// in\ntag_21:\n  pop\n  0x40\n  dup3\n  add\n  mload\n  dup2\n  0x02\n  add\n  sstore\n  pop\n  pop\n    /* \"DegenToken-main/contracts/DegenToken.sol\":784:793  foodItems */\n  0x06\n    /* \"DegenToken-main/contracts/DegenToken.sol\":799:823  FoodItem(3, \"Sushi\", 25) */\n  mload(0x40)\n  dup1\n  0x60\n  add\n  0x40\n  mstore\n  dup1\n    /* \"DegenToken-main/contracts/DegenToken.sol\":808:809  3 */\n  0x03\n    /* \"DegenToken-main/contracts/DegenToken.sol\":799:823  FoodItem(3, \"Sushi\", 25) */\n  dup2\n  mstore\n  0x20\n  add\n  mload(0x40)\n  dup1\n  0x40\n  add\n  0x40\n  mstore\n  dup1\n  0x05\n  dup2\n  mstore\n  0x20\n  add\n  0x5375736869000000000000000000000000000000000000000000000000000000\n  dup2\n  mstore\n  pop\n  dup2\n  mstore\n  0x20\n  add\n    /* \"DegenToken-main/contracts/DegenToken.sol\":820:822  25 */\n  0x19\n    /* \"DegenToken-main/contracts/DegenToken.sol\":799:823  FoodItem(3, \"Sushi\", 25) */\n  dup2\n  mstore\n  pop\n    /* \"DegenToken-main/contracts/DegenToken.sol\":784:824  foodItems.push(FoodItem(3, \"Sushi\", 25)) */\n  swap1\n  dup1\n  0x01\n  dup2\n  sload\n  add\n  dup1\n  dup3\n  sstore\n  dup1\n  swap2\n  pop\n  pop\n  0x01\n  swap1\n  sub\n  swap1\n  0x00\n  mstore\n  keccak256(0x00, 0x20)\n  swap1\n  0x03\n  mul\n  add\n  0x00\n  swap1\n  swap2\n  swap1\n  swap2\n  swap1\n  swap2\n  pop\n  0x00\n  dup3\n  add\n  mload\n  dup2\n  0x00\n  add\n  sstore\n  0x20\n  dup3\n  add\n  mload\n  dup2\n  0x01\n  add\n  swap1\n  dup2\n  tag_23\n  swap2\n  swap1\n  tag_9\n  jump\t// in\ntag_23:\n  pop\n  0x40\n  dup3\n  add\n  mload\n  dup2\n  0x02\n  add\n  sstore\n  pop\n  pop\n    /* \"DegenToken-main/contracts/DegenToken.sol\":834:843  foodItems */\n  0x06\n    /* \"DegenToken-main/contracts/DegenToken.sol\":849:873  FoodItem(4, \"Steak\", 50) */\n  mload(0x40)\n  dup1\n  0x60\n  add\n  0x40\n  mstore\n  dup1\n    /* \"DegenToken-main/contracts/DegenToken.sol\":858:859  4 */\n  0x04\n    /* \"DegenToken-main/contracts/DegenToken.sol\":849:873  FoodItem(4, \"Steak\", 50) */\n  dup2\n  mstore\n  0x20\n  add\n  mload(0x40)\n  dup1\n  0x40\n  add\n  0x40\n  mstore\n  dup1\n  0x05\n  dup2\n  mstore\n  0x20\n  add\n  0x537465616b000000000000000000000000000000000000000000000000000000\n  dup2\n  mstore\n  pop\n  dup2\n  mstore\n  0x20\n  add\n    /* \"DegenToken-main/contracts/DegenToken.sol\":870:872  50 */\n  0x32\n    /* \"DegenToken-main/contracts/DegenToken.sol\":849:873  FoodItem(4, \"Steak\", 50) */\n  dup2\n  mstore\n  pop\n    /* \"DegenToken-main/contracts/DegenToken.sol\":834:874  foodItems.push(FoodItem(4, \"Steak\", 50)) */\n  swap1\n  dup1\n  0x01\n  dup2\n  sload\n  add\n  dup1\n  dup3\n  sstore\n  dup1\n  swap2\n  pop\n  pop\n  0x01\n  swap1\n  sub\n  swap1\n  0x00\n  mstore\n  keccak256(0x00, 0x20)\n  swap1\n  0x03\n  mul\n  add\n  0x00\n  swap1\n  swap2\n  swap1\n  swap2\n  swap1\n  swap2\n  pop\n  0x00\n  dup3\n  add\n  mload\n  dup2\n  0x00\n  add\n  sstore\n  0x20\n  dup3\n  add\n  mload\n  dup2\n  0x01\n  add\n  swap1\n  dup2\n  tag_25\n  swap2\n  swap1\n  tag_9\n  jump\t// in\ntag_25:\n  pop\n  0x40\n  dup3\n  add\n  mload\n  dup2\n  0x02\n  add\n  sstore\n  pop\n  pop\n    /* \"DegenToken-main/contracts/DegenToken.sol\":553:882  constructor(address initialOwner) ERC20(\"FoodToken\", \"FOOD\") Ownable(initialOwner) {... */\n  pop\n    /* \"DegenToken-main/contracts/DegenToken.sol\":168:2089  contract FoodToken is ERC20, Ownable {... */\n  jump(tag_26)\n    /* \"@openzeppelin/contracts/access/Ownable.sol\":2912:3099  function _transferOwnership(address newOwner) internal virtual {... */\ntag_16:\n    /* \"@openzeppelin/contracts/access/Ownable.sol\":2985:3001  address oldOwner */\n  0x00\n    /* \"@openzeppelin/contracts/access/Ownable.sol\":3004:3010  _owner */\n  0x05\n  0x00\n  swap1\n  sload\n  swap1\n  0x0100\n  exp\n  swap1\n  div\n  0xffffffffffffffffffffffffffffffffffffffff\n  and\n    /* \"@openzeppelin/contracts/access/Ownable.sol\":2985:3010  address oldOwner = _owner */\n  swap1\n  pop\n    /* \"@openzeppelin/contracts/access/Ownable.sol\":3029:3037  newOwner */\n  dup2\n    /* \"@openzeppelin/contracts/access/Ownable.sol\":3020:3026  _owner */\n  0x05\n  0x00\n    /* \"@openzeppelin/contracts/access/Ownable.sol\":3020:3037  _owner = newOwner */\n  0x0100\n  exp\n  dup2\n  sload\n  dup2\n  0xffffffffffffffffffffffffffffffffffffffff\n  mul\n  not\n  and\n  swap1\n  dup4\n  0xffffffffffffffffffffffffffffffffffffffff\n  and\n  mul\n  or\n  swap1\n  sstore\n  pop\n    /* \"@openzeppelin/contracts/access/Ownable.sol\":3083:3091  newOwner */\n  dup2\n    /* \"@openzeppelin/contracts/access/Ownable.sol\":3052:3092  OwnershipTransferred(oldOwner, newOwner) */\n  0xffffffffffffffffffffffffffffffffffffffff\n  and\n    /* \"@openzeppelin/contracts/access/Ownable.sol\":3073:3081  oldOwner */\n  dup2\n    /* \"@openzeppelin/contracts/access/Ownable.sol\":3052:3092  OwnershipTransferred(oldOwner, newOwner) */\n  0xffffffffffffffffffffffffffffffffffffffff\n  and\n  0x8be0079c531659141344cd1fd0a4f28419497f9722a3daafe3b4186f6b6457e0\n  mload(0x40)\n  mload(0x40)\n  dup1\n  swap2\n  sub\n  swap1\n  log3\n    /* \"@openzeppelin/contracts/access/Ownable.sol\":2975:3099  {... */\n  pop\n    /* \"@openzeppelin/contracts/access/Ownable.sol\":2912:3099  function _transferOwnership(address newOwner) internal virtual {... */\n  pop\n  jump\t// out\n    /* \"#utility.yul\":88:205   */\ntag_29:\n    /* \"#utility.yul\":197:198   */\n  0x00\n    /* \"#utility.yul\":194:195   */\n  dup1\n    /* \"#utility.yul\":187:199   */\n  revert\n    /* \"#utility.yul\":334:460   */\ntag_31:\n    /* \"#utility.yul\":371:378   */\n  0x00\n    /* \"#utility.yul\":411:453   */\n  0xffffffffffffffffffffffffffffffffffffffff\n    /* \"#utility.yul\":404:409   */\n  dup3\n    /* \"#utility.yul\":400:454   */\n  and\n    /* \"#utility.yul\":389:454   */\n  swap1\n  pop\n    /* \"#utility.yul\":334:460   */\n  swap2\n  swap1\n  pop\n  jump\t// out\n    /* \"#utility.yul\":466:562   */\ntag_32:\n    /* \"#utility.yul\":503:510   */\n  0x00\n    /* \"#utility.yul\":532:556   */\n  tag_62\n    /* \"#utility.yul\":550:555   */\n  dup3\n    /* \"#utility.yul\":532:556   */\n  tag_31\n  jump\t// in\ntag_62:\n    /* \"#utility.yul\":521:556   */\n  swap1\n  pop\n    /* \"#utility.yul\":466:562   */\n  swap2\n  swap1\n  pop\n  jump\t// out\n    /* \"#utility.yul\":568:690   */\ntag_33:\n    /* \"#utility.yul\":641:665   */\n  tag_64\n    /* \"#utility.yul\":659:664   */\n  dup2\n    /* \"#utility.yul\":641:665   */\n  tag_32\n  jump\t// in\ntag_64:\n    /* \"#utility.yul\":634:639   */\n  dup2\n    /* \"#utility.yul\":631:666   */\n  eq\n    /* \"#utility.yul\":621:684   */\n  tag_65\n  jumpi\n    /* \"#utility.yul\":680:681   */\n  0x00\n    /* \"#utility.yul\":677:678   */\n  dup1\n    /* \"#utility.yul\":670:682   */\n  revert\n    /* \"#utility.yul\":621:684   */\ntag_65:\n    /* \"#utility.yul\":568:690   */\n  pop\n  jump\t// out\n    /* \"#utility.yul\":696:839   */\ntag_34:\n    /* \"#utility.yul\":753:758   */\n  0x00\n    /* \"#utility.yul\":784:790   */\n  dup2\n    /* \"#utility.yul\":778:791   */\n  mload\n    /* \"#utility.yul\":769:791   */\n  swap1\n  pop\n    /* \"#utility.yul\":800:833   */\n  tag_67\n    /* \"#utility.yul\":827:832   */\n  dup2\n    /* \"#utility.yul\":800:833   */\n  tag_33\n  jump\t// in\ntag_67:\n    /* \"#utility.yul\":696:839   */\n  swap3\n  swap2\n  pop\n  pop\n  jump\t// out\n    /* \"#utility.yul\":845:1196   */\ntag_3:\n    /* \"#utility.yul\":915:921   */\n  0x00\n    /* \"#utility.yul\":964:966   */\n  0x20\n    /* \"#utility.yul\":952:961   */\n  dup3\n    /* \"#utility.yul\":943:950   */\n  dup5\n    /* \"#utility.yul\":939:962   */\n  sub\n    /* \"#utility.yul\":935:967   */\n  slt\n    /* \"#utility.yul\":932:1051   */\n  iszero\n  tag_69\n  jumpi\n    /* \"#utility.yul\":970:1049   */\n  tag_70\n  tag_29\n  jump\t// in\ntag_70:\n    /* \"#utility.yul\":932:1051   */\ntag_69:\n    /* \"#utility.yul\":1090:1091   */\n  0x00\n    /* \"#utility.yul\":1115:1179   */\n  tag_71\n    /* \"#utility.yul\":1171:1178   */\n  dup5\n    /* \"#utility.yul\":1162:1168   */\n  dup3\n    /* \"#utility.yul\":1151:1160   */\n  dup6\n    /* \"#utility.yul\":1147:1169   */\n  add\n    /* \"#utility.yul\":1115:1179   */\n  tag_34\n  jump\t// in\ntag_71:\n    /* \"#utility.yul\":1105:1179   */\n  swap2\n  pop\n    /* \"#utility.yul\":1061:1189   */\n  pop\n    /* \"#utility.yul\":845:1196   */\n  swap3\n  swap2\n  pop\n  pop\n  jump\t// out\n    /* \"#utility.yul\":1202:1301   */\ntag_35:\n    /* \"#utility.yul\":1254:1260   */\n  0x00\n    /* \"#utility.yul\":1288:1293   */\n  dup2\n    /* \"#utility.yul\":1282:1294   */\n  mload\n    /* \"#utility.yul\":1272:1294   */\n  swap1\n  pop\n    /* \"#utility.yul\":1202:1301   */\n  swap2\n  swap1\n  pop\n  jump\t// out\n    /* \"#utility.yul\":1307:1487   */\ntag_36:\n    /* \"#utility.yul\":1355:1432   */\n  0x4e487b7100000000000000000000000000000000000000000000000000000000\n    /* \"#utility.yul\":1352:1353   */\n  0x00\n    /* \"#utility.yul\":1345:1433   */\n  mstore\n    /* \"#utility.yul\":1452:1456   */\n  0x41\n    /* \"#utility.yul\":1449:1450   */\n  0x04\n    /* \"#utility.yul\":1442:1457   */\n  mstore\n    /* \"#utility.yul\":1476:1480   */\n  0x24\n    /* \"#utility.yul\":1473:1474   */\n  0x00\n    /* \"#utility.yul\":1466:1481   */\n  revert\n    /* \"#utility.yul\":1493:1673   */\ntag_37:\n    /* \"#utility.yul\":1541:1618   */\n  0x4e487b7100000000000000000000000000000000000000000000000000000000\n    /* \"#utility.yul\":1538:1539   */\n  0x00\n    /* \"#utility.yul\":1531:1619   */\n  mstore\n    /* \"#utility.yul\":1638:1642   */\n  0x22\n    /* \"#utility.yul\":1635:1636   */\n  0x04\n    /* \"#utility.yul\":1628:1643   */\n  mstore\n    /* \"#utility.yul\":1662:1666   */\n  0x24\n    /* \"#utility.yul\":1659:1660   */\n  0x00\n    /* \"#utility.yul\":1652:1667   */\n  revert\n    /* \"#utility.yul\":1679:1999   */\ntag_38:\n    /* \"#utility.yul\":1723:1729   */\n  0x00\n    /* \"#utility.yul\":1760:1761   */\n  0x02\n    /* \"#utility.yul\":1754:1758   */\n  dup3\n    /* \"#utility.yul\":1750:1762   */\n  div\n    /* \"#utility.yul\":1740:1762   */\n  swap1\n  pop\n    /* \"#utility.yul\":1807:1808   */\n  0x01\n    /* \"#utility.yul\":1801:1805   */\n  dup3\n    /* \"#utility.yul\":1797:1809   */\n  and\n    /* \"#utility.yul\":1828:1846   */\n  dup1\n    /* \"#utility.yul\":1818:1899   */\n  tag_76\n  jumpi\n    /* \"#utility.yul\":1884:1888   */\n  0x7f\n    /* \"#utility.yul\":1876:1882   */\n  dup3\n    /* \"#utility.yul\":1872:1889   */\n  and\n    /* \"#utility.yul\":1862:1889   */\n  swap2\n  pop\n    /* \"#utility.yul\":1818:1899   */\ntag_76:\n    /* \"#utility.yul\":1946:1948   */\n  0x20\n    /* \"#utility.yul\":1938:1944   */\n  dup3\n    /* \"#utility.yul\":1935:1949   */\n  lt\n    /* \"#utility.yul\":1915:1933   */\n  dup2\n    /* \"#utility.yul\":1912:1950   */\n  sub\n    /* \"#utility.yul\":1909:1993   */\n  tag_77\n  jumpi\n    /* \"#utility.yul\":1965:1983   */\n  tag_78\n  tag_37\n  jump\t// in\ntag_78:\n    /* \"#utility.yul\":1909:1993   */\ntag_77:\n    /* \"#utility.yul\":1730:1999   */\n  pop\n    /* \"#utility.yul\":1679:1999   */\n  swap2\n  swap1\n  pop\n  jump\t// out\n    /* \"#utility.yul\":2005:2146   */\ntag_39:\n    /* \"#utility.yul\":2054:2058   */\n  0x00\n    /* \"#utility.yul\":2077:2080   */\n  dup2\n    /* \"#utility.yul\":2069:2080   */\n  swap1\n  pop\n    /* \"#utility.yul\":2100:2103   */\n  dup2\n    /* \"#utility.yul\":2097:2098   */\n  0x00\n    /* \"#utility.yul\":2090:2104   */\n  mstore\n    /* \"#utility.yul\":2134:2138   */\n  0x20\n    /* \"#utility.yul\":2131:2132   */\n  0x00\n    /* \"#utility.yul\":2121:2139   */\n  keccak256\n    /* \"#utility.yul\":2113:2139   */\n  swap1\n  pop\n    /* \"#utility.yul\":2005:2146   */\n  swap2\n  swap1\n  pop\n  jump\t// out\n    /* \"#utility.yul\":2152:2245   */\ntag_40:\n    /* \"#utility.yul\":2189:2195   */\n  0x00\n    /* \"#utility.yul\":2236:2238   */\n  0x20\n    /* \"#utility.yul\":2231:2233   */\n  0x1f\n    /* \"#utility.yul\":2224:2229   */\n  dup4\n    /* \"#utility.yul\":2220:2234   */\n  add\n    /* \"#utility.yul\":2216:2239   */\n  div\n    /* \"#utility.yul\":2206:2239   */\n  swap1\n  pop\n    /* \"#utility.yul\":2152:2245   */\n  swap2\n  swap1\n  pop\n  jump\t// out\n    /* \"#utility.yul\":2251:2358   */\ntag_41:\n    /* \"#utility.yul\":2295:2303   */\n  0x00\n    /* \"#utility.yul\":2345:2350   */\n  dup3\n    /* \"#utility.yul\":2339:2343   */\n  dup3\n    /* \"#utility.yul\":2335:2351   */\n  shl\n    /* \"#utility.yul\":2314:2351   */\n  swap1\n  pop\n    /* \"#utility.yul\":2251:2358   */\n  swap3\n  swap2\n  pop\n  pop\n  jump\t// out\n    /* \"#utility.yul\":2364:2757   */\ntag_42:\n    /* \"#utility.yul\":2433:2439   */\n  0x00\n    /* \"#utility.yul\":2483:2484   */\n  0x08\n    /* \"#utility.yul\":2471:2481   */\n  dup4\n    /* \"#utility.yul\":2467:2485   */\n  mul\n    /* \"#utility.yul\":2506:2603   */\n  tag_83\n    /* \"#utility.yul\":2536:2602   */\n  0xffffffffffffffffffffffffffffffffffffffffffffffffffffffffffffffff\n    /* \"#utility.yul\":2525:2534   */\n  dup3\n    /* \"#utility.yul\":2506:2603   */\n  tag_41\n  jump\t// in\ntag_83:\n    /* \"#utility.yul\":2624:2663   */\n  tag_84\n    /* \"#utility.yul\":2654:2662   */\n  dup7\n    /* \"#utility.yul\":2643:2652   */\n  dup4\n    /* \"#utility.yul\":2624:2663   */\n  tag_41\n  jump\t// in\ntag_84:\n    /* \"#utility.yul\":2612:2663   */\n  swap6\n  pop\n    /* \"#utility.yul\":2696:2700   */\n  dup1\n    /* \"#utility.yul\":2692:2701   */\n  not\n    /* \"#utility.yul\":2685:2690   */\n  dup5\n    /* \"#utility.yul\":2681:2702   */\n  and\n    /* \"#utility.yul\":2672:2702   */\n  swap4\n  pop\n    /* \"#utility.yul\":2745:2749   */\n  dup1\n    /* \"#utility.yul\":2735:2743   */\n  dup7\n    /* \"#utility.yul\":2731:2750   */\n  and\n    /* \"#utility.yul\":2724:2729   */\n  dup5\n    /* \"#utility.yul\":2721:2751   */\n  or\n    /* \"#utility.yul\":2711:2751   */\n  swap3\n  pop\n    /* \"#utility.yul\":2440:2757   */\n  pop\n  pop\n    /* \"#utility.yul\":2364:2757   */\n  swap4\n  swap3\n  pop\n  pop\n  pop\n  jump\t// out\n    /* \"#utility.yul\":2763:2840   */\ntag_43:\n    /* \"#utility.yul\":2800:2807   */\n  0x00\n    /* \"#utility.yul\":2829:2834   */\n  dup2\n    /* \"#utility.yul\":2818:2834   */\n  swap1\n  pop\n    /* \"#utility.yul\":2763:2840   */\n  swap2\n  swap1\n  pop\n  jump\t// out\n    /* \"#utility.yul\":2846:2906   */\ntag_44:\n    /* \"#utility.yul\":2874:2877   */\n  0x00\n    /* \"#utility.yul\":2895:2900   */\n  dup2\n    /* \"#utility.yul\":2888:2900   */\n  swap1\n  pop\n    /* \"#utility.yul\":2846:2906   */\n  swap2\n  swap1\n  pop\n  jump\t// out\n    /* \"#utility.yul\":2912:3054   */\ntag_45:\n    /* \"#utility.yul\":2962:2971   */\n  0x00\n    /* \"#utility.yul\":2995:3048   */\n  tag_88\n    /* \"#utility.yul\":3013:3047   */\n  tag_89\n    /* \"#utility.yul\":3022:3046   */\n  tag_90\n    /* \"#utility.yul\":3040:3045   */\n  dup5\n    /* \"#utility.yul\":3022:3046   */\n  tag_43\n  jump\t// in\ntag_90:\n    /* \"#utility.yul\":3013:3047   */\n  tag_44\n  jump\t// in\ntag_89:\n    /* \"#utility.yul\":2995:3048   */\n  tag_43\n  jump\t// in\ntag_88:\n    /* \"#utility.yul\":2982:3048   */\n  swap1\n  pop\n    /* \"#utility.yul\":2912:3054   */\n  swap2\n  swap1\n  pop\n  jump\t// out\n    /* \"#utility.yul\":3060:3135   */\ntag_46:\n    /* \"#utility.yul\":3103:3106   */\n  0x00\n    /* \"#utility.yul\":3124:3129   */\n  dup2\n    /* \"#utility.yul\":3117:3129   */\n  swap1\n  pop\n    /* \"#utility.yul\":3060:3135   */\n  swap2\n  swap1\n  pop\n  jump\t// out\n    /* \"#utility.yul\":3141:3410   */\ntag_47:\n    /* \"#utility.yul\":3251:3290   */\n  tag_93\n    /* \"#utility.yul\":3282:3289   */\n  dup4\n    /* \"#utility.yul\":3251:3290   */\n  tag_45\n  jump\t// in\ntag_93:\n    /* \"#utility.yul\":3312:3403   */\n  tag_94\n    /* \"#utility.yul\":3361:3402   */\n  tag_95\n    /* \"#utility.yul\":3385:3401   */\n  dup3\n    /* \"#utility.yul\":3361:3402   */\n  tag_46\n  jump\t// in\ntag_95:\n    /* \"#utility.yul\":3353:3359   */\n  dup5\n    /* \"#utility.yul\":3346:3350   */\n  dup5\n    /* \"#utility.yul\":3340:3351   */\n  sload\n    /* \"#utility.yul\":3312:3403   */\n  tag_42\n  jump\t// in\ntag_94:\n    /* \"#utility.yul\":3306:3310   */\n  dup3\n    /* \"#utility.yul\":3299:3404   */\n  sstore\n    /* \"#utility.yul\":3217:3410   */\n  pop\n    /* \"#utility.yul\":3141:3410   */\n  pop\n  pop\n  pop\n  jump\t// out\n    /* \"#utility.yul\":3416:3489   */\ntag_48:\n    /* \"#utility.yul\":3461:3464   */\n  0x00\n    /* \"#utility.yul\":3416:3489   */\n  swap1\n  jump\t// out\n    /* \"#utility.yul\":3495:3684   */\ntag_49:\n    /* \"#utility.yul\":3572:3604   */\n  tag_98\n  tag_48\n  jump\t// in\ntag_98:\n    /* \"#utility.yul\":3613:3678   */\n  tag_99\n    /* \"#utility.yul\":3671:3677   */\n  dup2\n    /* \"#utility.yul\":3663:3669   */\n  dup5\n    /* \"#utility.yul\":3657:3661   */\n  dup5\n    /* \"#utility.yul\":3613:3678   */\n  tag_47\n  jump\t// in\ntag_99:\n    /* \"#utility.yul\":3548:3684   */\n  pop\n    /* \"#utility.yul\":3495:3684   */\n  pop\n  pop\n  jump\t// out\n    /* \"#utility.yul\":3690:3876   */\ntag_50:\n    /* \"#utility.yul\":3750:3870   */\ntag_101:\n    /* \"#utility.yul\":3767:3770   */\n  dup2\n    /* \"#utility.yul\":3760:3765   */\n  dup2\n    /* \"#utility.yul\":3757:3771   */\n  lt\n    /* \"#utility.yul\":3750:3870   */\n  iszero\n  tag_103\n  jumpi\n    /* \"#utility.yul\":3821:3860   */\n  tag_104\n    /* \"#utility.yul\":3858:3859   */\n  0x00\n    /* \"#utility.yul\":3851:3856   */\n  dup3\n    /* \"#utility.yul\":3821:3860   */\n  tag_49\n  jump\t// in\ntag_104:\n    /* \"#utility.yul\":3794:3795   */\n  0x01\n    /* \"#utility.yul\":3787:3792   */\n  dup2\n    /* \"#utility.yul\":3783:3796   */\n  add\n    /* \"#utility.yul\":3774:3796   */\n  swap1\n  pop\n    /* \"#utility.yul\":3750:3870   */\n  jump(tag_101)\ntag_103:\n    /* \"#utility.yul\":3690:3876   */\n  pop\n  pop\n  jump\t// out\n    /* \"#utility.yul\":3882:4425   */\ntag_51:\n    /* \"#utility.yul\":3983:3985   */\n  0x1f\n    /* \"#utility.yul\":3978:3981   */\n  dup3\n    /* \"#utility.yul\":3975:3986   */\n  gt\n    /* \"#utility.yul\":3972:4418   */\n  iszero\n  tag_106\n  jumpi\n    /* \"#utility.yul\":4017:4055   */\n  tag_107\n    /* \"#utility.yul\":4049:4054   */\n  dup2\n    /* \"#utility.yul\":4017:4055   */\n  tag_39\n  jump\t// in\ntag_107:\n    /* \"#utility.yul\":4101:4130   */\n  tag_108\n    /* \"#utility.yul\":4119:4129   */\n  dup5\n    /* \"#utility.yul\":4101:4130   */\n  tag_40\n  jump\t// in\ntag_108:\n    /* \"#utility.yul\":4091:4099   */\n  dup2\n    /* \"#utility.yul\":4087:4131   */\n  add\n    /* \"#utility.yul\":4284:4286   */\n  0x20\n    /* \"#utility.yul\":4272:4282   */\n  dup6\n    /* \"#utility.yul\":4269:4287   */\n  lt\n    /* \"#utility.yul\":4266:4315   */\n  iszero\n  tag_109\n  jumpi\n    /* \"#utility.yul\":4305:4313   */\n  dup2\n    /* \"#utility.yul\":4290:4313   */\n  swap1\n  pop\n    /* \"#utility.yul\":4266:4315   */\ntag_109:\n    /* \"#utility.yul\":4328:4408   */\n  tag_110\n    /* \"#utility.yul\":4384:4406   */\n  tag_111\n    /* \"#utility.yul\":4402:4405   */\n  dup6\n    /* \"#utility.yul\":4384:4406   */\n  tag_40\n  jump\t// in\ntag_111:\n    /* \"#utility.yul\":4374:4382   */\n  dup4\n    /* \"#utility.yul\":4370:4407   */\n  add\n    /* \"#utility.yul\":4357:4368   */\n  dup3\n    /* \"#utility.yul\":4328:4408   */\n  tag_50\n  jump\t// in\ntag_110:\n    /* \"#utility.yul\":3987:4418   */\n  pop\n  pop\n    /* \"#utility.yul\":3972:4418   */\ntag_106:\n    /* \"#utility.yul\":3882:4425   */\n  pop\n  pop\n  pop\n  jump\t// out\n    /* \"#utility.yul\":4431:4548   */\ntag_52:\n    /* \"#utility.yul\":4485:4493   */\n  0x00\n    /* \"#utility.yul\":4535:4540   */\n  dup3\n    /* \"#utility.yul\":4529:4533   */\n  dup3\n    /* \"#utility.yul\":4525:4541   */\n  shr\n    /* \"#utility.yul\":4504:4541   */\n  swap1\n  pop\n    /* \"#utility.yul\":4431:4548   */\n  swap3\n  swap2\n  pop\n  pop\n  jump\t// out\n    /* \"#utility.yul\":4554:4723   */\ntag_53:\n    /* \"#utility.yul\":4598:4604   */\n  0x00\n    /* \"#utility.yul\":4631:4682   */\n  tag_114\n    /* \"#utility.yul\":4679:4680   */\n  0x00\n    /* \"#utility.yul\":4675:4681   */\n  not\n    /* \"#utility.yul\":4667:4672   */\n  dup5\n    /* \"#utility.yul\":4664:4665   */\n  0x08\n    /* \"#utility.yul\":4660:4673   */\n  mul\n    /* \"#utility.yul\":4631:4682   */\n  tag_52\n  jump\t// in\ntag_114:\n    /* \"#utility.yul\":4627:4683   */\n  not\n    /* \"#utility.yul\":4712:4716   */\n  dup1\n    /* \"#utility.yul\":4706:4710   */\n  dup4\n    /* \"#utility.yul\":4702:4717   */\n  and\n    /* \"#utility.yul\":4692:4717   */\n  swap2\n  pop\n    /* \"#utility.yul\":4605:4723   */\n  pop\n    /* \"#utility.yul\":4554:4723   */\n  swap3\n  swap2\n  pop\n  pop\n  jump\t// out\n    /* \"#utility.yul\":4728:5023   */\ntag_54:\n    /* \"#utility.yul\":4804:4808   */\n  0x00\n    /* \"#utility.yul\":4950:4979   */\n  tag_116\n    /* \"#utility.yul\":4975:4978   */\n  dup4\n    /* \"#utility.yul\":4969:4973   */\n  dup4\n    /* \"#utility.yul\":4950:4979   */\n  tag_53\n  jump\t// in\ntag_116:\n    /* \"#utility.yul\":4942:4979   */\n  swap2\n  pop\n    /* \"#utility.yul\":5012:5015   */\n  dup3\n    /* \"#utility.yul\":5009:5010   */\n  0x02\n    /* \"#utility.yul\":5005:5016   */\n  mul\n    /* \"#utility.yul\":4999:5003   */\n  dup3\n    /* \"#utility.yul\":4996:5017   */\n  or\n    /* \"#utility.yul\":4988:5017   */\n  swap1\n  pop\n    /* \"#utility.yul\":4728:5023   */\n  swap3\n  swap2\n  pop\n  pop\n  jump\t// out\n    /* \"#utility.yul\":5028:6423   */\ntag_9:\n    /* \"#utility.yul\":5145:5182   */\n  tag_118\n    /* \"#utility.yul\":5178:5181   */\n  dup3\n    /* \"#utility.yul\":5145:5182   */\n  tag_35\n  jump\t// in\ntag_118:\n    /* \"#utility.yul\":5247:5265   */\n  0xffffffffffffffff\n    /* \"#utility.yul\":5239:5245   */\n  dup2\n    /* \"#utility.yul\":5236:5266   */\n  gt\n    /* \"#utility.yul\":5233:5289   */\n  iszero\n  tag_119\n  jumpi\n    /* \"#utility.yul\":5269:5287   */\n  tag_120\n  tag_36\n  jump\t// in\ntag_120:\n    /* \"#utility.yul\":5233:5289   */\ntag_119:\n    /* \"#utility.yul\":5313:5351   */\n  tag_121\n    /* \"#utility.yul\":5345:5349   */\n  dup3\n    /* \"#utility.yul\":5339:5350   */\n  sload\n    /* \"#utility.yul\":5313:5351   */\n  tag_38\n  jump\t// in\ntag_121:\n    /* \"#utility.yul\":5398:5465   */\n  tag_122\n    /* \"#utility.yul\":5458:5464   */\n  dup3\n    /* \"#utility.yul\":5450:5456   */\n  dup3\n    /* \"#utility.yul\":5444:5448   */\n  dup6\n    /* \"#utility.yul\":5398:5465   */\n  tag_51\n  jump\t// in\ntag_122:\n    /* \"#utility.yul\":5492:5493   */\n  0x00\n    /* \"#utility.yul\":5516:5520   */\n  0x20\n    /* \"#utility.yul\":5503:5520   */\n  swap1\n  pop\n    /* \"#utility.yul\":5548:5550   */\n  0x1f\n    /* \"#utility.yul\":5540:5546   */\n  dup4\n    /* \"#utility.yul\":5537:5551   */\n  gt\n    /* \"#utility.yul\":5565:5566   */\n  0x01\n    /* \"#utility.yul\":5560:6178   */\n  dup2\n  eq\n  tag_124\n  jumpi\n    /* \"#utility.yul\":6222:6223   */\n  0x00\n    /* \"#utility.yul\":6239:6245   */\n  dup5\n    /* \"#utility.yul\":6236:6313   */\n  iszero\n  tag_125\n  jumpi\n    /* \"#utility.yul\":6288:6297   */\n  dup3\n    /* \"#utility.yul\":6283:6286   */\n  dup8\n    /* \"#utility.yul\":6279:6298   */\n  add\n    /* \"#utility.yul\":6273:6299   */\n  mload\n    /* \"#utility.yul\":6264:6299   */\n  swap1\n  pop\n    /* \"#utility.yul\":6236:6313   */\ntag_125:\n    /* \"#utility.yul\":6339:6406   */\n  tag_126\n    /* \"#utility.yul\":6399:6405   */\n  dup6\n    /* \"#utility.yul\":6392:6397   */\n  dup3\n    /* \"#utility.yul\":6339:6406   */\n  tag_54\n  jump\t// in\ntag_126:\n    /* \"#utility.yul\":6333:6337   */\n  dup7\n    /* \"#utility.yul\":6326:6407   */\n  sstore\n    /* \"#utility.yul\":6195:6417   */\n  pop\n    /* \"#utility.yul\":5530:6417   */\n  jump(tag_123)\n    /* \"#utility.yul\":5560:6178   */\ntag_124:\n    /* \"#utility.yul\":5612:5616   */\n  0x1f\n    /* \"#utility.yul\":5608:5617   */\n  not\n    /* \"#utility.yul\":5600:5606   */\n  dup5\n    /* \"#utility.yul\":5596:5618   */\n  and\n    /* \"#utility.yul\":5646:5683   */\n  tag_127\n    /* \"#utility.yul\":5678:5682   */\n  dup7\n    /* \"#utility.yul\":5646:5683   */\n  tag_39\n  jump\t// in\ntag_127:\n    /* \"#utility.yul\":5705:5706   */\n  0x00\n    /* \"#utility.yul\":5719:5927   */\ntag_128:\n    /* \"#utility.yul\":5733:5740   */\n  dup3\n    /* \"#utility.yul\":5730:5731   */\n  dup2\n    /* \"#utility.yul\":5727:5741   */\n  lt\n    /* \"#utility.yul\":5719:5927   */\n  iszero\n  tag_130\n  jumpi\n    /* \"#utility.yul\":5812:5821   */\n  dup5\n    /* \"#utility.yul\":5807:5810   */\n  dup10\n    /* \"#utility.yul\":5803:5822   */\n  add\n    /* \"#utility.yul\":5797:5823   */\n  mload\n    /* \"#utility.yul\":5789:5795   */\n  dup3\n    /* \"#utility.yul\":5782:5824   */\n  sstore\n    /* \"#utility.yul\":5863:5864   */\n  0x01\n    /* \"#utility.yul\":5855:5861   */\n  dup3\n    /* \"#utility.yul\":5851:5865   */\n  add\n    /* \"#utility.yul\":5841:5865   */\n  swap2\n  pop\n    /* \"#utility.yul\":5910:5912   */\n  0x20\n    /* \"#utility.yul\":5899:5908   */\n  dup6\n    /* \"#utility.yul\":5895:5913   */\n  add\n    /* \"#utility.yul\":5882:5913   */\n  swap5\n  pop\n    /* \"#utility.yul\":5756:5760   */\n  0x20\n    /* \"#utility.yul\":5753:5754   */\n  dup2\n    /* \"#utility.yul\":5749:5761   */\n  add\n    /* \"#utility.yul\":5744:5761   */\n  swap1\n  pop\n    /* \"#utility.yul\":5719:5927   */\n  jump(tag_128)\ntag_130:\n    /* \"#utility.yul\":5955:5961   */\n  dup7\n    /* \"#utility.yul\":5946:5953   */\n  dup4\n    /* \"#utility.yul\":5943:5962   */\n  lt\n    /* \"#utility.yul\":5940:6119   */\n  iszero\n  tag_131\n  jumpi\n    /* \"#utility.yul\":6013:6022   */\n  dup5\n    /* \"#utility.yul\":6008:6011   */\n  dup10\n    /* \"#utility.yul\":6004:6023   */\n  add\n    /* \"#utility.yul\":5998:6024   */\n  mload\n    /* \"#utility.yul\":6056:6104   */\n  tag_132\n    /* \"#utility.yul\":6098:6102   */\n  0x1f\n    /* \"#utility.yul\":6090:6096   */\n  dup10\n    /* \"#utility.yul\":6086:6103   */\n  and\n    /* \"#utility.yul\":6075:6084   */\n  dup3\n    /* \"#utility.yul\":6056:6104   */\n  tag_53\n  jump\t// in\ntag_132:\n    /* \"#utility.yul\":6048:6054   */\n  dup4\n    /* \"#utility.yul\":6041:6105   */\n  sstore\n    /* \"#utility.yul\":5963:6119   */\n  pop\n    /* \"#utility.yul\":5940:6119   */\ntag_131:\n    /* \"#utility.yul\":6165:6166   */\n  0x01\n    /* \"#utility.yul\":6161:6162   */\n  0x02\n    /* \"#utility.yul\":6153:6159   */\n  dup9\n    /* \"#utility.yul\":6149:6163   */\n  mul\n    /* \"#utility.yul\":6145:6167   */\n  add\n    /* \"#utility.yul\":6139:6143   */\n  dup9\n    /* \"#utility.yul\":6132:6168   */\n  sstore\n    /* \"#utility.yul\":5567:6178   */\n  pop\n  pop\n  pop\n    /* \"#utility.yul\":5530:6417   */\ntag_123:\n  pop\n    /* \"#utility.yul\":5120:6423   */\n  pop\n  pop\n  pop\n    /* \"#utility.yul\":5028:6423   */\n  pop\n  pop\n  jump\t// out\n    /* \"#utility.yul\":6429:6547   */\ntag_55:\n    /* \"#utility.yul\":6516:6540   */\n  tag_134\n    /* \"#utility.yul\":6534:6539   */\n  dup2\n    /* \"#utility.yul\":6516:6540   */\n  tag_32\n  jump\t// in\ntag_134:\n    /* \"#utility.yul\":6511:6514   */\n  dup3\n    /* \"#utility.yul\":6504:6541   */\n  mstore\n    /* \"#utility.yul\":6429:6547   */\n  pop\n  pop\n  jump\t// out\n    /* \"#utility.yul\":6553:6775   */\ntag_14:\n    /* \"#utility.yul\":6646:6650   */\n  0x00\n    /* \"#utility.yul\":6684:6686   */\n  0x20\n    /* \"#utility.yul\":6673:6682   */\n  dup3\n    /* \"#utility.yul\":6669:6687   */\n  add\n    /* \"#utility.yul\":6661:6687   */\n  swap1\n  pop\n    /* \"#utility.yul\":6697:6768   */\n  tag_136\n    /* \"#utility.yul\":6765:6766   */\n  0x00\n    /* \"#utility.yul\":6754:6763   */\n  dup4\n    /* \"#utility.yul\":6750:6767   */\n  add\n    /* \"#utility.yul\":6741:6747   */\n  dup5\n    /* \"#utility.yul\":6697:6768   */\n  tag_55\n  jump\t// in\ntag_136:\n    /* \"#utility.yul\":6553:6775   */\n  swap3\n  swap2\n  pop\n  pop\n  jump\t// out\n    /* \"DegenToken-main/contracts/DegenToken.sol\":168:2089  contract FoodToken is ERC20, Ownable {... */\ntag_26:\n  dataSize(sub_0)\n  dup1\n  dataOffset(sub_0)\n  0x00\n  codecopy\n  0x00\n  return\nstop\n\nsub_0: assembly {\n        /* \"DegenToken-main/contracts/DegenToken.sol\":168:2089  contract FoodToken is ERC20, Ownable {... */\n      mstore(0x40, 0x80)\n      callvalue\n      dup1\n      iszero\n      tag_1\n      jumpi\n      0x00\n      dup1\n      revert\n    tag_1:\n      pop\n      jumpi(tag_2, lt(calldatasize, 0x04))\n      shr(0xe0, calldataload(0x00))\n      dup1\n      0x715018a6\n      gt\n      tag_21\n      jumpi\n      dup1\n      0x95d89b41\n      gt\n      tag_22\n      jumpi\n      dup1\n      0x95d89b41\n      eq\n      tag_16\n      jumpi\n      dup1\n      0xa9059cbb\n      eq\n      tag_17\n      jumpi\n      dup1\n      0xdb006a75\n      eq\n      tag_18\n      jumpi\n      dup1\n      0xdd62ed3e\n      eq\n      tag_19\n      jumpi\n      dup1\n      0xf2fde38b\n      eq\n      tag_20\n      jumpi\n      jump(tag_2)\n    tag_22:\n      dup1\n      0x715018a6\n      eq\n      tag_12\n      jumpi\n      dup1\n      0x734e450d\n      eq\n      tag_13\n      jumpi\n      dup1\n      0x8cffa21c\n      eq\n      tag_14\n      jumpi\n      dup1\n      0x8da5cb5b\n      eq\n      tag_15\n      jumpi\n      jump(tag_2)\n    tag_21:\n      dup1\n      0x23b872dd\n      gt\n      tag_23\n      jumpi\n      dup1\n      0x23b872dd\n      eq\n      tag_7\n      jumpi\n      dup1\n      0x313ce567\n      eq\n      tag_8\n      jumpi\n      dup1\n      0x40c10f19\n      eq\n      tag_9\n      jumpi\n      dup1\n      0x42966c68\n      eq\n      tag_10\n      jumpi\n      dup1\n      0x70a08231\n      eq\n      tag_11\n      jumpi\n      jump(tag_2)\n    tag_23:\n      dup1\n      0x06fdde03\n      eq\n      tag_3\n      jumpi\n      dup1\n      0x095ea7b3\n      eq\n      tag_4\n      jumpi\n      dup1\n      0x0ac52e65\n      eq\n      tag_5\n      jumpi\n      dup1\n      0x18160ddd\n      eq\n      tag_6\n      jumpi\n    tag_2:\n      0x00\n      dup1\n      revert\n        /* \"@openzeppelin/contracts/token/ERC20/ERC20.sol\":1779:1868  function name() public view virtual returns (string memory) {... */\n    tag_3:\n      tag_24\n      tag_25\n      jump\t// in\n    tag_24:\n      mload(0x40)\n      tag_26\n      swap2\n      swap1\n      tag_27\n      jump\t// in\n    tag_26:\n      mload(0x40)\n      dup1\n      swap2\n      sub\n      swap1\n      return\n        /* \"@openzeppelin/contracts/token/ERC20/ERC20.sol\":3998:4184  function approve(address spender, uint256 value) public virtual returns (bool) {... */\n    tag_4:\n      tag_28\n      0x04\n      dup1\n      calldatasize\n      sub\n      dup2\n      add\n      swap1\n      tag_29\n      swap2\n      swap1\n      tag_30\n      jump\t// in\n    tag_29:\n      tag_31\n      jump\t// in\n    tag_28:\n      mload(0x40)\n      tag_32\n      swap2\n      swap1\n      tag_33\n      jump\t// in\n    tag_32:\n      mload(0x40)\n      dup1\n      swap2\n      sub\n      swap1\n      return\n        /* \"DegenToken-main/contracts/DegenToken.sol\":303:330  FoodItem[] public foodItems */\n    tag_5:\n      tag_34\n      0x04\n      dup1\n      calldatasize\n      sub\n      dup2\n      add\n      swap1\n      tag_35\n      swap2\n      swap1\n      tag_36\n      jump\t// in\n    tag_35:\n      tag_37\n      jump\t// in\n    tag_34:\n      mload(0x40)\n      tag_38\n      swap4\n      swap3\n      swap2\n      swap1\n      tag_39\n      jump\t// in\n    tag_38:\n      mload(0x40)\n      dup1\n      swap2\n      sub\n      swap1\n      return\n        /* \"@openzeppelin/contracts/token/ERC20/ERC20.sol\":2849:2946  function totalSupply() public view virtual returns (uint256) {... */\n    tag_6:\n      tag_40\n      tag_41\n      jump\t// in\n    tag_40:\n      mload(0x40)\n      tag_42\n      swap2\n      swap1\n      tag_43\n      jump\t// in\n    tag_42:\n      mload(0x40)\n      dup1\n      swap2\n      sub\n      swap1\n      return\n        /* \"@openzeppelin/contracts/token/ERC20/ERC20.sol\":4776:5020  function transferFrom(address from, address to, uint256 value) public virtual returns (bool) {... */\n    tag_7:\n      tag_44\n      0x04\n      dup1\n      calldatasize\n      sub\n      dup2\n      add\n      swap1\n      tag_45\n      swap2\n      swap1\n      tag_46\n      jump\t// in\n    tag_45:\n      tag_47\n      jump\t// in\n    tag_44:\n      mload(0x40)\n      tag_48\n      swap2\n      swap1\n      tag_33\n      jump\t// in\n    tag_48:\n      mload(0x40)\n      dup1\n      swap2\n      sub\n      swap1\n      return\n        /* \"DegenToken-main/contracts/DegenToken.sol\":943:1033  function decimals() public view virtual override returns (uint8) {... */\n    tag_8:\n      tag_49\n      tag_50\n      jump\t// in\n    tag_49:\n      mload(0x40)\n      tag_51\n      swap2\n      swap1\n      tag_52\n      jump\t// in\n    tag_51:\n      mload(0x40)\n      dup1\n      swap2\n      sub\n      swap1\n      return\n        /* \"DegenToken-main/contracts/DegenToken.sol\":1080:1175  function mint(address to, uint256 amount) external onlyOwner {... */\n    tag_9:\n      tag_53\n      0x04\n      dup1\n      calldatasize\n      sub\n      dup2\n      add\n      swap1\n      tag_54\n      swap2\n      swap1\n      tag_30\n      jump\t// in\n    tag_54:\n      tag_55\n      jump\t// in\n    tag_53:\n      stop\n        /* \"DegenToken-main/contracts/DegenToken.sol\":1200:1281  function burn(uint256 amount) external {... */\n    tag_10:\n      tag_56\n      0x04\n      dup1\n      calldatasize\n      sub\n      dup2\n      add\n      swap1\n      tag_57\n      swap2\n      swap1\n      tag_36\n      jump\t// in\n    tag_57:\n      tag_58\n      jump\t// in\n    tag_56:\n      stop\n        /* \"@openzeppelin/contracts/token/ERC20/ERC20.sol\":3004:3120  function balanceOf(address account) public view virtual returns (uint256) {... */\n    tag_11:\n      tag_59\n      0x04\n      dup1\n      calldatasize\n      sub\n      dup2\n      add\n      swap1\n      tag_60\n      swap2\n      swap1\n      tag_61\n      jump\t// in\n    tag_60:\n      tag_62\n      jump\t// in\n    tag_59:\n      mload(0x40)\n      tag_63\n      swap2\n      swap1\n      tag_43\n      jump\t// in\n    tag_63:\n      mload(0x40)\n      dup1\n      swap2\n      sub\n      swap1\n      return\n        /* \"@openzeppelin/contracts/access/Ownable.sol\":2293:2394  function renounceOwnership() public virtual onlyOwner {... */\n    tag_12:\n      tag_64\n      tag_65\n      jump\t// in\n    tag_64:\n      stop\n        /* \"DegenToken-main/contracts/DegenToken.sol\":1828:1927  function getFoodItems() external view returns (FoodItem[] memory) {... */\n    tag_13:\n      tag_66\n      tag_67\n      jump\t// in\n    tag_66:\n      mload(0x40)\n      tag_68\n      swap2\n      swap1\n      tag_69\n      jump\t// in\n    tag_68:\n      mload(0x40)\n      dup1\n      swap2\n      sub\n      swap1\n      return\n        /* \"DegenToken-main/contracts/DegenToken.sol\":1970:2087  function getOwnedItems() external view returns (FoodItem[] memory) {... */\n    tag_14:\n      tag_70\n      tag_71\n      jump\t// in\n    tag_70:\n      mload(0x40)\n      tag_72\n      swap2\n      swap1\n      tag_69\n      jump\t// in\n    tag_72:\n      mload(0x40)\n      dup1\n      swap2\n      sub\n      swap1\n      return\n        /* \"@openzeppelin/contracts/access/Ownable.sol\":1638:1723  function owner() public view virtual returns (address) {... */\n    tag_15:\n      tag_73\n      tag_74\n      jump\t// in\n    tag_73:\n      mload(0x40)\n      tag_75\n      swap2\n      swap1\n      tag_76\n      jump\t// in\n    tag_75:\n      mload(0x40)\n      dup1\n      swap2\n      sub\n      swap1\n      return\n        /* \"@openzeppelin/contracts/token/ERC20/ERC20.sol\":1981:2074  function symbol() public view virtual returns (string memory) {... */\n    tag_16:\n      tag_77\n      tag_78\n      jump\t// in\n    tag_77:\n      mload(0x40)\n      tag_79\n      swap2\n      swap1\n      tag_27\n      jump\t// in\n    tag_79:\n      mload(0x40)\n      dup1\n      swap2\n      sub\n      swap1\n      return\n        /* \"@openzeppelin/contracts/token/ERC20/ERC20.sol\":3315:3493  function transfer(address to, uint256 value) public virtual returns (bool) {... */\n    tag_17:\n      tag_80\n      0x04\n      dup1\n      calldatasize\n      sub\n      dup2\n      add\n      swap1\n      tag_81\n      swap2\n      swap1\n      tag_30\n      jump\t// in\n    tag_81:\n      tag_82\n      jump\t// in\n    tag_80:\n      mload(0x40)\n      tag_83\n      swap2\n      swap1\n      tag_33\n      jump\t// in\n    tag_83:\n      mload(0x40)\n      dup1\n      swap2\n      sub\n      swap1\n      return\n        /* \"DegenToken-main/contracts/DegenToken.sol\":1324:1786  function redeem(uint256 itemId) external {... */\n    tag_18:\n      tag_84\n      0x04\n      dup1\n      calldatasize\n      sub\n      dup2\n      add\n      swap1\n      tag_85\n      swap2\n      swap1\n      tag_36\n      jump\t// in\n    tag_85:\n      tag_86\n      jump\t// in\n    tag_84:\n      stop\n        /* \"@openzeppelin/contracts/token/ERC20/ERC20.sol\":3551:3691  function allowance(address owner, address spender) public view virtual returns (uint256) {... */\n    tag_19:\n      tag_87\n      0x04\n      dup1\n      calldatasize\n      sub\n      dup2\n      add\n      swap1\n      tag_88\n      swap2\n      swap1\n      tag_89\n      jump\t// in\n    tag_88:\n      tag_90\n      jump\t// in\n    tag_87:\n      mload(0x40)\n      tag_91\n      swap2\n      swap1\n      tag_43\n      jump\t// in\n    tag_91:\n      mload(0x40)\n      dup1\n      swap2\n      sub\n      swap1\n      return\n        /* \"@openzeppelin/contracts/access/Ownable.sol\":2543:2758  function transferOwnership(address newOwner) public virtual onlyOwner {... */\n    tag_20:\n      tag_92\n      0x04\n      dup1\n      calldatasize\n      sub\n      dup2\n      add\n      swap1\n      tag_93\n      swap2\n      swap1\n      tag_61\n      jump\t// in\n    tag_93:\n      tag_94\n      jump\t// in\n    tag_92:\n      stop\n        /* \"@openzeppelin/contracts/token/ERC20/ERC20.sol\":1779:1868  function name() public view virtual returns (string memory) {... */\n    tag_25:\n        /* \"@openzeppelin/contracts/token/ERC20/ERC20.sol\":1824:1837  string memory */\n      0x60\n        /* \"@openzeppelin/contracts/token/ERC20/ERC20.sol\":1856:1861  _name */\n      0x03\n        /* \"@openzeppelin/contracts/token/ERC20/ERC20.sol\":1849:1861  return _name */\n      dup1\n      sload\n      tag_96\n      swap1\n      tag_97\n      jump\t// in\n    tag_96:\n      dup1\n      0x1f\n      add\n      0x20\n      dup1\n      swap2\n      div\n      mul\n      0x20\n      add\n      mload(0x40)\n      swap1\n      dup2\n      add\n      0x40\n      mstore\n      dup1\n      swap3\n      swap2\n      swap1\n      dup2\n      dup2\n      mstore\n      0x20\n      add\n      dup3\n      dup1\n      sload\n      tag_98\n      swap1\n      tag_97\n      jump\t// in\n    tag_98:\n      dup1\n      iszero\n      tag_99\n      jumpi\n      dup1\n      0x1f\n      lt\n      tag_100\n      jumpi\n      0x0100\n      dup1\n      dup4\n      sload\n      div\n      mul\n      dup4\n      mstore\n      swap2\n      0x20\n      add\n      swap2\n      jump(tag_99)\n    tag_100:\n      dup3\n      add\n      swap2\n      swap1\n      0x00\n      mstore\n      keccak256(0x00, 0x20)\n      swap1\n    tag_101:\n      dup2\n      sload\n      dup2\n      mstore\n      swap1\n      0x01\n      add\n      swap1\n      0x20\n      add\n      dup1\n      dup4\n      gt\n      tag_101\n      jumpi\n      dup3\n      swap1\n      sub\n      0x1f\n      and\n      dup3\n      add\n      swap2\n    tag_99:\n      pop\n      pop\n      pop\n      pop\n      pop\n      swap1\n      pop\n        /* \"@openzeppelin/contracts/token/ERC20/ERC20.sol\":1779:1868  function name() public view virtual returns (string memory) {... */\n      swap1\n      jump\t// out\n        /* \"@openzeppelin/contracts/token/ERC20/ERC20.sol\":3998:4184  function approve(address spender, uint256 value) public virtual returns (bool) {... */\n    tag_31:\n        /* \"@openzeppelin/contracts/token/ERC20/ERC20.sol\":4071:4075  bool */\n      0x00\n        /* \"@openzeppelin/contracts/token/ERC20/ERC20.sol\":4087:4100  address owner */\n      dup1\n        /* \"@openzeppelin/contracts/token/ERC20/ERC20.sol\":4103:4115  _msgSender() */\n      tag_103\n        /* \"@openzeppelin/contracts/token/ERC20/ERC20.sol\":4103:4113  _msgSender */\n      tag_104\n        /* \"@openzeppelin/contracts/token/ERC20/ERC20.sol\":4103:4115  _msgSender() */\n      jump\t// in\n    tag_103:\n        /* \"@openzeppelin/contracts/token/ERC20/ERC20.sol\":4087:4115  address owner = _msgSender() */\n      swap1\n      pop\n        /* \"@openzeppelin/contracts/token/ERC20/ERC20.sol\":4125:4156  _approve(owner, spender, value) */\n      tag_105\n        /* \"@openzeppelin/contracts/token/ERC20/ERC20.sol\":4134:4139  owner */\n      dup2\n        /* \"@openzeppelin/contracts/token/ERC20/ERC20.sol\":4141:4148  spender */\n      dup6\n        /* \"@openzeppelin/contracts/token/ERC20/ERC20.sol\":4150:4155  value */\n      dup6\n        /* \"@openzeppelin/contracts/token/ERC20/ERC20.sol\":4125:4133  _approve */\n      tag_106\n        /* \"@openzeppelin/contracts/token/ERC20/ERC20.sol\":4125:4156  _approve(owner, spender, value) */\n      jump\t// in\n    tag_105:\n        /* \"@openzeppelin/contracts/token/ERC20/ERC20.sol\":4173:4177  true */\n      0x01\n        /* \"@openzeppelin/contracts/token/ERC20/ERC20.sol\":4166:4177  return true */\n      swap2\n      pop\n      pop\n        /* \"@openzeppelin/contracts/token/ERC20/ERC20.sol\":3998:4184  function approve(address spender, uint256 value) public virtual returns (bool) {... */\n      swap3\n      swap2\n      pop\n      pop\n      jump\t// out\n        /* \"DegenToken-main/contracts/DegenToken.sol\":303:330  FoodItem[] public foodItems */\n    tag_37:\n      0x06\n      dup2\n      dup2\n      sload\n      dup2\n      lt\n      tag_107\n      jumpi\n      0x00\n      dup1\n      revert\n    tag_107:\n      swap1\n      0x00\n      mstore\n      keccak256(0x00, 0x20)\n      swap1\n      0x03\n      mul\n      add\n      0x00\n      swap2\n      pop\n      swap1\n      pop\n      dup1\n      0x00\n      add\n      sload\n      swap1\n      dup1\n      0x01\n      add\n      dup1\n      sload\n      tag_109\n      swap1\n      tag_97\n      jump\t// in\n    tag_109:\n      dup1\n      0x1f\n      add\n      0x20\n      dup1\n      swap2\n      div\n      mul\n      0x20\n      add\n      mload(0x40)\n      swap1\n      dup2\n      add\n      0x40\n      mstore\n      dup1\n      swap3\n      swap2\n      swap1\n      dup2\n      dup2\n      mstore\n      0x20\n      add\n      dup3\n      dup1\n      sload\n      tag_110\n      swap1\n      tag_97\n      jump\t// in\n    tag_110:\n      dup1\n      iszero\n      tag_111\n      jumpi\n      dup1\n      0x1f\n      lt\n      tag_112\n      jumpi\n      0x0100\n      dup1\n      dup4\n      sload\n      div\n      mul\n      dup4\n      mstore\n      swap2\n      0x20\n      add\n      swap2\n      jump(tag_111)\n    tag_112:\n      dup3\n      add\n      swap2\n      swap1\n      0x00\n      mstore\n      keccak256(0x00, 0x20)\n      swap1\n    tag_113:\n      dup2\n      sload\n      dup2\n      mstore\n      swap1\n      0x01\n      add\n      swap1\n      0x20\n      add\n      dup1\n      dup4\n      gt\n      tag_113\n      jumpi\n      dup3\n      swap1\n      sub\n      0x1f\n      and\n      dup3\n      add\n      swap2\n    tag_111:\n      pop\n      pop\n      pop\n      pop\n      pop\n      swap1\n      dup1\n      0x02\n      add\n      sload\n      swap1\n      pop\n      dup4\n      jump\t// out\n        /* \"@openzeppelin/contracts/token/ERC20/ERC20.sol\":2849:2946  function totalSupply() public view virtual returns (uint256) {... */\n    tag_41:\n        /* \"@openzeppelin/contracts/token/ERC20/ERC20.sol\":2901:2908  uint256 */\n      0x00\n        /* \"@openzeppelin/contracts/token/ERC20/ERC20.sol\":2927:2939  _totalSupply */\n      sload(0x02)\n        /* \"@openzeppelin/contracts/token/ERC20/ERC20.sol\":2920:2939  return _totalSupply */\n      swap1\n      pop\n        /* \"@openzeppelin/contracts/token/ERC20/ERC20.sol\":2849:2946  function totalSupply() public view virtual returns (uint256) {... */\n      swap1\n      jump\t// out\n        /* \"@openzeppelin/contracts/token/ERC20/ERC20.sol\":4776:5020  function transferFrom(address from, address to, uint256 value) public virtual returns (bool) {... */\n    tag_47:\n        /* \"@openzeppelin/contracts/token/ERC20/ERC20.sol\":4863:4867  bool */\n      0x00\n        /* \"@openzeppelin/contracts/token/ERC20/ERC20.sol\":4879:4894  address spender */\n      dup1\n        /* \"@openzeppelin/contracts/token/ERC20/ERC20.sol\":4897:4909  _msgSender() */\n      tag_116\n        /* \"@openzeppelin/contracts/token/ERC20/ERC20.sol\":4897:4907  _msgSender */\n      tag_104\n        /* \"@openzeppelin/contracts/token/ERC20/ERC20.sol\":4897:4909  _msgSender() */\n      jump\t// in\n    tag_116:\n        /* \"@openzeppelin/contracts/token/ERC20/ERC20.sol\":4879:4909  address spender = _msgSender() */\n      swap1\n      pop\n        /* \"@openzeppelin/contracts/token/ERC20/ERC20.sol\":4919:4956  _spendAllowance(from, spender, value) */\n      tag_117\n        /* \"@openzeppelin/contracts/token/ERC20/ERC20.sol\":4935:4939  from */\n      dup6\n        /* \"@openzeppelin/contracts/token/ERC20/ERC20.sol\":4941:4948  spender */\n      dup3\n        /* \"@openzeppelin/contracts/token/ERC20/ERC20.sol\":4950:4955  value */\n      dup6\n        /* \"@openzeppelin/contracts/token/ERC20/ERC20.sol\":4919:4934  _spendAllowance */\n      tag_118\n        /* \"@openzeppelin/contracts/token/ERC20/ERC20.sol\":4919:4956  _spendAllowance(from, spender, value) */\n      jump\t// in\n    tag_117:\n        /* \"@openzeppelin/contracts/token/ERC20/ERC20.sol\":4966:4992  _transfer(from, to, value) */\n      tag_119\n        /* \"@openzeppelin/contracts/token/ERC20/ERC20.sol\":4976:4980  from */\n      dup6\n        /* \"@openzeppelin/contracts/token/ERC20/ERC20.sol\":4982:4984  to */\n      dup6\n        /* \"@openzeppelin/contracts/token/ERC20/ERC20.sol\":4986:4991  value */\n      dup6\n        /* \"@openzeppelin/contracts/token/ERC20/ERC20.sol\":4966:4975  _transfer */\n      tag_120\n        /* \"@openzeppelin/contracts/token/ERC20/ERC20.sol\":4966:4992  _transfer(from, to, value) */\n      jump\t// in\n    tag_119:\n        /* \"@openzeppelin/contracts/token/ERC20/ERC20.sol\":5009:5013  true */\n      0x01\n        /* \"@openzeppelin/contracts/token/ERC20/ERC20.sol\":5002:5013  return true */\n      swap2\n      pop\n      pop\n        /* \"@openzeppelin/contracts/token/ERC20/ERC20.sol\":4776:5020  function transferFrom(address from, address to, uint256 value) public virtual returns (bool) {... */\n      swap4\n      swap3\n      pop\n      pop\n      pop\n      jump\t// out\n        /* \"DegenToken-main/contracts/DegenToken.sol\":943:1033  function decimals() public view virtual override returns (uint8) {... */\n    tag_50:\n        /* \"DegenToken-main/contracts/DegenToken.sol\":1001:1006  uint8 */\n      0x00\n        /* \"DegenToken-main/contracts/DegenToken.sol\":943:1033  function decimals() public view virtual override returns (uint8) {... */\n      swap1\n      jump\t// out\n        /* \"DegenToken-main/contracts/DegenToken.sol\":1080:1175  function mint(address to, uint256 amount) external onlyOwner {... */\n    tag_55:\n        /* \"@openzeppelin/contracts/access/Ownable.sol\":1531:1544  _checkOwner() */\n      tag_123\n        /* \"@openzeppelin/contracts/access/Ownable.sol\":1531:1542  _checkOwner */\n      tag_124\n        /* \"@openzeppelin/contracts/access/Ownable.sol\":1531:1544  _checkOwner() */\n      jump\t// in\n    tag_123:\n        /* \"DegenToken-main/contracts/DegenToken.sol\":1151:1168  _mint(to, amount) */\n      tag_126\n        /* \"DegenToken-main/contracts/DegenToken.sol\":1157:1159  to */\n      dup3\n        /* \"DegenToken-main/contracts/DegenToken.sol\":1161:1167  amount */\n      dup3\n        /* \"DegenToken-main/contracts/DegenToken.sol\":1151:1156  _mint */\n      tag_127\n        /* \"DegenToken-main/contracts/DegenToken.sol\":1151:1168  _mint(to, amount) */\n      jump\t// in\n    tag_126:\n        /* \"DegenToken-main/contracts/DegenToken.sol\":1080:1175  function mint(address to, uint256 amount) external onlyOwner {... */\n      pop\n      pop\n      jump\t// out\n        /* \"DegenToken-main/contracts/DegenToken.sol\":1200:1281  function burn(uint256 amount) external {... */\n    tag_58:\n        /* \"DegenToken-main/contracts/DegenToken.sol\":1249:1274  _burn(msg.sender, amount) */\n      tag_129\n        /* \"DegenToken-main/contracts/DegenToken.sol\":1255:1265  msg.sender */\n      caller\n        /* \"DegenToken-main/contracts/DegenToken.sol\":1267:1273  amount */\n      dup3\n        /* \"DegenToken-main/contracts/DegenToken.sol\":1249:1254  _burn */\n      tag_130\n        /* \"DegenToken-main/contracts/DegenToken.sol\":1249:1274  _burn(msg.sender, amount) */\n      jump\t// in\n    tag_129:\n        /* \"DegenToken-main/contracts/DegenToken.sol\":1200:1281  function burn(uint256 amount) external {... */\n      pop\n      jump\t// out\n        /* \"@openzeppelin/contracts/token/ERC20/ERC20.sol\":3004:3120  function balanceOf(address account) public view virtual returns (uint256) {... */\n    tag_62:\n        /* \"@openzeppelin/contracts/token/ERC20/ERC20.sol\":3069:3076  uint256 */\n      0x00\n        /* \"@openzeppelin/contracts/token/ERC20/ERC20.sol\":3095:3104  _balances */\n      dup1\n        /* \"@openzeppelin/contracts/token/ERC20/ERC20.sol\":3095:3113  _balances[account] */\n      0x00\n        /* \"@openzeppelin/contracts/token/ERC20/ERC20.sol\":3105:3112  account */\n      dup4\n        /* \"@openzeppelin/contracts/token/ERC20/ERC20.sol\":3095:3113  _balances[account] */\n      0xffffffffffffffffffffffffffffffffffffffff\n      and\n      0xffffffffffffffffffffffffffffffffffffffff\n      and\n      dup2\n      mstore\n      0x20\n      add\n      swap1\n      dup2\n      mstore\n      0x20\n      add\n      0x00\n      keccak256\n      sload\n        /* \"@openzeppelin/contracts/token/ERC20/ERC20.sol\":3088:3113  return _balances[account] */\n      swap1\n      pop\n        /* \"@openzeppelin/contracts/token/ERC20/ERC20.sol\":3004:3120  function balanceOf(address account) public view virtual returns (uint256) {... */\n      swap2\n      swap1\n      pop\n      jump\t// out\n        /* \"@openzeppelin/contracts/access/Ownable.sol\":2293:2394  function renounceOwnership() public virtual onlyOwner {... */\n    tag_65:\n        /* \"@openzeppelin/contracts/access/Ownable.sol\":1531:1544  _checkOwner() */\n      tag_133\n        /* \"@openzeppelin/contracts/access/Ownable.sol\":1531:1542  _checkOwner */\n      tag_124\n        /* \"@openzeppelin/contracts/access/Ownable.sol\":1531:1544  _checkOwner() */\n      jump\t// in\n    tag_133:\n        /* \"@openzeppelin/contracts/access/Ownable.sol\":2357:2387  _transferOwnership(address(0)) */\n      tag_135\n        /* \"@openzeppelin/contracts/access/Ownable.sol\":2384:2385  0 */\n      0x00\n        /* \"@openzeppelin/contracts/access/Ownable.sol\":2357:2375  _transferOwnership */\n      tag_136\n        /* \"@openzeppelin/contracts/access/Ownable.sol\":2357:2387  _transferOwnership(address(0)) */\n      jump\t// in\n    tag_135:\n        /* \"@openzeppelin/contracts/access/Ownable.sol\":2293:2394  function renounceOwnership() public virtual onlyOwner {... */\n      jump\t// out\n        /* \"DegenToken-main/contracts/DegenToken.sol\":1828:1927  function getFoodItems() external view returns (FoodItem[] memory) {... */\n    tag_67:\n        /* \"DegenToken-main/contracts/DegenToken.sol\":1875:1892  FoodItem[] memory */\n      0x60\n        /* \"DegenToken-main/contracts/DegenToken.sol\":1911:1920  foodItems */\n      0x06\n        /* \"DegenToken-main/contracts/DegenToken.sol\":1904:1920  return foodItems */\n      dup1\n      sload\n      dup1\n      0x20\n      mul\n      0x20\n      add\n      mload(0x40)\n      swap1\n      dup2\n      add\n      0x40\n      mstore\n      dup1\n      swap3\n      swap2\n      swap1\n      dup2\n      dup2\n      mstore\n      0x20\n      add\n      0x00\n      swap1\n    tag_138:\n      dup3\n      dup3\n      lt\n      iszero\n      tag_139\n      jumpi\n      dup4\n      dup3\n      swap1\n      0x00\n      mstore\n      keccak256(0x00, 0x20)\n      swap1\n      0x03\n      mul\n      add\n      mload(0x40)\n      dup1\n      0x60\n      add\n      0x40\n      mstore\n      swap1\n      dup2\n      0x00\n      dup3\n      add\n      sload\n      dup2\n      mstore\n      0x20\n      add\n      0x01\n      dup3\n      add\n      dup1\n      sload\n      tag_141\n      swap1\n      tag_97\n      jump\t// in\n    tag_141:\n      dup1\n      0x1f\n      add\n      0x20\n      dup1\n      swap2\n      div\n      mul\n      0x20\n      add\n      mload(0x40)\n      swap1\n      dup2\n      add\n      0x40\n      mstore\n      dup1\n      swap3\n      swap2\n      swap1\n      dup2\n      dup2\n      mstore\n      0x20\n      add\n      dup3\n      dup1\n      sload\n      tag_142\n      swap1\n      tag_97\n      jump\t// in\n    tag_142:\n      dup1\n      iszero\n      tag_143\n      jumpi\n      dup1\n      0x1f\n      lt\n      tag_144\n      jumpi\n      0x0100\n      dup1\n      dup4\n      sload\n      div\n      mul\n      dup4\n      mstore\n      swap2\n      0x20\n      add\n      swap2\n      jump(tag_143)\n    tag_144:\n      dup3\n      add\n      swap2\n      swap1\n      0x00\n      mstore\n      keccak256(0x00, 0x20)\n      swap1\n    tag_145:\n      dup2\n      sload\n      dup2\n      mstore\n      swap1\n      0x01\n      add\n      swap1\n      0x20\n      add\n      dup1\n      dup4\n      gt\n      tag_145\n      jumpi\n      dup3\n      swap1\n      sub\n      0x1f\n      and\n      dup3\n      add\n      swap2\n    tag_143:\n      pop\n      pop\n      pop\n      pop\n      pop\n      dup2\n      mstore\n      0x20\n      add\n      0x02\n      dup3\n      add\n      sload\n      dup2\n      mstore\n      pop\n      pop\n      dup2\n      mstore\n      0x20\n      add\n      swap1\n      0x01\n      add\n      swap1\n      jump(tag_138)\n    tag_139:\n      pop\n      pop\n      pop\n      pop\n      swap1\n      pop\n        /* \"DegenToken-main/contracts/DegenToken.sol\":1828:1927  function getFoodItems() external view returns (FoodItem[] memory) {... */\n      swap1\n      jump\t// out\n        /* \"DegenToken-main/contracts/DegenToken.sol\":1970:2087  function getOwnedItems() external view returns (FoodItem[] memory) {... */\n    tag_71:\n        /* \"DegenToken-main/contracts/DegenToken.sol\":2018:2035  FoodItem[] memory */\n      0x60\n        /* \"DegenToken-main/contracts/DegenToken.sol\":2054:2068  ownedFoodItems */\n      0x07\n        /* \"DegenToken-main/contracts/DegenToken.sol\":2054:2080  ownedFoodItems[msg.sender] */\n      0x00\n        /* \"DegenToken-main/contracts/DegenToken.sol\":2069:2079  msg.sender */\n      caller\n        /* \"DegenToken-main/contracts/DegenToken.sol\":2054:2080  ownedFoodItems[msg.sender] */\n      0xffffffffffffffffffffffffffffffffffffffff\n      and\n      0xffffffffffffffffffffffffffffffffffffffff\n      and\n      dup2\n      mstore\n      0x20\n      add\n      swap1\n      dup2\n      mstore\n      0x20\n      add\n      0x00\n      keccak256\n        /* \"DegenToken-main/contracts/DegenToken.sol\":2047:2080  return ownedFoodItems[msg.sender] */\n      dup1\n      sload\n      dup1\n      0x20\n      mul\n      0x20\n      add\n      mload(0x40)\n      swap1\n      dup2\n      add\n      0x40\n      mstore\n      dup1\n      swap3\n      swap2\n      swap1\n      dup2\n      dup2\n      mstore\n      0x20\n      add\n      0x00\n      swap1\n    tag_147:\n      dup3\n      dup3\n      lt\n      iszero\n      tag_148\n      jumpi\n      dup4\n      dup3\n      swap1\n      0x00\n      mstore\n      keccak256(0x00, 0x20)\n      swap1\n      0x03\n      mul\n      add\n      mload(0x40)\n      dup1\n      0x60\n      add\n      0x40\n      mstore\n      swap1\n      dup2\n      0x00\n      dup3\n      add\n      sload\n      dup2\n      mstore\n      0x20\n      add\n      0x01\n      dup3\n      add\n      dup1\n      sload\n      tag_150\n      swap1\n      tag_97\n      jump\t// in\n    tag_150:\n      dup1\n      0x1f\n      add\n      0x20\n      dup1\n      swap2\n      div\n      mul\n      0x20\n      add\n      mload(0x40)\n      swap1\n      dup2\n      add\n      0x40\n      mstore\n      dup1\n      swap3\n      swap2\n      swap1\n      dup2\n      dup2\n      mstore\n      0x20\n      add\n      dup3\n      dup1\n      sload\n      tag_151\n      swap1\n      tag_97\n      jump\t// in\n    tag_151:\n      dup1\n      iszero\n      tag_152\n      jumpi\n      dup1\n      0x1f\n      lt\n      tag_153\n      jumpi\n      0x0100\n      dup1\n      dup4\n      sload\n      div\n      mul\n      dup4\n      mstore\n      swap2\n      0x20\n      add\n      swap2\n      jump(tag_152)\n    tag_153:\n      dup3\n      add\n      swap2\n      swap1\n      0x00\n      mstore\n      keccak256(0x00, 0x20)\n      swap1\n    tag_154:\n      dup2\n      sload\n      dup2\n      mstore\n      swap1\n      0x01\n      add\n      swap1\n      0x20\n      add\n      dup1\n      dup4\n      gt\n      tag_154\n      jumpi\n      dup3\n      swap1\n      sub\n      0x1f\n      and\n      dup3\n      add\n      swap2\n    tag_152:\n      pop\n      pop\n      pop\n      pop\n      pop\n      dup2\n      mstore\n      0x20\n      add\n      0x02\n      dup3\n      add\n      sload\n      dup2\n      mstore\n      pop\n      pop\n      dup2\n      mstore\n      0x20\n      add\n      swap1\n      0x01\n      add\n      swap1\n      jump(tag_147)\n    tag_148:\n      pop\n      pop\n      pop\n      pop\n      swap1\n      pop\n        /* \"DegenToken-main/contracts/DegenToken.sol\":1970:2087  function getOwnedItems() external view returns (FoodItem[] memory) {... */\n      swap1\n      jump\t// out\n        /* \"@openzeppelin/contracts/access/Ownable.sol\":1638:1723  function owner() public view virtual returns (address) {... */\n    tag_74:\n        /* \"@openzeppelin/contracts/access/Ownable.sol\":1684:1691  address */\n      0x00\n        /* \"@openzeppelin/contracts/access/Ownable.sol\":1710:1716  _owner */\n      0x05\n      0x00\n      swap1\n      sload\n      swap1\n      0x0100\n      exp\n      swap1\n      div\n      0xffffffffffffffffffffffffffffffffffffffff\n      and\n        /* \"@openzeppelin/contracts/access/Ownable.sol\":1703:1716  return _owner */\n      swap1\n      pop\n        /* \"@openzeppelin/contracts/access/Ownable.sol\":1638:1723  function owner() public view virtual returns (address) {... */\n      swap1\n      jump\t// out\n        /* \"@openzeppelin/contracts/token/ERC20/ERC20.sol\":1981:2074  function symbol() public view virtual returns (string memory) {... */\n    tag_78:\n        /* \"@openzeppelin/contracts/token/ERC20/ERC20.sol\":2028:2041  string memory */\n      0x60\n        /* \"@openzeppelin/contracts/token/ERC20/ERC20.sol\":2060:2067  _symbol */\n      0x04\n        /* \"@openzeppelin/contracts/token/ERC20/ERC20.sol\":2053:2067  return _symbol */\n      dup1\n      sload\n      tag_157\n      swap1\n      tag_97\n      jump\t// in\n    tag_157:\n      dup1\n      0x1f\n      add\n      0x20\n      dup1\n      swap2\n      div\n      mul\n      0x20\n      add\n      mload(0x40)\n      swap1\n      dup2\n      add\n      0x40\n      mstore\n      dup1\n      swap3\n      swap2\n      swap1\n      dup2\n      dup2\n      mstore\n      0x20\n      add\n      dup3\n      dup1\n      sload\n      tag_158\n      swap1\n      tag_97\n      jump\t// in\n    tag_158:\n      dup1\n      iszero\n      tag_159\n      jumpi\n      dup1\n      0x1f\n      lt\n      tag_160\n      jumpi\n      0x0100\n      dup1\n      dup4\n      sload\n      div\n      mul\n      dup4\n      mstore\n      swap2\n      0x20\n      add\n      swap2\n      jump(tag_159)\n    tag_160:\n      dup3\n      add\n      swap2\n      swap1\n      0x00\n      mstore\n      keccak256(0x00, 0x20)\n      swap1\n    tag_161:\n      dup2\n      sload\n      dup2\n      mstore\n      swap1\n      0x01\n      add\n      swap1\n      0x20\n      add\n      dup1\n      dup4\n      gt\n      tag_161\n      jumpi\n      dup3\n      swap1\n      sub\n      0x1f\n      and\n      dup3\n      add\n      swap2\n    tag_159:\n      pop\n      pop\n      pop\n      pop\n      pop\n      swap1\n      pop\n        /* \"@openzeppelin/contracts/token/ERC20/ERC20.sol\":1981:2074  function symbol() public view virtual returns (string memory) {... */\n      swap1\n      jump\t// out\n        /* \"@openzeppelin/contracts/token/ERC20/ERC20.sol\":3315:3493  function transfer(address to, uint256 value) public virtual returns (bool) {... */\n    tag_82:\n        /* \"@openzeppelin/contracts/token/ERC20/ERC20.sol\":3384:3388  bool */\n      0x00\n        /* \"@openzeppelin/contracts/token/ERC20/ERC20.sol\":3400:3413  address owner */\n      dup1\n        /* \"@openzeppelin/contracts/token/ERC20/ERC20.sol\":3416:3428  _msgSender() */\n      tag_163\n        /* \"@openzeppelin/contracts/token/ERC20/ERC20.sol\":3416:3426  _msgSender */\n      tag_104\n        /* \"@openzeppelin/contracts/token/ERC20/ERC20.sol\":3416:3428  _msgSender() */\n      jump\t// in\n    tag_163:\n        /* \"@openzeppelin/contracts/token/ERC20/ERC20.sol\":3400:3428  address owner = _msgSender() */\n      swap1\n      pop\n        /* \"@openzeppelin/contracts/token/ERC20/ERC20.sol\":3438:3465  _transfer(owner, to, value) */\n      tag_164\n        /* \"@openzeppelin/contracts/token/ERC20/ERC20.sol\":3448:3453  owner */\n      dup2\n        /* \"@openzeppelin/contracts/token/ERC20/ERC20.sol\":3455:3457  to */\n      dup6\n        /* \"@openzeppelin/contracts/token/ERC20/ERC20.sol\":3459:3464  value */\n      dup6\n        /* \"@openzeppelin/contracts/token/ERC20/ERC20.sol\":3438:3447  _transfer */\n      tag_120\n        /* \"@openzeppelin/contracts/token/ERC20/ERC20.sol\":3438:3465  _transfer(owner, to, value) */\n      jump\t// in\n    tag_164:\n        /* \"@openzeppelin/contracts/token/ERC20/ERC20.sol\":3482:3486  true */\n      0x01\n        /* \"@openzeppelin/contracts/token/ERC20/ERC20.sol\":3475:3486  return true */\n      swap2\n      pop\n      pop\n        /* \"@openzeppelin/contracts/token/ERC20/ERC20.sol\":3315:3493  function transfer(address to, uint256 value) public virtual returns (bool) {... */\n      swap3\n      swap2\n      pop\n      pop\n      jump\t// out\n        /* \"DegenToken-main/contracts/DegenToken.sol\":1324:1786  function redeem(uint256 itemId) external {... */\n    tag_86:\n        /* \"DegenToken-main/contracts/DegenToken.sol\":1392:1393  0 */\n      0x00\n        /* \"DegenToken-main/contracts/DegenToken.sol\":1383:1389  itemId */\n      dup2\n        /* \"DegenToken-main/contracts/DegenToken.sol\":1383:1393  itemId > 0 */\n      gt\n        /* \"DegenToken-main/contracts/DegenToken.sol\":1383:1423  itemId > 0 && itemId <= foodItems.length */\n      dup1\n      iszero\n      tag_166\n      jumpi\n      pop\n        /* \"DegenToken-main/contracts/DegenToken.sol\":1407:1416  foodItems */\n      0x06\n        /* \"DegenToken-main/contracts/DegenToken.sol\":1407:1423  foodItems.length */\n      dup1\n      sload\n      swap1\n      pop\n        /* \"DegenToken-main/contracts/DegenToken.sol\":1397:1403  itemId */\n      dup2\n        /* \"DegenToken-main/contracts/DegenToken.sol\":1397:1423  itemId <= foodItems.length */\n      gt\n      iszero\n        /* \"DegenToken-main/contracts/DegenToken.sol\":1383:1423  itemId > 0 && itemId <= foodItems.length */\n    tag_166:\n        /* \"DegenToken-main/contracts/DegenToken.sol\":1375:1443  require(itemId > 0 && itemId <= foodItems.length, \"Invalid item ID\") */\n      tag_167\n      jumpi\n      mload(0x40)\n      0x08c379a000000000000000000000000000000000000000000000000000000000\n      dup2\n      mstore\n      0x04\n      add\n      tag_168\n      swap1\n      tag_169\n      jump\t// in\n    tag_168:\n      mload(0x40)\n      dup1\n      swap2\n      sub\n      swap1\n      revert\n    tag_167:\n        /* \"DegenToken-main/contracts/DegenToken.sol\":1453:1473  FoodItem memory item */\n      0x00\n        /* \"DegenToken-main/contracts/DegenToken.sol\":1476:1485  foodItems */\n      0x06\n        /* \"DegenToken-main/contracts/DegenToken.sol\":1495:1496  1 */\n      0x01\n        /* \"DegenToken-main/contracts/DegenToken.sol\":1486:1492  itemId */\n      dup4\n        /* \"DegenToken-main/contracts/DegenToken.sol\":1486:1496  itemId - 1 */\n      tag_170\n      swap2\n      swap1\n      tag_171\n      jump\t// in\n    tag_170:\n        /* \"DegenToken-main/contracts/DegenToken.sol\":1476:1497  foodItems[itemId - 1] */\n      dup2\n      sload\n      dup2\n      lt\n      tag_172\n      jumpi\n      tag_173\n      tag_174\n      jump\t// in\n    tag_173:\n    tag_172:\n      swap1\n      0x00\n      mstore\n      keccak256(0x00, 0x20)\n      swap1\n      0x03\n      mul\n      add\n        /* \"DegenToken-main/contracts/DegenToken.sol\":1453:1497  FoodItem memory item = foodItems[itemId - 1] */\n      mload(0x40)\n      dup1\n      0x60\n      add\n      0x40\n      mstore\n      swap1\n      dup2\n      0x00\n      dup3\n      add\n      sload\n      dup2\n      mstore\n      0x20\n      add\n      0x01\n      dup3\n      add\n      dup1\n      sload\n      tag_176\n      swap1\n      tag_97\n      jump\t// in\n    tag_176:\n      dup1\n      0x1f\n      add\n      0x20\n      dup1\n      swap2\n      div\n      mul\n      0x20\n      add\n      mload(0x40)\n      swap1\n      dup2\n      add\n      0x40\n      mstore\n      dup1\n      swap3\n      swap2\n      swap1\n      dup2\n      dup2\n      mstore\n      0x20\n      add\n      dup3\n      dup1\n      sload\n      tag_177\n      swap1\n      tag_97\n      jump\t// in\n    tag_177:\n      dup1\n      iszero\n      tag_178\n      jumpi\n      dup1\n      0x1f\n      lt\n      tag_179\n      jumpi\n      0x0100\n      dup1\n      dup4\n      sload\n      div\n      mul\n      dup4\n      mstore\n      swap2\n      0x20\n      add\n      swap2\n      jump(tag_178)\n    tag_179:\n      dup3\n      add\n      swap2\n      swap1\n      0x00\n      mstore\n      keccak256(0x00, 0x20)\n      swap1\n    tag_180:\n      dup2\n      sload\n      dup2\n      mstore\n      swap1\n      0x01\n      add\n      swap1\n      0x20\n      add\n      dup1\n      dup4\n      gt\n      tag_180\n      jumpi\n      dup3\n      swap1\n      sub\n      0x1f\n      and\n      dup3\n      add\n      swap2\n    tag_178:\n      pop\n      pop\n      pop\n      pop\n      pop\n      dup2\n      mstore\n      0x20\n      add\n      0x02\n      dup3\n      add\n      sload\n      dup2\n      mstore\n      pop\n      pop\n      swap1\n      pop\n        /* \"DegenToken-main/contracts/DegenToken.sol\":1540:1544  item */\n      dup1\n        /* \"DegenToken-main/contracts/DegenToken.sol\":1540:1549  item.cost */\n      0x40\n      add\n      mload\n        /* \"DegenToken-main/contracts/DegenToken.sol\":1515:1536  balanceOf(msg.sender) */\n      tag_181\n        /* \"DegenToken-main/contracts/DegenToken.sol\":1525:1535  msg.sender */\n      caller\n        /* \"DegenToken-main/contracts/DegenToken.sol\":1515:1524  balanceOf */\n      tag_62\n        /* \"DegenToken-main/contracts/DegenToken.sol\":1515:1536  balanceOf(msg.sender) */\n      jump\t// in\n    tag_181:\n        /* \"DegenToken-main/contracts/DegenToken.sol\":1515:1549  balanceOf(msg.sender) >= item.cost */\n      lt\n      iszero\n        /* \"DegenToken-main/contracts/DegenToken.sol\":1507:1573  require(balanceOf(msg.sender) >= item.cost, \"Insufficient tokens\") */\n      tag_182\n      jumpi\n      mload(0x40)\n      0x08c379a000000000000000000000000000000000000000000000000000000000\n      dup2\n      mstore\n      0x04\n      add\n      tag_183\n      swap1\n      tag_184\n      jump\t// in\n    tag_183:\n      mload(0x40)\n      dup1\n      swap2\n      sub\n      swap1\n      revert\n    tag_182:\n        /* \"DegenToken-main/contracts/DegenToken.sol\":1633:1661  _burn(msg.sender, item.cost) */\n      tag_185\n        /* \"DegenToken-main/contracts/DegenToken.sol\":1639:1649  msg.sender */\n      caller\n        /* \"DegenToken-main/contracts/DegenToken.sol\":1651:1655  item */\n      dup3\n        /* \"DegenToken-main/contracts/DegenToken.sol\":1651:1660  item.cost */\n      0x40\n      add\n      mload\n        /* \"DegenToken-main/contracts/DegenToken.sol\":1633:1638  _burn */\n      tag_130\n        /* \"DegenToken-main/contracts/DegenToken.sol\":1633:1661  _burn(msg.sender, item.cost) */\n      jump\t// in\n    tag_185:\n        /* \"DegenToken-main/contracts/DegenToken.sol\":1671:1685  ownedFoodItems */\n      0x07\n        /* \"DegenToken-main/contracts/DegenToken.sol\":1671:1697  ownedFoodItems[msg.sender] */\n      0x00\n        /* \"DegenToken-main/contracts/DegenToken.sol\":1686:1696  msg.sender */\n      caller\n        /* \"DegenToken-main/contracts/DegenToken.sol\":1671:1697  ownedFoodItems[msg.sender] */\n      0xffffffffffffffffffffffffffffffffffffffff\n      and\n      0xffffffffffffffffffffffffffffffffffffffff\n      and\n      dup2\n      mstore\n      0x20\n      add\n      swap1\n      dup2\n      mstore\n      0x20\n      add\n      0x00\n      keccak256\n        /* \"DegenToken-main/contracts/DegenToken.sol\":1703:1707  item */\n      dup2\n        /* \"DegenToken-main/contracts/DegenToken.sol\":1671:1708  ownedFoodItems[msg.sender].push(item) */\n      swap1\n      dup1\n      0x01\n      dup2\n      sload\n      add\n      dup1\n      dup3\n      sstore\n      dup1\n      swap2\n      pop\n      pop\n      0x01\n      swap1\n      sub\n      swap1\n      0x00\n      mstore\n      keccak256(0x00, 0x20)\n      swap1\n      0x03\n      mul\n      add\n      0x00\n      swap1\n      swap2\n      swap1\n      swap2\n      swap1\n      swap2\n      pop\n      0x00\n      dup3\n      add\n      mload\n      dup2\n      0x00\n      add\n      sstore\n      0x20\n      dup3\n      add\n      mload\n      dup2\n      0x01\n      add\n      swap1\n      dup2\n      tag_187\n      swap2\n      swap1\n      tag_188\n      jump\t// in\n    tag_187:\n      pop\n      0x40\n      dup3\n      add\n      mload\n      dup2\n      0x02\n      add\n      sstore\n      pop\n      pop\n        /* \"DegenToken-main/contracts/DegenToken.sol\":1737:1747  msg.sender */\n      caller\n        /* \"DegenToken-main/contracts/DegenToken.sol\":1724:1779  ItemRedeemed(msg.sender, item.id, item.name, item.cost) */\n      0xffffffffffffffffffffffffffffffffffffffff\n      and\n      0x2748aed474e8b2615b65f003a5fac4b64d8c9eb9c911daf175b6103f3802cd4c\n        /* \"DegenToken-main/contracts/DegenToken.sol\":1749:1753  item */\n      dup3\n        /* \"DegenToken-main/contracts/DegenToken.sol\":1749:1756  item.id */\n      0x00\n      add\n      mload\n        /* \"DegenToken-main/contracts/DegenToken.sol\":1758:1762  item */\n      dup4\n        /* \"DegenToken-main/contracts/DegenToken.sol\":1758:1767  item.name */\n      0x20\n      add\n      mload\n        /* \"DegenToken-main/contracts/DegenToken.sol\":1769:1773  item */\n      dup5\n        /* \"DegenToken-main/contracts/DegenToken.sol\":1769:1778  item.cost */\n      0x40\n      add\n      mload\n        /* \"DegenToken-main/contracts/DegenToken.sol\":1724:1779  ItemRedeemed(msg.sender, item.id, item.name, item.cost) */\n      mload(0x40)\n      tag_189\n      swap4\n      swap3\n      swap2\n      swap1\n      tag_39\n      jump\t// in\n    tag_189:\n      mload(0x40)\n      dup1\n      swap2\n      sub\n      swap1\n      log2\n        /* \"DegenToken-main/contracts/DegenToken.sol\":1365:1786  {... */\n      pop\n        /* \"DegenToken-main/contracts/DegenToken.sol\":1324:1786  function redeem(uint256 itemId) external {... */\n      pop\n      jump\t// out\n        /* \"@openzeppelin/contracts/token/ERC20/ERC20.sol\":3551:3691  function allowance(address owner, address spender) public view virtual returns (uint256) {... */\n    tag_90:\n        /* \"@openzeppelin/contracts/token/ERC20/ERC20.sol\":3631:3638  uint256 */\n      0x00\n        /* \"@openzeppelin/contracts/token/ERC20/ERC20.sol\":3657:3668  _allowances */\n      0x01\n        /* \"@openzeppelin/contracts/token/ERC20/ERC20.sol\":3657:3675  _allowances[owner] */\n      0x00\n        /* \"@openzeppelin/contracts/token/ERC20/ERC20.sol\":3669:3674  owner */\n      dup5\n        /* \"@openzeppelin/contracts/token/ERC20/ERC20.sol\":3657:3675  _allowances[owner] */\n      0xffffffffffffffffffffffffffffffffffffffff\n      and\n      0xffffffffffffffffffffffffffffffffffffffff\n      and\n      dup2\n      mstore\n      0x20\n      add\n      swap1\n      dup2\n      mstore\n      0x20\n      add\n      0x00\n      keccak256\n        /* \"@openzeppelin/contracts/token/ERC20/ERC20.sol\":3657:3684  _allowances[owner][spender] */\n      0x00\n        /* \"@openzeppelin/contracts/token/ERC20/ERC20.sol\":3676:3683  spender */\n      dup4\n        /* \"@openzeppelin/contracts/token/ERC20/ERC20.sol\":3657:3684  _allowances[owner][spender] */\n      0xffffffffffffffffffffffffffffffffffffffff\n      and\n      0xffffffffffffffffffffffffffffffffffffffff\n      and\n      dup2\n      mstore\n      0x20\n      add\n      swap1\n      dup2\n      mstore\n      0x20\n      add\n      0x00\n      keccak256\n      sload\n        /* \"@openzeppelin/contracts/token/ERC20/ERC20.sol\":3650:3684  return _allowances[owner][spender] */\n      swap1\n      pop\n        /* \"@openzeppelin/contracts/token/ERC20/ERC20.sol\":3551:3691  function allowance(address owner, address spender) public view virtual returns (uint256) {... */\n      swap3\n      swap2\n      pop\n      pop\n      jump\t// out\n        /* \"@openzeppelin/contracts/access/Ownable.sol\":2543:2758  function transferOwnership(address newOwner) public virtual onlyOwner {... */\n    tag_94:\n        /* \"@openzeppelin/contracts/access/Ownable.sol\":1531:1544  _checkOwner() */\n      tag_192\n        /* \"@openzeppelin/contracts/access/Ownable.sol\":1531:1542  _checkOwner */\n      tag_124\n        /* \"@openzeppelin/contracts/access/Ownable.sol\":1531:1544  _checkOwner() */\n      jump\t// in\n    tag_192:\n        /* \"@openzeppelin/contracts/access/Ownable.sol\":2647:2648  0 */\n      0x00\n        /* \"@openzeppelin/contracts/access/Ownable.sol\":2627:2649  newOwner == address(0) */\n      0xffffffffffffffffffffffffffffffffffffffff\n      and\n        /* \"@openzeppelin/contracts/access/Ownable.sol\":2627:2635  newOwner */\n      dup2\n        /* \"@openzeppelin/contracts/access/Ownable.sol\":2627:2649  newOwner == address(0) */\n      0xffffffffffffffffffffffffffffffffffffffff\n      and\n      sub\n        /* \"@openzeppelin/contracts/access/Ownable.sol\":2623:2714  if (newOwner == address(0)) {... */\n      tag_194\n      jumpi\n        /* \"@openzeppelin/contracts/access/Ownable.sol\":2700:2701  0 */\n      0x00\n        /* \"@openzeppelin/contracts/access/Ownable.sol\":2672:2703  OwnableInvalidOwner(address(0)) */\n      mload(0x40)\n      0x1e4fbdf700000000000000000000000000000000000000000000000000000000\n      dup2\n      mstore\n      0x04\n      add\n      tag_195\n      swap2\n      swap1\n      tag_76\n      jump\t// in\n    tag_195:\n      mload(0x40)\n      dup1\n      swap2\n      sub\n      swap1\n      revert\n        /* \"@openzeppelin/contracts/access/Ownable.sol\":2623:2714  if (newOwner == address(0)) {... */\n    tag_194:\n        /* \"@openzeppelin/contracts/access/Ownable.sol\":2723:2751  _transferOwnership(newOwner) */\n      tag_196\n        /* \"@openzeppelin/contracts/access/Ownable.sol\":2742:2750  newOwner */\n      dup2\n        /* \"@openzeppelin/contracts/access/Ownable.sol\":2723:2741  _transferOwnership */\n      tag_136\n        /* \"@openzeppelin/contracts/access/Ownable.sol\":2723:2751  _transferOwnership(newOwner) */\n      jump\t// in\n    tag_196:\n        /* \"@openzeppelin/contracts/access/Ownable.sol\":2543:2758  function transferOwnership(address newOwner) public virtual onlyOwner {... */\n      pop\n      jump\t// out\n        /* \"@openzeppelin/contracts/utils/Context.sol\":656:752  function _msgSender() internal view virtual returns (address) {... */\n    tag_104:\n        /* \"@openzeppelin/contracts/utils/Context.sol\":709:716  address */\n      0x00\n        /* \"@openzeppelin/contracts/utils/Context.sol\":735:745  msg.sender */\n      caller\n        /* \"@openzeppelin/contracts/utils/Context.sol\":728:745  return msg.sender */\n      swap1\n      pop\n        /* \"@openzeppelin/contracts/utils/Context.sol\":656:752  function _msgSender() internal view virtual returns (address) {... */\n      swap1\n      jump\t// out\n        /* \"@openzeppelin/contracts/token/ERC20/ERC20.sol\":8726:8854  function _approve(address owner, address spender, uint256 value) internal {... */\n    tag_106:\n        /* \"@openzeppelin/contracts/token/ERC20/ERC20.sol\":8810:8847  _approve(owner, spender, value, true) */\n      tag_199\n        /* \"@openzeppelin/contracts/token/ERC20/ERC20.sol\":8819:8824  owner */\n      dup4\n        /* \"@openzeppelin/contracts/token/ERC20/ERC20.sol\":8826:8833  spender */\n      dup4\n        /* \"@openzeppelin/contracts/token/ERC20/ERC20.sol\":8835:8840  value */\n      dup4\n        /* \"@openzeppelin/contracts/token/ERC20/ERC20.sol\":8842:8846  true */\n      0x01\n        /* \"@openzeppelin/contracts/token/ERC20/ERC20.sol\":8810:8818  _approve */\n      tag_200\n        /* \"@openzeppelin/contracts/token/ERC20/ERC20.sol\":8810:8847  _approve(owner, spender, value, true) */\n      jump\t// in\n    tag_199:\n        /* \"@openzeppelin/contracts/token/ERC20/ERC20.sol\":8726:8854  function _approve(address owner, address spender, uint256 value) internal {... */\n      pop\n      pop\n      pop\n      jump\t// out\n        /* \"@openzeppelin/contracts/token/ERC20/ERC20.sol\":10415:10892  function _spendAllowance(address owner, address spender, uint256 value) internal virtual {... */\n    tag_118:\n        /* \"@openzeppelin/contracts/token/ERC20/ERC20.sol\":10514:10538  uint256 currentAllowance */\n      0x00\n        /* \"@openzeppelin/contracts/token/ERC20/ERC20.sol\":10541:10566  allowance(owner, spender) */\n      tag_202\n        /* \"@openzeppelin/contracts/token/ERC20/ERC20.sol\":10551:10556  owner */\n      dup5\n        /* \"@openzeppelin/contracts/token/ERC20/ERC20.sol\":10558:10565  spender */\n      dup5\n        /* \"@openzeppelin/contracts/token/ERC20/ERC20.sol\":10541:10550  allowance */\n      tag_90\n        /* \"@openzeppelin/contracts/token/ERC20/ERC20.sol\":10541:10566  allowance(owner, spender) */\n      jump\t// in\n    tag_202:\n        /* \"@openzeppelin/contracts/token/ERC20/ERC20.sol\":10514:10566  uint256 currentAllowance = allowance(owner, spender) */\n      swap1\n      pop\n        /* \"@openzeppelin/contracts/token/ERC20/ERC20.sol\":10600:10617  type(uint256).max */\n      0xffffffffffffffffffffffffffffffffffffffffffffffffffffffffffffffff\n        /* \"@openzeppelin/contracts/token/ERC20/ERC20.sol\":10580:10596  currentAllowance */\n      dup2\n        /* \"@openzeppelin/contracts/token/ERC20/ERC20.sol\":10580:10617  currentAllowance != type(uint256).max */\n      eq\n        /* \"@openzeppelin/contracts/token/ERC20/ERC20.sol\":10576:10886  if (currentAllowance != type(uint256).max) {... */\n      tag_203\n      jumpi\n        /* \"@openzeppelin/contracts/token/ERC20/ERC20.sol\":10656:10661  value */\n      dup2\n        /* \"@openzeppelin/contracts/token/ERC20/ERC20.sol\":10637:10653  currentAllowance */\n      dup2\n        /* \"@openzeppelin/contracts/token/ERC20/ERC20.sol\":10637:10661  currentAllowance < value */\n      lt\n        /* \"@openzeppelin/contracts/token/ERC20/ERC20.sol\":10633:10763  if (currentAllowance < value) {... */\n      iszero\n      tag_204\n      jumpi\n        /* \"@openzeppelin/contracts/token/ERC20/ERC20.sol\":10715:10722  spender */\n      dup3\n        /* \"@openzeppelin/contracts/token/ERC20/ERC20.sol\":10724:10740  currentAllowance */\n      dup2\n        /* \"@openzeppelin/contracts/token/ERC20/ERC20.sol\":10742:10747  value */\n      dup4\n        /* \"@openzeppelin/contracts/token/ERC20/ERC20.sol\":10688:10748  ERC20InsufficientAllowance(spender, currentAllowance, value) */\n      mload(0x40)\n      0xfb8f41b200000000000000000000000000000000000000000000000000000000\n      dup2\n      mstore\n      0x04\n      add\n      tag_205\n      swap4\n      swap3\n      swap2\n      swap1\n      tag_206\n      jump\t// in\n    tag_205:\n      mload(0x40)\n      dup1\n      swap2\n      sub\n      swap1\n      revert\n        /* \"@openzeppelin/contracts/token/ERC20/ERC20.sol\":10633:10763  if (currentAllowance < value) {... */\n    tag_204:\n        /* \"@openzeppelin/contracts/token/ERC20/ERC20.sol\":10804:10861  _approve(owner, spender, currentAllowance - value, false) */\n      tag_207\n        /* \"@openzeppelin/contracts/token/ERC20/ERC20.sol\":10813:10818  owner */\n      dup5\n        /* \"@openzeppelin/contracts/token/ERC20/ERC20.sol\":10820:10827  spender */\n      dup5\n        /* \"@openzeppelin/contracts/token/ERC20/ERC20.sol\":10848:10853  value */\n      dup5\n        /* \"@openzeppelin/contracts/token/ERC20/ERC20.sol\":10829:10845  currentAllowance */\n      dup5\n        /* \"@openzeppelin/contracts/token/ERC20/ERC20.sol\":10829:10853  currentAllowance - value */\n      sub\n        /* \"@openzeppelin/contracts/token/ERC20/ERC20.sol\":10855:10860  false */\n      0x00\n        /* \"@openzeppelin/contracts/token/ERC20/ERC20.sol\":10804:10812  _approve */\n      tag_200\n        /* \"@openzeppelin/contracts/token/ERC20/ERC20.sol\":10804:10861  _approve(owner, spender, currentAllowance - value, false) */\n      jump\t// in\n    tag_207:\n        /* \"@openzeppelin/contracts/token/ERC20/ERC20.sol\":10576:10886  if (currentAllowance != type(uint256).max) {... */\n    tag_203:\n        /* \"@openzeppelin/contracts/token/ERC20/ERC20.sol\":10504:10892  {... */\n      pop\n        /* \"@openzeppelin/contracts/token/ERC20/ERC20.sol\":10415:10892  function _spendAllowance(address owner, address spender, uint256 value) internal virtual {... */\n      pop\n      pop\n      pop\n      jump\t// out\n        /* \"@openzeppelin/contracts/token/ERC20/ERC20.sol\":5393:5693  function _transfer(address from, address to, uint256 value) internal {... */\n    tag_120:\n        /* \"@openzeppelin/contracts/token/ERC20/ERC20.sol\":5492:5493  0 */\n      0x00\n        /* \"@openzeppelin/contracts/token/ERC20/ERC20.sol\":5476:5494  from == address(0) */\n      0xffffffffffffffffffffffffffffffffffffffff\n      and\n        /* \"@openzeppelin/contracts/token/ERC20/ERC20.sol\":5476:5480  from */\n      dup4\n        /* \"@openzeppelin/contracts/token/ERC20/ERC20.sol\":5476:5494  from == address(0) */\n      0xffffffffffffffffffffffffffffffffffffffff\n      and\n      sub\n        /* \"@openzeppelin/contracts/token/ERC20/ERC20.sol\":5472:5558  if (from == address(0)) {... */\n      tag_209\n      jumpi\n        /* \"@openzeppelin/contracts/token/ERC20/ERC20.sol\":5544:5545  0 */\n      0x00\n        /* \"@openzeppelin/contracts/token/ERC20/ERC20.sol\":5517:5547  ERC20InvalidSender(address(0)) */\n      mload(0x40)\n      0x96c6fd1e00000000000000000000000000000000000000000000000000000000\n      dup2\n      mstore\n      0x04\n      add\n      tag_210\n      swap2\n      swap1\n      tag_76\n      jump\t// in\n    tag_210:\n      mload(0x40)\n      dup1\n      swap2\n      sub\n      swap1\n      revert\n        /* \"@openzeppelin/contracts/token/ERC20/ERC20.sol\":5472:5558  if (from == address(0)) {... */\n    tag_209:\n        /* \"@openzeppelin/contracts/token/ERC20/ERC20.sol\":5585:5586  0 */\n      0x00\n        /* \"@openzeppelin/contracts/token/ERC20/ERC20.sol\":5571:5587  to == address(0) */\n      0xffffffffffffffffffffffffffffffffffffffff\n      and\n        /* \"@openzeppelin/contracts/token/ERC20/ERC20.sol\":5571:5573  to */\n      dup3\n        /* \"@openzeppelin/contracts/token/ERC20/ERC20.sol\":5571:5587  to == address(0) */\n      0xffffffffffffffffffffffffffffffffffffffff\n      and\n      sub\n        /* \"@openzeppelin/contracts/token/ERC20/ERC20.sol\":5567:5653  if (to == address(0)) {... */\n      tag_211\n      jumpi\n        /* \"@openzeppelin/contracts/token/ERC20/ERC20.sol\":5639:5640  0 */\n      0x00\n        /* \"@openzeppelin/contracts/token/ERC20/ERC20.sol\":5610:5642  ERC20InvalidReceiver(address(0)) */\n      mload(0x40)\n      0xec442f0500000000000000000000000000000000000000000000000000000000\n      dup2\n      mstore\n      0x04\n      add\n      tag_212\n      swap2\n      swap1\n      tag_76\n      jump\t// in\n    tag_212:\n      mload(0x40)\n      dup1\n      swap2\n      sub\n      swap1\n      revert\n        /* \"@openzeppelin/contracts/token/ERC20/ERC20.sol\":5567:5653  if (to == address(0)) {... */\n    tag_211:\n        /* \"@openzeppelin/contracts/token/ERC20/ERC20.sol\":5662:5686  _update(from, to, value) */\n      tag_213\n        /* \"@openzeppelin/contracts/token/ERC20/ERC20.sol\":5670:5674  from */\n      dup4\n        /* \"@openzeppelin/contracts/token/ERC20/ERC20.sol\":5676:5678  to */\n      dup4\n        /* \"@openzeppelin/contracts/token/ERC20/ERC20.sol\":5680:5685  value */\n      dup4\n        /* \"@openzeppelin/contracts/token/ERC20/ERC20.sol\":5662:5669  _update */\n      tag_214\n        /* \"@openzeppelin/contracts/token/ERC20/ERC20.sol\":5662:5686  _update(from, to, value) */\n      jump\t// in\n    tag_213:\n        /* \"@openzeppelin/contracts/token/ERC20/ERC20.sol\":5393:5693  function _transfer(address from, address to, uint256 value) internal {... */\n      pop\n      pop\n      pop\n      jump\t// out\n        /* \"@openzeppelin/contracts/access/Ownable.sol\":1796:1958  function _checkOwner() internal view virtual {... */\n    tag_124:\n        /* \"@openzeppelin/contracts/access/Ownable.sol\":1866:1878  _msgSender() */\n      tag_216\n        /* \"@openzeppelin/contracts/access/Ownable.sol\":1866:1876  _msgSender */\n      tag_104\n        /* \"@openzeppelin/contracts/access/Ownable.sol\":1866:1878  _msgSender() */\n      jump\t// in\n    tag_216:\n        /* \"@openzeppelin/contracts/access/Ownable.sol\":1855:1878  owner() != _msgSender() */\n      0xffffffffffffffffffffffffffffffffffffffff\n      and\n        /* \"@openzeppelin/contracts/access/Ownable.sol\":1855:1862  owner() */\n      tag_217\n        /* \"@openzeppelin/contracts/access/Ownable.sol\":1855:1860  owner */\n      tag_74\n        /* \"@openzeppelin/contracts/access/Ownable.sol\":1855:1862  owner() */\n      jump\t// in\n    tag_217:\n        /* \"@openzeppelin/contracts/access/Ownable.sol\":1855:1878  owner() != _msgSender() */\n      0xffffffffffffffffffffffffffffffffffffffff\n      and\n      eq\n        /* \"@openzeppelin/contracts/access/Ownable.sol\":1851:1952  if (owner() != _msgSender()) {... */\n      tag_218\n      jumpi\n        /* \"@openzeppelin/contracts/access/Ownable.sol\":1928:1940  _msgSender() */\n      tag_219\n        /* \"@openzeppelin/contracts/access/Ownable.sol\":1928:1938  _msgSender */\n      tag_104\n        /* \"@openzeppelin/contracts/access/Ownable.sol\":1928:1940  _msgSender() */\n      jump\t// in\n    tag_219:\n        /* \"@openzeppelin/contracts/access/Ownable.sol\":1901:1941  OwnableUnauthorizedAccount(_msgSender()) */\n      mload(0x40)\n      0x118cdaa700000000000000000000000000000000000000000000000000000000\n      dup2\n      mstore\n      0x04\n      add\n      tag_220\n      swap2\n      swap1\n      tag_76\n      jump\t// in\n    tag_220:\n      mload(0x40)\n      dup1\n      swap2\n      sub\n      swap1\n      revert\n        /* \"@openzeppelin/contracts/access/Ownable.sol\":1851:1952  if (owner() != _msgSender()) {... */\n    tag_218:\n        /* \"@openzeppelin/contracts/access/Ownable.sol\":1796:1958  function _checkOwner() internal view virtual {... */\n      jump\t// out\n        /* \"@openzeppelin/contracts/token/ERC20/ERC20.sol\":7458:7666  function _mint(address account, uint256 value) internal {... */\n    tag_127:\n        /* \"@openzeppelin/contracts/token/ERC20/ERC20.sol\":7547:7548  0 */\n      0x00\n        /* \"@openzeppelin/contracts/token/ERC20/ERC20.sol\":7528:7549  account == address(0) */\n      0xffffffffffffffffffffffffffffffffffffffff\n      and\n        /* \"@openzeppelin/contracts/token/ERC20/ERC20.sol\":7528:7535  account */\n      dup3\n        /* \"@openzeppelin/contracts/token/ERC20/ERC20.sol\":7528:7549  account == address(0) */\n      0xffffffffffffffffffffffffffffffffffffffff\n      and\n      sub\n        /* \"@openzeppelin/contracts/token/ERC20/ERC20.sol\":7524:7615  if (account == address(0)) {... */\n      tag_222\n      jumpi\n        /* \"@openzeppelin/contracts/token/ERC20/ERC20.sol\":7601:7602  0 */\n      0x00\n        /* \"@openzeppelin/contracts/token/ERC20/ERC20.sol\":7572:7604  ERC20InvalidReceiver(address(0)) */\n      mload(0x40)\n      0xec442f0500000000000000000000000000000000000000000000000000000000\n      dup2\n      mstore\n      0x04\n      add\n      tag_223\n      swap2\n      swap1\n      tag_76\n      jump\t// in\n    tag_223:\n      mload(0x40)\n      dup1\n      swap2\n      sub\n      swap1\n      revert\n        /* \"@openzeppelin/contracts/token/ERC20/ERC20.sol\":7524:7615  if (account == address(0)) {... */\n    tag_222:\n        /* \"@openzeppelin/contracts/token/ERC20/ERC20.sol\":7624:7659  _update(address(0), account, value) */\n      tag_224\n        /* \"@openzeppelin/contracts/token/ERC20/ERC20.sol\":7640:7641  0 */\n      0x00\n        /* \"@openzeppelin/contracts/token/ERC20/ERC20.sol\":7644:7651  account */\n      dup4\n        /* \"@openzeppelin/contracts/token/ERC20/ERC20.sol\":7653:7658  value */\n      dup4\n        /* \"@openzeppelin/contracts/token/ERC20/ERC20.sol\":7624:7631  _update */\n      tag_214\n        /* \"@openzeppelin/contracts/token/ERC20/ERC20.sol\":7624:7659  _update(address(0), account, value) */\n      jump\t// in\n    tag_224:\n        /* \"@openzeppelin/contracts/token/ERC20/ERC20.sol\":7458:7666  function _mint(address account, uint256 value) internal {... */\n      pop\n      pop\n      jump\t// out\n        /* \"@openzeppelin/contracts/token/ERC20/ERC20.sol\":7984:8190  function _burn(address account, uint256 value) internal {... */\n    tag_130:\n        /* \"@openzeppelin/contracts/token/ERC20/ERC20.sol\":8073:8074  0 */\n      0x00\n        /* \"@openzeppelin/contracts/token/ERC20/ERC20.sol\":8054:8075  account == address(0) */\n      0xffffffffffffffffffffffffffffffffffffffff\n      and\n        /* \"@openzeppelin/contracts/token/ERC20/ERC20.sol\":8054:8061  account */\n      dup3\n        /* \"@openzeppelin/contracts/token/ERC20/ERC20.sol\":8054:8075  account == address(0) */\n      0xffffffffffffffffffffffffffffffffffffffff\n      and\n      sub\n        /* \"@openzeppelin/contracts/token/ERC20/ERC20.sol\":8050:8139  if (account == address(0)) {... */\n      tag_226\n      jumpi\n        /* \"@openzeppelin/contracts/token/ERC20/ERC20.sol\":8125:8126  0 */\n      0x00\n        /* \"@openzeppelin/contracts/token/ERC20/ERC20.sol\":8098:8128  ERC20InvalidSender(address(0)) */\n      mload(0x40)\n      0x96c6fd1e00000000000000000000000000000000000000000000000000000000\n      dup2\n      mstore\n      0x04\n      add\n      tag_227\n      swap2\n      swap1\n      tag_76\n      jump\t// in\n    tag_227:\n      mload(0x40)\n      dup1\n      swap2\n      sub\n      swap1\n      revert\n        /* \"@openzeppelin/contracts/token/ERC20/ERC20.sol\":8050:8139  if (account == address(0)) {... */\n    tag_226:\n        /* \"@openzeppelin/contracts/token/ERC20/ERC20.sol\":8148:8183  _update(account, address(0), value) */\n      tag_228\n        /* \"@openzeppelin/contracts/token/ERC20/ERC20.sol\":8156:8163  account */\n      dup3\n        /* \"@openzeppelin/contracts/token/ERC20/ERC20.sol\":8173:8174  0 */\n      0x00\n        /* \"@openzeppelin/contracts/token/ERC20/ERC20.sol\":8177:8182  value */\n      dup4\n        /* \"@openzeppelin/contracts/token/ERC20/ERC20.sol\":8148:8155  _update */\n      tag_214\n        /* \"@openzeppelin/contracts/token/ERC20/ERC20.sol\":8148:8183  _update(account, address(0), value) */\n      jump\t// in\n    tag_228:\n        /* \"@openzeppelin/contracts/token/ERC20/ERC20.sol\":7984:8190  function _burn(address account, uint256 value) internal {... */\n      pop\n      pop\n      jump\t// out\n        /* \"@openzeppelin/contracts/access/Ownable.sol\":2912:3099  function _transferOwnership(address newOwner) internal virtual {... */\n    tag_136:\n        /* \"@openzeppelin/contracts/access/Ownable.sol\":2985:3001  address oldOwner */\n      0x00\n        /* \"@openzeppelin/contracts/access/Ownable.sol\":3004:3010  _owner */\n      0x05\n      0x00\n      swap1\n      sload\n      swap1\n      0x0100\n      exp\n      swap1\n      div\n      0xffffffffffffffffffffffffffffffffffffffff\n      and\n        /* \"@openzeppelin/contracts/access/Ownable.sol\":2985:3010  address oldOwner = _owner */\n      swap1\n      pop\n        /* \"@openzeppelin/contracts/access/Ownable.sol\":3029:3037  newOwner */\n      dup2\n        /* \"@openzeppelin/contracts/access/Ownable.sol\":3020:3026  _owner */\n      0x05\n      0x00\n        /* \"@openzeppelin/contracts/access/Ownable.sol\":3020:3037  _owner = newOwner */\n      0x0100\n      exp\n      dup2\n      sload\n      dup2\n      0xffffffffffffffffffffffffffffffffffffffff\n      mul\n      not\n      and\n      swap1\n      dup4\n      0xffffffffffffffffffffffffffffffffffffffff\n      and\n      mul\n      or\n      swap1\n      sstore\n      pop\n        /* \"@openzeppelin/contracts/access/Ownable.sol\":3083:3091  newOwner */\n      dup2\n        /* \"@openzeppelin/contracts/access/Ownable.sol\":3052:3092  OwnershipTransferred(oldOwner, newOwner) */\n      0xffffffffffffffffffffffffffffffffffffffff\n      and\n        /* \"@openzeppelin/contracts/access/Ownable.sol\":3073:3081  oldOwner */\n      dup2\n        /* \"@openzeppelin/contracts/access/Ownable.sol\":3052:3092  OwnershipTransferred(oldOwner, newOwner) */\n      0xffffffffffffffffffffffffffffffffffffffff\n      and\n      0x8be0079c531659141344cd1fd0a4f28419497f9722a3daafe3b4186f6b6457e0\n      mload(0x40)\n      mload(0x40)\n      dup1\n      swap2\n      sub\n      swap1\n      log3\n        /* \"@openzeppelin/contracts/access/Ownable.sol\":2975:3099  {... */\n      pop\n        /* \"@openzeppelin/contracts/access/Ownable.sol\":2912:3099  function _transferOwnership(address newOwner) internal virtual {... */\n      pop\n      jump\t// out\n        /* \"@openzeppelin/contracts/token/ERC20/ERC20.sol\":9701:10133  function _approve(address owner, address spender, uint256 value, bool emitEvent) internal virtual {... */\n    tag_200:\n        /* \"@openzeppelin/contracts/token/ERC20/ERC20.sol\":9830:9831  0 */\n      0x00\n        /* \"@openzeppelin/contracts/token/ERC20/ERC20.sol\":9813:9832  owner == address(0) */\n      0xffffffffffffffffffffffffffffffffffffffff\n      and\n        /* \"@openzeppelin/contracts/token/ERC20/ERC20.sol\":9813:9818  owner */\n      dup5\n        /* \"@openzeppelin/contracts/token/ERC20/ERC20.sol\":9813:9832  owner == address(0) */\n      0xffffffffffffffffffffffffffffffffffffffff\n      and\n      sub\n        /* \"@openzeppelin/contracts/token/ERC20/ERC20.sol\":9809:9898  if (owner == address(0)) {... */\n      tag_231\n      jumpi\n        /* \"@openzeppelin/contracts/token/ERC20/ERC20.sol\":9884:9885  0 */\n      0x00\n        /* \"@openzeppelin/contracts/token/ERC20/ERC20.sol\":9855:9887  ERC20InvalidApprover(address(0)) */\n      mload(0x40)\n      0xe602df0500000000000000000000000000000000000000000000000000000000\n      dup2\n      mstore\n      0x04\n      add\n      tag_232\n      swap2\n      swap1\n      tag_76\n      jump\t// in\n    tag_232:\n      mload(0x40)\n      dup1\n      swap2\n      sub\n      swap1\n      revert\n        /* \"@openzeppelin/contracts/token/ERC20/ERC20.sol\":9809:9898  if (owner == address(0)) {... */\n    tag_231:\n        /* \"@openzeppelin/contracts/token/ERC20/ERC20.sol\":9930:9931  0 */\n      0x00\n        /* \"@openzeppelin/contracts/token/ERC20/ERC20.sol\":9911:9932  spender == address(0) */\n      0xffffffffffffffffffffffffffffffffffffffff\n      and\n        /* \"@openzeppelin/contracts/token/ERC20/ERC20.sol\":9911:9918  spender */\n      dup4\n        /* \"@openzeppelin/contracts/token/ERC20/ERC20.sol\":9911:9932  spender == address(0) */\n      0xffffffffffffffffffffffffffffffffffffffff\n      and\n      sub\n        /* \"@openzeppelin/contracts/token/ERC20/ERC20.sol\":9907:9997  if (spender == address(0)) {... */\n      tag_233\n      jumpi\n        /* \"@openzeppelin/contracts/token/ERC20/ERC20.sol\":9983:9984  0 */\n      0x00\n        /* \"@openzeppelin/contracts/token/ERC20/ERC20.sol\":9955:9986  ERC20InvalidSpender(address(0)) */\n      mload(0x40)\n      0x94280d6200000000000000000000000000000000000000000000000000000000\n      dup2\n      mstore\n      0x04\n      add\n      tag_234\n      swap2\n      swap1\n      tag_76\n      jump\t// in\n    tag_234:\n      mload(0x40)\n      dup1\n      swap2\n      sub\n      swap1\n      revert\n        /* \"@openzeppelin/contracts/token/ERC20/ERC20.sol\":9907:9997  if (spender == address(0)) {... */\n    tag_233:\n        /* \"@openzeppelin/contracts/token/ERC20/ERC20.sol\":10036:10041  value */\n      dup2\n        /* \"@openzeppelin/contracts/token/ERC20/ERC20.sol\":10006:10017  _allowances */\n      0x01\n        /* \"@openzeppelin/contracts/token/ERC20/ERC20.sol\":10006:10024  _allowances[owner] */\n      0x00\n        /* \"@openzeppelin/contracts/token/ERC20/ERC20.sol\":10018:10023  owner */\n      dup7\n        /* \"@openzeppelin/contracts/token/ERC20/ERC20.sol\":10006:10024  _allowances[owner] */\n      0xffffffffffffffffffffffffffffffffffffffff\n      and\n      0xffffffffffffffffffffffffffffffffffffffff\n      and\n      dup2\n      mstore\n      0x20\n      add\n      swap1\n      dup2\n      mstore\n      0x20\n      add\n      0x00\n      keccak256\n        /* \"@openzeppelin/contracts/token/ERC20/ERC20.sol\":10006:10033  _allowances[owner][spender] */\n      0x00\n        /* \"@openzeppelin/contracts/token/ERC20/ERC20.sol\":10025:10032  spender */\n      dup6\n        /* \"@openzeppelin/contracts/token/ERC20/ERC20.sol\":10006:10033  _allowances[owner][spender] */\n      0xffffffffffffffffffffffffffffffffffffffff\n      and\n      0xffffffffffffffffffffffffffffffffffffffff\n      and\n      dup2\n      mstore\n      0x20\n      add\n      swap1\n      dup2\n      mstore\n      0x20\n      add\n      0x00\n      keccak256\n        /* \"@openzeppelin/contracts/token/ERC20/ERC20.sol\":10006:10041  _allowances[owner][spender] = value */\n      dup2\n      swap1\n      sstore\n      pop\n        /* \"@openzeppelin/contracts/token/ERC20/ERC20.sol\":10055:10064  emitEvent */\n      dup1\n        /* \"@openzeppelin/contracts/token/ERC20/ERC20.sol\":10051:10127  if (emitEvent) {... */\n      iszero\n      tag_235\n      jumpi\n        /* \"@openzeppelin/contracts/token/ERC20/ERC20.sol\":10101:10108  spender */\n      dup3\n        /* \"@openzeppelin/contracts/token/ERC20/ERC20.sol\":10085:10116  Approval(owner, spender, value) */\n      0xffffffffffffffffffffffffffffffffffffffff\n      and\n        /* \"@openzeppelin/contracts/token/ERC20/ERC20.sol\":10094:10099  owner */\n      dup5\n        /* \"@openzeppelin/contracts/token/ERC20/ERC20.sol\":10085:10116  Approval(owner, spender, value) */\n      0xffffffffffffffffffffffffffffffffffffffff\n      and\n      0x8c5be1e5ebec7d5bd14f71427d1e84f3dd0314c0f7b2291e5b200ac8c7c3b925\n        /* \"@openzeppelin/contracts/token/ERC20/ERC20.sol\":10110:10115  value */\n      dup5\n        /* \"@openzeppelin/contracts/token/ERC20/ERC20.sol\":10085:10116  Approval(owner, spender, value) */\n      mload(0x40)\n      tag_236\n      swap2\n      swap1\n      tag_43\n      jump\t// in\n    tag_236:\n      mload(0x40)\n      dup1\n      swap2\n      sub\n      swap1\n      log3\n        /* \"@openzeppelin/contracts/token/ERC20/ERC20.sol\":10051:10127  if (emitEvent) {... */\n    tag_235:\n        /* \"@openzeppelin/contracts/token/ERC20/ERC20.sol\":9701:10133  function _approve(address owner, address spender, uint256 value, bool emitEvent) internal virtual {... */\n      pop\n      pop\n      pop\n      pop\n      jump\t// out\n        /* \"@openzeppelin/contracts/token/ERC20/ERC20.sol\":6008:7115  function _update(address from, address to, uint256 value) internal virtual {... */\n    tag_214:\n        /* \"@openzeppelin/contracts/token/ERC20/ERC20.sol\":6113:6114  0 */\n      0x00\n        /* \"@openzeppelin/contracts/token/ERC20/ERC20.sol\":6097:6115  from == address(0) */\n      0xffffffffffffffffffffffffffffffffffffffff\n      and\n        /* \"@openzeppelin/contracts/token/ERC20/ERC20.sol\":6097:6101  from */\n      dup4\n        /* \"@openzeppelin/contracts/token/ERC20/ERC20.sol\":6097:6115  from == address(0) */\n      0xffffffffffffffffffffffffffffffffffffffff\n      and\n      sub\n        /* \"@openzeppelin/contracts/token/ERC20/ERC20.sol\":6093:6633  if (from == address(0)) {... */\n      tag_238\n      jumpi\n        /* \"@openzeppelin/contracts/token/ERC20/ERC20.sol\":6249:6254  value */\n      dup1\n        /* \"@openzeppelin/contracts/token/ERC20/ERC20.sol\":6233:6245  _totalSupply */\n      0x02\n      0x00\n        /* \"@openzeppelin/contracts/token/ERC20/ERC20.sol\":6233:6254  _totalSupply += value */\n      dup3\n      dup3\n      sload\n      tag_239\n      swap2\n      swap1\n      tag_240\n      jump\t// in\n    tag_239:\n      swap3\n      pop\n      pop\n      dup2\n      swap1\n      sstore\n      pop\n        /* \"@openzeppelin/contracts/token/ERC20/ERC20.sol\":6093:6633  if (from == address(0)) {... */\n      jump(tag_241)\n    tag_238:\n        /* \"@openzeppelin/contracts/token/ERC20/ERC20.sol\":6285:6304  uint256 fromBalance */\n      0x00\n        /* \"@openzeppelin/contracts/token/ERC20/ERC20.sol\":6307:6316  _balances */\n      dup1\n        /* \"@openzeppelin/contracts/token/ERC20/ERC20.sol\":6307:6322  _balances[from] */\n      0x00\n        /* \"@openzeppelin/contracts/token/ERC20/ERC20.sol\":6317:6321  from */\n      dup6\n        /* \"@openzeppelin/contracts/token/ERC20/ERC20.sol\":6307:6322  _balances[from] */\n      0xffffffffffffffffffffffffffffffffffffffff\n      and\n      0xffffffffffffffffffffffffffffffffffffffff\n      and\n      dup2\n      mstore\n      0x20\n      add\n      swap1\n      dup2\n      mstore\n      0x20\n      add\n      0x00\n      keccak256\n      sload\n        /* \"@openzeppelin/contracts/token/ERC20/ERC20.sol\":6285:6322  uint256 fromBalance = _balances[from] */\n      swap1\n      pop\n        /* \"@openzeppelin/contracts/token/ERC20/ERC20.sol\":6354:6359  value */\n      dup2\n        /* \"@openzeppelin/contracts/token/ERC20/ERC20.sol\":6340:6351  fromBalance */\n      dup2\n        /* \"@openzeppelin/contracts/token/ERC20/ERC20.sol\":6340:6359  fromBalance < value */\n      lt\n        /* \"@openzeppelin/contracts/token/ERC20/ERC20.sol\":6336:6451  if (fromBalance < value) {... */\n      iszero\n      tag_242\n      jumpi\n        /* \"@openzeppelin/contracts/token/ERC20/ERC20.sol\":6411:6415  from */\n      dup4\n        /* \"@openzeppelin/contracts/token/ERC20/ERC20.sol\":6417:6428  fromBalance */\n      dup2\n        /* \"@openzeppelin/contracts/token/ERC20/ERC20.sol\":6430:6435  value */\n      dup4\n        /* \"@openzeppelin/contracts/token/ERC20/ERC20.sol\":6386:6436  ERC20InsufficientBalance(from, fromBalance, value) */\n      mload(0x40)\n      0xe450d38c00000000000000000000000000000000000000000000000000000000\n      dup2\n      mstore\n      0x04\n      add\n      tag_243\n      swap4\n      swap3\n      swap2\n      swap1\n      tag_206\n      jump\t// in\n    tag_243:\n      mload(0x40)\n      dup1\n      swap2\n      sub\n      swap1\n      revert\n        /* \"@openzeppelin/contracts/token/ERC20/ERC20.sol\":6336:6451  if (fromBalance < value) {... */\n    tag_242:\n        /* \"@openzeppelin/contracts/token/ERC20/ERC20.sol\":6603:6608  value */\n      dup2\n        /* \"@openzeppelin/contracts/token/ERC20/ERC20.sol\":6589:6600  fromBalance */\n      dup2\n        /* \"@openzeppelin/contracts/token/ERC20/ERC20.sol\":6589:6608  fromBalance - value */\n      sub\n        /* \"@openzeppelin/contracts/token/ERC20/ERC20.sol\":6571:6580  _balances */\n      0x00\n        /* \"@openzeppelin/contracts/token/ERC20/ERC20.sol\":6571:6586  _balances[from] */\n      dup1\n        /* \"@openzeppelin/contracts/token/ERC20/ERC20.sol\":6581:6585  from */\n      dup7\n        /* \"@openzeppelin/contracts/token/ERC20/ERC20.sol\":6571:6586  _balances[from] */\n      0xffffffffffffffffffffffffffffffffffffffff\n      and\n      0xffffffffffffffffffffffffffffffffffffffff\n      and\n      dup2\n      mstore\n      0x20\n      add\n      swap1\n      dup2\n      mstore\n      0x20\n      add\n      0x00\n      keccak256\n        /* \"@openzeppelin/contracts/token/ERC20/ERC20.sol\":6571:6608  _balances[from] = fromBalance - value */\n      dup2\n      swap1\n      sstore\n      pop\n        /* \"@openzeppelin/contracts/token/ERC20/ERC20.sol\":6271:6633  {... */\n      pop\n        /* \"@openzeppelin/contracts/token/ERC20/ERC20.sol\":6093:6633  if (from == address(0)) {... */\n    tag_241:\n        /* \"@openzeppelin/contracts/token/ERC20/ERC20.sol\":6661:6662  0 */\n      0x00\n        /* \"@openzeppelin/contracts/token/ERC20/ERC20.sol\":6647:6663  to == address(0) */\n      0xffffffffffffffffffffffffffffffffffffffff\n      and\n        /* \"@openzeppelin/contracts/token/ERC20/ERC20.sol\":6647:6649  to */\n      dup3\n        /* \"@openzeppelin/contracts/token/ERC20/ERC20.sol\":6647:6663  to == address(0) */\n      0xffffffffffffffffffffffffffffffffffffffff\n      and\n      sub\n        /* \"@openzeppelin/contracts/token/ERC20/ERC20.sol\":6643:7068  if (to == address(0)) {... */\n      tag_244\n      jumpi\n        /* \"@openzeppelin/contracts/token/ERC20/ERC20.sol\":6826:6831  value */\n      dup1\n        /* \"@openzeppelin/contracts/token/ERC20/ERC20.sol\":6810:6822  _totalSupply */\n      0x02\n      0x00\n        /* \"@openzeppelin/contracts/token/ERC20/ERC20.sol\":6810:6831  _totalSupply -= value */\n      dup3\n      dup3\n      sload\n      sub\n      swap3\n      pop\n      pop\n      dup2\n      swap1\n      sstore\n      pop\n        /* \"@openzeppelin/contracts/token/ERC20/ERC20.sol\":6643:7068  if (to == address(0)) {... */\n      jump(tag_245)\n    tag_244:\n        /* \"@openzeppelin/contracts/token/ERC20/ERC20.sol\":7038:7043  value */\n      dup1\n        /* \"@openzeppelin/contracts/token/ERC20/ERC20.sol\":7021:7030  _balances */\n      0x00\n        /* \"@openzeppelin/contracts/token/ERC20/ERC20.sol\":7021:7034  _balances[to] */\n      dup1\n        /* \"@openzeppelin/contracts/token/ERC20/ERC20.sol\":7031:7033  to */\n      dup5\n        /* \"@openzeppelin/contracts/token/ERC20/ERC20.sol\":7021:7034  _balances[to] */\n      0xffffffffffffffffffffffffffffffffffffffff\n      and\n      0xffffffffffffffffffffffffffffffffffffffff\n      and\n      dup2\n      mstore\n      0x20\n      add\n      swap1\n      dup2\n      mstore\n      0x20\n      add\n      0x00\n      keccak256\n      0x00\n        /* \"@openzeppelin/contracts/token/ERC20/ERC20.sol\":7021:7043  _balances[to] += value */\n      dup3\n      dup3\n      sload\n      add\n      swap3\n      pop\n      pop\n      dup2\n      swap1\n      sstore\n      pop\n        /* \"@openzeppelin/contracts/token/ERC20/ERC20.sol\":6643:7068  if (to == address(0)) {... */\n    tag_245:\n        /* \"@openzeppelin/contracts/token/ERC20/ERC20.sol\":7098:7100  to */\n      dup2\n        /* \"@openzeppelin/contracts/token/ERC20/ERC20.sol\":7083:7108  Transfer(from, to, value) */\n      0xffffffffffffffffffffffffffffffffffffffff\n      and\n        /* \"@openzeppelin/contracts/token/ERC20/ERC20.sol\":7092:7096  from */\n      dup4\n        /* \"@openzeppelin/contracts/token/ERC20/ERC20.sol\":7083:7108  Transfer(from, to, value) */\n      0xffffffffffffffffffffffffffffffffffffffff\n      and\n      0xddf252ad1be2c89b69c2b068fc378daa952ba7f163c4a11628f55a4df523b3ef\n        /* \"@openzeppelin/contracts/token/ERC20/ERC20.sol\":7102:7107  value */\n      dup4\n        /* \"@openzeppelin/contracts/token/ERC20/ERC20.sol\":7083:7108  Transfer(from, to, value) */\n      mload(0x40)\n      tag_246\n      swap2\n      swap1\n      tag_43\n      jump\t// in\n    tag_246:\n      mload(0x40)\n      dup1\n      swap2\n      sub\n      swap1\n      log3\n        /* \"@openzeppelin/contracts/token/ERC20/ERC20.sol\":6008:7115  function _update(address from, address to, uint256 value) internal virtual {... */\n      pop\n      pop\n      pop\n      jump\t// out\n        /* \"#utility.yul\":7:106   */\n    tag_247:\n        /* \"#utility.yul\":59:65   */\n      0x00\n        /* \"#utility.yul\":93:98   */\n      dup2\n        /* \"#utility.yul\":87:99   */\n      mload\n        /* \"#utility.yul\":77:99   */\n      swap1\n      pop\n        /* \"#utility.yul\":7:106   */\n      swap2\n      swap1\n      pop\n      jump\t// out\n        /* \"#utility.yul\":112:281   */\n    tag_248:\n        /* \"#utility.yul\":196:207   */\n      0x00\n        /* \"#utility.yul\":230:236   */\n      dup3\n        /* \"#utility.yul\":225:228   */\n      dup3\n        /* \"#utility.yul\":218:237   */\n      mstore\n        /* \"#utility.yul\":270:274   */\n      0x20\n        /* \"#utility.yul\":265:268   */\n      dup3\n        /* \"#utility.yul\":261:275   */\n      add\n        /* \"#utility.yul\":246:275   */\n      swap1\n      pop\n        /* \"#utility.yul\":112:281   */\n      swap3\n      swap2\n      pop\n      pop\n      jump\t// out\n        /* \"#utility.yul\":287:426   */\n    tag_249:\n        /* \"#utility.yul\":376:382   */\n      dup3\n        /* \"#utility.yul\":371:374   */\n      dup2\n        /* \"#utility.yul\":366:369   */\n      dup4\n        /* \"#utility.yul\":360:383   */\n      mcopy\n        /* \"#utility.yul\":417:418   */\n      0x00\n        /* \"#utility.yul\":408:414   */\n      dup4\n        /* \"#utility.yul\":403:406   */\n      dup4\n        /* \"#utility.yul\":399:415   */\n      add\n        /* \"#utility.yul\":392:419   */\n      mstore\n        /* \"#utility.yul\":287:426   */\n      pop\n      pop\n      pop\n      jump\t// out\n        /* \"#utility.yul\":432:534   */\n    tag_250:\n        /* \"#utility.yul\":473:479   */\n      0x00\n        /* \"#utility.yul\":524:526   */\n      0x1f\n        /* \"#utility.yul\":520:527   */\n      not\n        /* \"#utility.yul\":515:517   */\n      0x1f\n        /* \"#utility.yul\":508:513   */\n      dup4\n        /* \"#utility.yul\":504:518   */\n      add\n        /* \"#utility.yul\":500:528   */\n      and\n        /* \"#utility.yul\":490:528   */\n      swap1\n      pop\n        /* \"#utility.yul\":432:534   */\n      swap2\n      swap1\n      pop\n      jump\t// out\n        /* \"#utility.yul\":540:917   */\n    tag_251:\n        /* \"#utility.yul\":628:631   */\n      0x00\n        /* \"#utility.yul\":656:695   */\n      tag_306\n        /* \"#utility.yul\":689:694   */\n      dup3\n        /* \"#utility.yul\":656:695   */\n      tag_247\n      jump\t// in\n    tag_306:\n        /* \"#utility.yul\":711:782   */\n      tag_307\n        /* \"#utility.yul\":775:781   */\n      dup2\n        /* \"#utility.yul\":770:773   */\n      dup6\n        /* \"#utility.yul\":711:782   */\n      tag_248\n      jump\t// in\n    tag_307:\n        /* \"#utility.yul\":704:782   */\n      swap4\n      pop\n        /* \"#utility.yul\":791:856   */\n      tag_308\n        /* \"#utility.yul\":849:855   */\n      dup2\n        /* \"#utility.yul\":844:847   */\n      dup6\n        /* \"#utility.yul\":837:841   */\n      0x20\n        /* \"#utility.yul\":830:835   */\n      dup7\n        /* \"#utility.yul\":826:842   */\n      add\n        /* \"#utility.yul\":791:856   */\n      tag_249\n      jump\t// in\n    tag_308:\n        /* \"#utility.yul\":881:910   */\n      tag_309\n        /* \"#utility.yul\":903:909   */\n      dup2\n        /* \"#utility.yul\":881:910   */\n      tag_250\n      jump\t// in\n    tag_309:\n        /* \"#utility.yul\":876:879   */\n      dup5\n        /* \"#utility.yul\":872:911   */\n      add\n        /* \"#utility.yul\":865:911   */\n      swap2\n      pop\n        /* \"#utility.yul\":632:917   */\n      pop\n        /* \"#utility.yul\":540:917   */\n      swap3\n      swap2\n      pop\n      pop\n      jump\t// out\n        /* \"#utility.yul\":923:1236   */\n    tag_27:\n        /* \"#utility.yul\":1036:1040   */\n      0x00\n        /* \"#utility.yul\":1074:1076   */\n      0x20\n        /* \"#utility.yul\":1063:1072   */\n      dup3\n        /* \"#utility.yul\":1059:1077   */\n      add\n        /* \"#utility.yul\":1051:1077   */\n      swap1\n      pop\n        /* \"#utility.yul\":1123:1132   */\n      dup2\n        /* \"#utility.yul\":1117:1121   */\n      dup2\n        /* \"#utility.yul\":1113:1133   */\n      sub\n        /* \"#utility.yul\":1109:1110   */\n      0x00\n        /* \"#utility.yul\":1098:1107   */\n      dup4\n        /* \"#utility.yul\":1094:1111   */\n      add\n        /* \"#utility.yul\":1087:1134   */\n      mstore\n        /* \"#utility.yul\":1151:1229   */\n      tag_311\n        /* \"#utility.yul\":1224:1228   */\n      dup2\n        /* \"#utility.yul\":1215:1221   */\n      dup5\n        /* \"#utility.yul\":1151:1229   */\n      tag_251\n      jump\t// in\n    tag_311:\n        /* \"#utility.yul\":1143:1229   */\n      swap1\n      pop\n        /* \"#utility.yul\":923:1236   */\n      swap3\n      swap2\n      pop\n      pop\n      jump\t// out\n        /* \"#utility.yul\":1323:1440   */\n    tag_253:\n        /* \"#utility.yul\":1432:1433   */\n      0x00\n        /* \"#utility.yul\":1429:1430   */\n      dup1\n        /* \"#utility.yul\":1422:1434   */\n      revert\n        /* \"#utility.yul\":1569:1695   */\n    tag_255:\n        /* \"#utility.yul\":1606:1613   */\n      0x00\n        /* \"#utility.yul\":1646:1688   */\n      0xffffffffffffffffffffffffffffffffffffffff\n        /* \"#utility.yul\":1639:1644   */\n      dup3\n        /* \"#utility.yul\":1635:1689   */\n      and\n        /* \"#utility.yul\":1624:1689   */\n      swap1\n      pop\n        /* \"#utility.yul\":1569:1695   */\n      swap2\n      swap1\n      pop\n      jump\t// out\n        /* \"#utility.yul\":1701:1797   */\n    tag_256:\n        /* \"#utility.yul\":1738:1745   */\n      0x00\n        /* \"#utility.yul\":1767:1791   */\n      tag_317\n        /* \"#utility.yul\":1785:1790   */\n      dup3\n        /* \"#utility.yul\":1767:1791   */\n      tag_255\n      jump\t// in\n    tag_317:\n        /* \"#utility.yul\":1756:1791   */\n      swap1\n      pop\n        /* \"#utility.yul\":1701:1797   */\n      swap2\n      swap1\n      pop\n      jump\t// out\n        /* \"#utility.yul\":1803:1925   */\n    tag_257:\n        /* \"#utility.yul\":1876:1900   */\n      tag_319\n        /* \"#utility.yul\":1894:1899   */\n      dup2\n        /* \"#utility.yul\":1876:1900   */\n      tag_256\n      jump\t// in\n    tag_319:\n        /* \"#utility.yul\":1869:1874   */\n      dup2\n        /* \"#utility.yul\":1866:1901   */\n      eq\n        /* \"#utility.yul\":1856:1919   */\n      tag_320\n      jumpi\n        /* \"#utility.yul\":1915:1916   */\n      0x00\n        /* \"#utility.yul\":1912:1913   */\n      dup1\n        /* \"#utility.yul\":1905:1917   */\n      revert\n        /* \"#utility.yul\":1856:1919   */\n    tag_320:\n        /* \"#utility.yul\":1803:1925   */\n      pop\n      jump\t// out\n        /* \"#utility.yul\":1931:2070   */\n    tag_258:\n        /* \"#utility.yul\":1977:1982   */\n      0x00\n        /* \"#utility.yul\":2015:2021   */\n      dup2\n        /* \"#utility.yul\":2002:2022   */\n      calldataload\n        /* \"#utility.yul\":1993:2022   */\n      swap1\n      pop\n        /* \"#utility.yul\":2031:2064   */\n      tag_322\n        /* \"#utility.yul\":2058:2063   */\n      dup2\n        /* \"#utility.yul\":2031:2064   */\n      tag_257\n      jump\t// in\n    tag_322:\n        /* \"#utility.yul\":1931:2070   */\n      swap3\n      swap2\n      pop\n      pop\n      jump\t// out\n        /* \"#utility.yul\":2076:2153   */\n    tag_259:\n        /* \"#utility.yul\":2113:2120   */\n      0x00\n        /* \"#utility.yul\":2142:2147   */\n      dup2\n        /* \"#utility.yul\":2131:2147   */\n      swap1\n      pop\n        /* \"#utility.yul\":2076:2153   */\n      swap2\n      swap1\n      pop\n      jump\t// out\n        /* \"#utility.yul\":2159:2281   */\n    tag_260:\n        /* \"#utility.yul\":2232:2256   */\n      tag_325\n        /* \"#utility.yul\":2250:2255   */\n      dup2\n        /* \"#utility.yul\":2232:2256   */\n      tag_259\n      jump\t// in\n    tag_325:\n        /* \"#utility.yul\":2225:2230   */\n      dup2\n        /* \"#utility.yul\":2222:2257   */\n      eq\n        /* \"#utility.yul\":2212:2275   */\n      tag_326\n      jumpi\n        /* \"#utility.yul\":2271:2272   */\n      0x00\n        /* \"#utility.yul\":2268:2269   */\n      dup1\n        /* \"#utility.yul\":2261:2273   */\n      revert\n        /* \"#utility.yul\":2212:2275   */\n    tag_326:\n        /* \"#utility.yul\":2159:2281   */\n      pop\n      jump\t// out\n        /* \"#utility.yul\":2287:2426   */\n    tag_261:\n        /* \"#utility.yul\":2333:2338   */\n      0x00\n        /* \"#utility.yul\":2371:2377   */\n      dup2\n        /* \"#utility.yul\":2358:2378   */\n      calldataload\n        /* \"#utility.yul\":2349:2378   */\n      swap1\n      pop\n        /* \"#utility.yul\":2387:2420   */\n      tag_328\n        /* \"#utility.yul\":2414:2419   */\n      dup2\n        /* \"#utility.yul\":2387:2420   */\n      tag_260\n      jump\t// in\n    tag_328:\n        /* \"#utility.yul\":2287:2426   */\n      swap3\n      swap2\n      pop\n      pop\n      jump\t// out\n        /* \"#utility.yul\":2432:2906   */\n    tag_30:\n        /* \"#utility.yul\":2500:2506   */\n      0x00\n        /* \"#utility.yul\":2508:2514   */\n      dup1\n        /* \"#utility.yul\":2557:2559   */\n      0x40\n        /* \"#utility.yul\":2545:2554   */\n      dup4\n        /* \"#utility.yul\":2536:2543   */\n      dup6\n        /* \"#utility.yul\":2532:2555   */\n      sub\n        /* \"#utility.yul\":2528:2560   */\n      slt\n        /* \"#utility.yul\":2525:2644   */\n      iszero\n      tag_330\n      jumpi\n        /* \"#utility.yul\":2563:2642   */\n      tag_331\n      tag_253\n      jump\t// in\n    tag_331:\n        /* \"#utility.yul\":2525:2644   */\n    tag_330:\n        /* \"#utility.yul\":2683:2684   */\n      0x00\n        /* \"#utility.yul\":2708:2761   */\n      tag_332\n        /* \"#utility.yul\":2753:2760   */\n      dup6\n        /* \"#utility.yul\":2744:2750   */\n      dup3\n        /* \"#utility.yul\":2733:2742   */\n      dup7\n        /* \"#utility.yul\":2729:2751   */\n      add\n        /* \"#utility.yul\":2708:2761   */\n      tag_258\n      jump\t// in\n    tag_332:\n        /* \"#utility.yul\":2698:2761   */\n      swap3\n      pop\n        /* \"#utility.yul\":2654:2771   */\n      pop\n        /* \"#utility.yul\":2810:2812   */\n      0x20\n        /* \"#utility.yul\":2836:2889   */\n      tag_333\n        /* \"#utility.yul\":2881:2888   */\n      dup6\n        /* \"#utility.yul\":2872:2878   */\n      dup3\n        /* \"#utility.yul\":2861:2870   */\n      dup7\n        /* \"#utility.yul\":2857:2879   */\n      add\n        /* \"#utility.yul\":2836:2889   */\n      tag_261\n      jump\t// in\n    tag_333:\n        /* \"#utility.yul\":2826:2889   */\n      swap2\n      pop\n        /* \"#utility.yul\":2781:2899   */\n      pop\n        /* \"#utility.yul\":2432:2906   */\n      swap3\n      pop\n      swap3\n      swap1\n      pop\n      jump\t// out\n        /* \"#utility.yul\":2912:3002   */\n    tag_262:\n        /* \"#utility.yul\":2946:2953   */\n      0x00\n        /* \"#utility.yul\":2989:2994   */\n      dup2\n        /* \"#utility.yul\":2982:2995   */\n      iszero\n        /* \"#utility.yul\":2975:2996   */\n      iszero\n        /* \"#utility.yul\":2964:2996   */\n      swap1\n      pop\n        /* \"#utility.yul\":2912:3002   */\n      swap2\n      swap1\n      pop\n      jump\t// out\n        /* \"#utility.yul\":3008:3117   */\n    tag_263:\n        /* \"#utility.yul\":3089:3110   */\n      tag_336\n        /* \"#utility.yul\":3104:3109   */\n      dup2\n        /* \"#utility.yul\":3089:3110   */\n      tag_262\n      jump\t// in\n    tag_336:\n        /* \"#utility.yul\":3084:3087   */\n      dup3\n        /* \"#utility.yul\":3077:3111   */\n      mstore\n        /* \"#utility.yul\":3008:3117   */\n      pop\n      pop\n      jump\t// out\n        /* \"#utility.yul\":3123:3333   */\n    tag_33:\n        /* \"#utility.yul\":3210:3214   */\n      0x00\n        /* \"#utility.yul\":3248:3250   */\n      0x20\n        /* \"#utility.yul\":3237:3246   */\n      dup3\n        /* \"#utility.yul\":3233:3251   */\n      add\n        /* \"#utility.yul\":3225:3251   */\n      swap1\n      pop\n        /* \"#utility.yul\":3261:3326   */\n      tag_338\n        /* \"#utility.yul\":3323:3324   */\n      0x00\n        /* \"#utility.yul\":3312:3321   */\n      dup4\n        /* \"#utility.yul\":3308:3325   */\n      add\n        /* \"#utility.yul\":3299:3305   */\n      dup5\n        /* \"#utility.yul\":3261:3326   */\n      tag_263\n      jump\t// in\n    tag_338:\n        /* \"#utility.yul\":3123:3333   */\n      swap3\n      swap2\n      pop\n      pop\n      jump\t// out\n        /* \"#utility.yul\":3339:3668   */\n    tag_36:\n        /* \"#utility.yul\":3398:3404   */\n      0x00\n        /* \"#utility.yul\":3447:3449   */\n      0x20\n        /* \"#utility.yul\":3435:3444   */\n      dup3\n        /* \"#utility.yul\":3426:3433   */\n      dup5\n        /* \"#utility.yul\":3422:3445   */\n      sub\n        /* \"#utility.yul\":3418:3450   */\n      slt\n        /* \"#utility.yul\":3415:3534   */\n      iszero\n      tag_340\n      jumpi\n        /* \"#utility.yul\":3453:3532   */\n      tag_341\n      tag_253\n      jump\t// in\n    tag_341:\n        /* \"#utility.yul\":3415:3534   */\n    tag_340:\n        /* \"#utility.yul\":3573:3574   */\n      0x00\n        /* \"#utility.yul\":3598:3651   */\n      tag_342\n        /* \"#utility.yul\":3643:3650   */\n      dup5\n        /* \"#utility.yul\":3634:3640   */\n      dup3\n        /* \"#utility.yul\":3623:3632   */\n      dup6\n        /* \"#utility.yul\":3619:3641   */\n      add\n        /* \"#utility.yul\":3598:3651   */\n      tag_261\n      jump\t// in\n    tag_342:\n        /* \"#utility.yul\":3588:3651   */\n      swap2\n      pop\n        /* \"#utility.yul\":3544:3661   */\n      pop\n        /* \"#utility.yul\":3339:3668   */\n      swap3\n      swap2\n      pop\n      pop\n      jump\t// out\n        /* \"#utility.yul\":3674:3792   */\n    tag_264:\n        /* \"#utility.yul\":3761:3785   */\n      tag_344\n        /* \"#utility.yul\":3779:3784   */\n      dup2\n        /* \"#utility.yul\":3761:3785   */\n      tag_259\n      jump\t// in\n    tag_344:\n        /* \"#utility.yul\":3756:3759   */\n      dup3\n        /* \"#utility.yul\":3749:3786   */\n      mstore\n        /* \"#utility.yul\":3674:3792   */\n      pop\n      pop\n      jump\t// out\n        /* \"#utility.yul\":3798:4331   */\n    tag_39:\n        /* \"#utility.yul\":3967:3971   */\n      0x00\n        /* \"#utility.yul\":4005:4007   */\n      0x60\n        /* \"#utility.yul\":3994:4003   */\n      dup3\n        /* \"#utility.yul\":3990:4008   */\n      add\n        /* \"#utility.yul\":3982:4008   */\n      swap1\n      pop\n        /* \"#utility.yul\":4018:4089   */\n      tag_346\n        /* \"#utility.yul\":4086:4087   */\n      0x00\n        /* \"#utility.yul\":4075:4084   */\n      dup4\n        /* \"#utility.yul\":4071:4088   */\n      add\n        /* \"#utility.yul\":4062:4068   */\n      dup7\n        /* \"#utility.yul\":4018:4089   */\n      tag_264\n      jump\t// in\n    tag_346:\n        /* \"#utility.yul\":4136:4145   */\n      dup2\n        /* \"#utility.yul\":4130:4134   */\n      dup2\n        /* \"#utility.yul\":4126:4146   */\n      sub\n        /* \"#utility.yul\":4121:4123   */\n      0x20\n        /* \"#utility.yul\":4110:4119   */\n      dup4\n        /* \"#utility.yul\":4106:4124   */\n      add\n        /* \"#utility.yul\":4099:4147   */\n      mstore\n        /* \"#utility.yul\":4164:4242   */\n      tag_347\n        /* \"#utility.yul\":4237:4241   */\n      dup2\n        /* \"#utility.yul\":4228:4234   */\n      dup6\n        /* \"#utility.yul\":4164:4242   */\n      tag_251\n      jump\t// in\n    tag_347:\n        /* \"#utility.yul\":4156:4242   */\n      swap1\n      pop\n        /* \"#utility.yul\":4252:4324   */\n      tag_348\n        /* \"#utility.yul\":4320:4322   */\n      0x40\n        /* \"#utility.yul\":4309:4318   */\n      dup4\n        /* \"#utility.yul\":4305:4323   */\n      add\n        /* \"#utility.yul\":4296:4302   */\n      dup5\n        /* \"#utility.yul\":4252:4324   */\n      tag_264\n      jump\t// in\n    tag_348:\n        /* \"#utility.yul\":3798:4331   */\n      swap5\n      swap4\n      pop\n      pop\n      pop\n      pop\n      jump\t// out\n        /* \"#utility.yul\":4337:4559   */\n    tag_43:\n        /* \"#utility.yul\":4430:4434   */\n      0x00\n        /* \"#utility.yul\":4468:4470   */\n      0x20\n        /* \"#utility.yul\":4457:4466   */\n      dup3\n        /* \"#utility.yul\":4453:4471   */\n      add\n        /* \"#utility.yul\":4445:4471   */\n      swap1\n      pop\n        /* \"#utility.yul\":4481:4552   */\n      tag_350\n        /* \"#utility.yul\":4549:4550   */\n      0x00\n        /* \"#utility.yul\":4538:4547   */\n      dup4\n        /* \"#utility.yul\":4534:4551   */\n      add\n        /* \"#utility.yul\":4525:4531   */\n      dup5\n        /* \"#utility.yul\":4481:4552   */\n      tag_264\n      jump\t// in\n    tag_350:\n        /* \"#utility.yul\":4337:4559   */\n      swap3\n      swap2\n      pop\n      pop\n      jump\t// out\n        /* \"#utility.yul\":4565:5184   */\n    tag_46:\n        /* \"#utility.yul\":4642:4648   */\n      0x00\n        /* \"#utility.yul\":4650:4656   */\n      dup1\n        /* \"#utility.yul\":4658:4664   */\n      0x00\n        /* \"#utility.yul\":4707:4709   */\n      0x60\n        /* \"#utility.yul\":4695:4704   */\n      dup5\n        /* \"#utility.yul\":4686:4693   */\n      dup7\n        /* \"#utility.yul\":4682:4705   */\n      sub\n        /* \"#utility.yul\":4678:4710   */\n      slt\n        /* \"#utility.yul\":4675:4794   */\n      iszero\n      tag_352\n      jumpi\n        /* \"#utility.yul\":4713:4792   */\n      tag_353\n      tag_253\n      jump\t// in\n    tag_353:\n        /* \"#utility.yul\":4675:4794   */\n    tag_352:\n        /* \"#utility.yul\":4833:4834   */\n      0x00\n        /* \"#utility.yul\":4858:4911   */\n      tag_354\n        /* \"#utility.yul\":4903:4910   */\n      dup7\n        /* \"#utility.yul\":4894:4900   */\n      dup3\n        /* \"#utility.yul\":4883:4892   */\n      dup8\n        /* \"#utility.yul\":4879:4901   */\n      add\n        /* \"#utility.yul\":4858:4911   */\n      tag_258\n      jump\t// in\n    tag_354:\n        /* \"#utility.yul\":4848:4911   */\n      swap4\n      pop\n        /* \"#utility.yul\":4804:4921   */\n      pop\n        /* \"#utility.yul\":4960:4962   */\n      0x20\n        /* \"#utility.yul\":4986:5039   */\n      tag_355\n        /* \"#utility.yul\":5031:5038   */\n      dup7\n        /* \"#utility.yul\":5022:5028   */\n      dup3\n        /* \"#utility.yul\":5011:5020   */\n      dup8\n        /* \"#utility.yul\":5007:5029   */\n      add\n        /* \"#utility.yul\":4986:5039   */\n      tag_258\n      jump\t// in\n    tag_355:\n        /* \"#utility.yul\":4976:5039   */\n      swap3\n      pop\n        /* \"#utility.yul\":4931:5049   */\n      pop\n        /* \"#utility.yul\":5088:5090   */\n      0x40\n        /* \"#utility.yul\":5114:5167   */\n      tag_356\n        /* \"#utility.yul\":5159:5166   */\n      dup7\n        /* \"#utility.yul\":5150:5156   */\n      dup3\n        /* \"#utility.yul\":5139:5148   */\n      dup8\n        /* \"#utility.yul\":5135:5157   */\n      add\n        /* \"#utility.yul\":5114:5167   */\n      tag_261\n      jump\t// in\n    tag_356:\n        /* \"#utility.yul\":5104:5167   */\n      swap2\n      pop\n        /* \"#utility.yul\":5059:5177   */\n      pop\n        /* \"#utility.yul\":4565:5184   */\n      swap3\n      pop\n      swap3\n      pop\n      swap3\n      jump\t// out\n        /* \"#utility.yul\":5190:5276   */\n    tag_265:\n        /* \"#utility.yul\":5225:5232   */\n      0x00\n        /* \"#utility.yul\":5265:5269   */\n      0xff\n        /* \"#utility.yul\":5258:5263   */\n      dup3\n        /* \"#utility.yul\":5254:5270   */\n      and\n        /* \"#utility.yul\":5243:5270   */\n      swap1\n      pop\n        /* \"#utility.yul\":5190:5276   */\n      swap2\n      swap1\n      pop\n      jump\t// out\n        /* \"#utility.yul\":5282:5394   */\n    tag_266:\n        /* \"#utility.yul\":5365:5387   */\n      tag_359\n        /* \"#utility.yul\":5381:5386   */\n      dup2\n        /* \"#utility.yul\":5365:5387   */\n      tag_265\n      jump\t// in\n    tag_359:\n        /* \"#utility.yul\":5360:5363   */\n      dup3\n        /* \"#utility.yul\":5353:5388   */\n      mstore\n        /* \"#utility.yul\":5282:5394   */\n      pop\n      pop\n      jump\t// out\n        /* \"#utility.yul\":5400:5614   */\n    tag_52:\n        /* \"#utility.yul\":5489:5493   */\n      0x00\n        /* \"#utility.yul\":5527:5529   */\n      0x20\n        /* \"#utility.yul\":5516:5525   */\n      dup3\n        /* \"#utility.yul\":5512:5530   */\n      add\n        /* \"#utility.yul\":5504:5530   */\n      swap1\n      pop\n        /* \"#utility.yul\":5540:5607   */\n      tag_361\n        /* \"#utility.yul\":5604:5605   */\n      0x00\n        /* \"#utility.yul\":5593:5602   */\n      dup4\n        /* \"#utility.yul\":5589:5606   */\n      add\n        /* \"#utility.yul\":5580:5586   */\n      dup5\n        /* \"#utility.yul\":5540:5607   */\n      tag_266\n      jump\t// in\n    tag_361:\n        /* \"#utility.yul\":5400:5614   */\n      swap3\n      swap2\n      pop\n      pop\n      jump\t// out\n        /* \"#utility.yul\":5620:5949   */\n    tag_61:\n        /* \"#utility.yul\":5679:5685   */\n      0x00\n        /* \"#utility.yul\":5728:5730   */\n      0x20\n        /* \"#utility.yul\":5716:5725   */\n      dup3\n        /* \"#utility.yul\":5707:5714   */\n      dup5\n        /* \"#utility.yul\":5703:5726   */\n      sub\n        /* \"#utility.yul\":5699:5731   */\n      slt\n        /* \"#utility.yul\":5696:5815   */\n      iszero\n      tag_363\n      jumpi\n        /* \"#utility.yul\":5734:5813   */\n      tag_364\n      tag_253\n      jump\t// in\n    tag_364:\n        /* \"#utility.yul\":5696:5815   */\n    tag_363:\n        /* \"#utility.yul\":5854:5855   */\n      0x00\n        /* \"#utility.yul\":5879:5932   */\n      tag_365\n        /* \"#utility.yul\":5924:5931   */\n      dup5\n        /* \"#utility.yul\":5915:5921   */\n      dup3\n        /* \"#utility.yul\":5904:5913   */\n      dup6\n        /* \"#utility.yul\":5900:5922   */\n      add\n        /* \"#utility.yul\":5879:5932   */\n      tag_258\n      jump\t// in\n    tag_365:\n        /* \"#utility.yul\":5869:5932   */\n      swap2\n      pop\n        /* \"#utility.yul\":5825:5942   */\n      pop\n        /* \"#utility.yul\":5620:5949   */\n      swap3\n      swap2\n      pop\n      pop\n      jump\t// out\n        /* \"#utility.yul\":5955:6094   */\n    tag_267:\n        /* \"#utility.yul\":6047:6053   */\n      0x00\n        /* \"#utility.yul\":6081:6086   */\n      dup2\n        /* \"#utility.yul\":6075:6087   */\n      mload\n        /* \"#utility.yul\":6065:6087   */\n      swap1\n      pop\n        /* \"#utility.yul\":5955:6094   */\n      swap2\n      swap1\n      pop\n      jump\t// out\n        /* \"#utility.yul\":6100:6309   */\n    tag_268:\n        /* \"#utility.yul\":6224:6235   */\n      0x00\n        /* \"#utility.yul\":6258:6264   */\n      dup3\n        /* \"#utility.yul\":6253:6256   */\n      dup3\n        /* \"#utility.yul\":6246:6265   */\n      mstore\n        /* \"#utility.yul\":6298:6302   */\n      0x20\n        /* \"#utility.yul\":6293:6296   */\n      dup3\n        /* \"#utility.yul\":6289:6303   */\n      add\n        /* \"#utility.yul\":6274:6303   */\n      swap1\n      pop\n        /* \"#utility.yul\":6100:6309   */\n      swap3\n      swap2\n      pop\n      pop\n      jump\t// out\n        /* \"#utility.yul\":6315:6472   */\n    tag_269:\n        /* \"#utility.yul\":6407:6411   */\n      0x00\n        /* \"#utility.yul\":6430:6433   */\n      dup2\n        /* \"#utility.yul\":6422:6433   */\n      swap1\n      pop\n        /* \"#utility.yul\":6460:6464   */\n      0x20\n        /* \"#utility.yul\":6455:6458   */\n      dup3\n        /* \"#utility.yul\":6451:6465   */\n      add\n        /* \"#utility.yul\":6443:6465   */\n      swap1\n      pop\n        /* \"#utility.yul\":6315:6472   */\n      swap2\n      swap1\n      pop\n      jump\t// out\n        /* \"#utility.yul\":6478:6586   */\n    tag_270:\n        /* \"#utility.yul\":6555:6579   */\n      tag_370\n        /* \"#utility.yul\":6573:6578   */\n      dup2\n        /* \"#utility.yul\":6555:6579   */\n      tag_259\n      jump\t// in\n    tag_370:\n        /* \"#utility.yul\":6550:6553   */\n      dup3\n        /* \"#utility.yul\":6543:6580   */\n      mstore\n        /* \"#utility.yul\":6478:6586   */\n      pop\n      pop\n      jump\t// out\n        /* \"#utility.yul\":6592:6751   */\n    tag_271:\n        /* \"#utility.yul\":6666:6677   */\n      0x00\n        /* \"#utility.yul\":6700:6706   */\n      dup3\n        /* \"#utility.yul\":6695:6698   */\n      dup3\n        /* \"#utility.yul\":6688:6707   */\n      mstore\n        /* \"#utility.yul\":6740:6744   */\n      0x20\n        /* \"#utility.yul\":6735:6738   */\n      dup3\n        /* \"#utility.yul\":6731:6745   */\n      add\n        /* \"#utility.yul\":6716:6745   */\n      swap1\n      pop\n        /* \"#utility.yul\":6592:6751   */\n      swap3\n      swap2\n      pop\n      pop\n      jump\t// out\n        /* \"#utility.yul\":6757:7114   */\n    tag_272:\n        /* \"#utility.yul\":6835:6838   */\n      0x00\n        /* \"#utility.yul\":6863:6902   */\n      tag_373\n        /* \"#utility.yul\":6896:6901   */\n      dup3\n        /* \"#utility.yul\":6863:6902   */\n      tag_247\n      jump\t// in\n    tag_373:\n        /* \"#utility.yul\":6918:6979   */\n      tag_374\n        /* \"#utility.yul\":6972:6978   */\n      dup2\n        /* \"#utility.yul\":6967:6970   */\n      dup6\n        /* \"#utility.yul\":6918:6979   */\n      tag_271\n      jump\t// in\n    tag_374:\n        /* \"#utility.yul\":6911:6979   */\n      swap4\n      pop\n        /* \"#utility.yul\":6988:7053   */\n      tag_375\n        /* \"#utility.yul\":7046:7052   */\n      dup2\n        /* \"#utility.yul\":7041:7044   */\n      dup6\n        /* \"#utility.yul\":7034:7038   */\n      0x20\n        /* \"#utility.yul\":7027:7032   */\n      dup7\n        /* \"#utility.yul\":7023:7039   */\n      add\n        /* \"#utility.yul\":6988:7053   */\n      tag_249\n      jump\t// in\n    tag_375:\n        /* \"#utility.yul\":7078:7107   */\n      tag_376\n        /* \"#utility.yul\":7100:7106   */\n      dup2\n        /* \"#utility.yul\":7078:7107   */\n      tag_250\n      jump\t// in\n    tag_376:\n        /* \"#utility.yul\":7073:7076   */\n      dup5\n        /* \"#utility.yul\":7069:7108   */\n      add\n        /* \"#utility.yul\":7062:7108   */\n      swap2\n      pop\n        /* \"#utility.yul\":6839:7114   */\n      pop\n        /* \"#utility.yul\":6757:7114   */\n      swap3\n      swap2\n      pop\n      pop\n      jump\t// out\n        /* \"#utility.yul\":7182:7950   */\n    tag_273:\n        /* \"#utility.yul\":7291:7294   */\n      0x00\n        /* \"#utility.yul\":7327:7331   */\n      0x60\n        /* \"#utility.yul\":7322:7325   */\n      dup4\n        /* \"#utility.yul\":7318:7332   */\n      add\n        /* \"#utility.yul\":7412:7416   */\n      0x00\n        /* \"#utility.yul\":7405:7410   */\n      dup4\n        /* \"#utility.yul\":7401:7417   */\n      add\n        /* \"#utility.yul\":7395:7418   */\n      mload\n        /* \"#utility.yul\":7431:7494   */\n      tag_378\n        /* \"#utility.yul\":7488:7492   */\n      0x00\n        /* \"#utility.yul\":7483:7486   */\n      dup7\n        /* \"#utility.yul\":7479:7493   */\n      add\n        /* \"#utility.yul\":7465:7477   */\n      dup3\n        /* \"#utility.yul\":7431:7494   */\n      tag_270\n      jump\t// in\n    tag_378:\n        /* \"#utility.yul\":7342:7504   */\n      pop\n        /* \"#utility.yul\":7586:7590   */\n      0x20\n        /* \"#utility.yul\":7579:7584   */\n      dup4\n        /* \"#utility.yul\":7575:7591   */\n      add\n        /* \"#utility.yul\":7569:7592   */\n      mload\n        /* \"#utility.yul\":7639:7642   */\n      dup5\n        /* \"#utility.yul\":7633:7637   */\n      dup3\n        /* \"#utility.yul\":7629:7643   */\n      sub\n        /* \"#utility.yul\":7622:7626   */\n      0x20\n        /* \"#utility.yul\":7617:7620   */\n      dup7\n        /* \"#utility.yul\":7613:7627   */\n      add\n        /* \"#utility.yul\":7606:7644   */\n      mstore\n        /* \"#utility.yul\":7665:7738   */\n      tag_379\n        /* \"#utility.yul\":7733:7737   */\n      dup3\n        /* \"#utility.yul\":7719:7731   */\n      dup3\n        /* \"#utility.yul\":7665:7738   */\n      tag_272\n      jump\t// in\n    tag_379:\n        /* \"#utility.yul\":7657:7738   */\n      swap2\n      pop\n        /* \"#utility.yul\":7514:7749   */\n      pop\n        /* \"#utility.yul\":7831:7835   */\n      0x40\n        /* \"#utility.yul\":7824:7829   */\n      dup4\n        /* \"#utility.yul\":7820:7836   */\n      add\n        /* \"#utility.yul\":7814:7837   */\n      mload\n        /* \"#utility.yul\":7850:7913   */\n      tag_380\n        /* \"#utility.yul\":7907:7911   */\n      0x40\n        /* \"#utility.yul\":7902:7905   */\n      dup7\n        /* \"#utility.yul\":7898:7912   */\n      add\n        /* \"#utility.yul\":7884:7896   */\n      dup3\n        /* \"#utility.yul\":7850:7913   */\n      tag_270\n      jump\t// in\n    tag_380:\n        /* \"#utility.yul\":7759:7923   */\n      pop\n        /* \"#utility.yul\":7940:7944   */\n      dup1\n        /* \"#utility.yul\":7933:7944   */\n      swap2\n      pop\n        /* \"#utility.yul\":7296:7950   */\n      pop\n        /* \"#utility.yul\":7182:7950   */\n      swap3\n      swap2\n      pop\n      pop\n      jump\t// out\n        /* \"#utility.yul\":7956:8212   */\n    tag_274:\n        /* \"#utility.yul\":8075:8085   */\n      0x00\n        /* \"#utility.yul\":8110:8206   */\n      tag_382\n        /* \"#utility.yul\":8202:8205   */\n      dup4\n        /* \"#utility.yul\":8194:8200   */\n      dup4\n        /* \"#utility.yul\":8110:8206   */\n      tag_273\n      jump\t// in\n    tag_382:\n        /* \"#utility.yul\":8096:8206   */\n      swap1\n      pop\n        /* \"#utility.yul\":7956:8212   */\n      swap3\n      swap2\n      pop\n      pop\n      jump\t// out\n        /* \"#utility.yul\":8218:8356   */\n    tag_275:\n        /* \"#utility.yul\":8313:8317   */\n      0x00\n        /* \"#utility.yul\":8345:8349   */\n      0x20\n        /* \"#utility.yul\":8340:8343   */\n      dup3\n        /* \"#utility.yul\":8336:8350   */\n      add\n        /* \"#utility.yul\":8328:8350   */\n      swap1\n      pop\n        /* \"#utility.yul\":8218:8356   */\n      swap2\n      swap1\n      pop\n      jump\t// out\n        /* \"#utility.yul\":8428:9539   */\n    tag_276:\n        /* \"#utility.yul\":8597:8600   */\n      0x00\n        /* \"#utility.yul\":8626:8705   */\n      tag_385\n        /* \"#utility.yul\":8699:8704   */\n      dup3\n        /* \"#utility.yul\":8626:8705   */\n      tag_267\n      jump\t// in\n    tag_385:\n        /* \"#utility.yul\":8721:8832   */\n      tag_386\n        /* \"#utility.yul\":8825:8831   */\n      dup2\n        /* \"#utility.yul\":8820:8823   */\n      dup6\n        /* \"#utility.yul\":8721:8832   */\n      tag_268\n      jump\t// in\n    tag_386:\n        /* \"#utility.yul\":8714:8832   */\n      swap4\n      pop\n        /* \"#utility.yul\":8858:8861   */\n      dup4\n        /* \"#utility.yul\":8903:8907   */\n      0x20\n        /* \"#utility.yul\":8895:8901   */\n      dup3\n        /* \"#utility.yul\":8891:8908   */\n      mul\n        /* \"#utility.yul\":8886:8889   */\n      dup6\n        /* \"#utility.yul\":8882:8909   */\n      add\n        /* \"#utility.yul\":8933:9014   */\n      tag_387\n        /* \"#utility.yul\":9008:9013   */\n      dup6\n        /* \"#utility.yul\":8933:9014   */\n      tag_269\n      jump\t// in\n    tag_387:\n        /* \"#utility.yul\":9037:9044   */\n      dup1\n        /* \"#utility.yul\":9068:9069   */\n      0x00\n        /* \"#utility.yul\":9053:9494   */\n    tag_388:\n        /* \"#utility.yul\":9078:9084   */\n      dup6\n        /* \"#utility.yul\":9075:9076   */\n      dup2\n        /* \"#utility.yul\":9072:9085   */\n      lt\n        /* \"#utility.yul\":9053:9494   */\n      iszero\n      tag_390\n      jumpi\n        /* \"#utility.yul\":9149:9158   */\n      dup5\n        /* \"#utility.yul\":9143:9147   */\n      dup5\n        /* \"#utility.yul\":9139:9159   */\n      sub\n        /* \"#utility.yul\":9134:9137   */\n      dup10\n        /* \"#utility.yul\":9127:9160   */\n      mstore\n        /* \"#utility.yul\":9200:9206   */\n      dup2\n        /* \"#utility.yul\":9194:9207   */\n      mload\n        /* \"#utility.yul\":9228:9342   */\n      tag_391\n        /* \"#utility.yul\":9337:9341   */\n      dup6\n        /* \"#utility.yul\":9322:9335   */\n      dup3\n        /* \"#utility.yul\":9228:9342   */\n      tag_274\n      jump\t// in\n    tag_391:\n        /* \"#utility.yul\":9220:9342   */\n      swap5\n      pop\n        /* \"#utility.yul\":9365:9450   */\n      tag_392\n        /* \"#utility.yul\":9443:9449   */\n      dup4\n        /* \"#utility.yul\":9365:9450   */\n      tag_275\n      jump\t// in\n    tag_392:\n        /* \"#utility.yul\":9355:9450   */\n      swap3\n      pop\n        /* \"#utility.yul\":9479:9483   */\n      0x20\n        /* \"#utility.yul\":9474:9477   */\n      dup11\n        /* \"#utility.yul\":9470:9484   */\n      add\n        /* \"#utility.yul\":9463:9484   */\n      swap10\n      pop\n        /* \"#utility.yul\":9113:9494   */\n      pop\n        /* \"#utility.yul\":9100:9101   */\n      0x01\n        /* \"#utility.yul\":9097:9098   */\n      dup2\n        /* \"#utility.yul\":9093:9102   */\n      add\n        /* \"#utility.yul\":9088:9102   */\n      swap1\n      pop\n        /* \"#utility.yul\":9053:9494   */\n      jump(tag_388)\n    tag_390:\n        /* \"#utility.yul\":9057:9071   */\n      pop\n        /* \"#utility.yul\":9510:9514   */\n      dup3\n        /* \"#utility.yul\":9503:9514   */\n      swap8\n      pop\n        /* \"#utility.yul\":9530:9533   */\n      dup8\n        /* \"#utility.yul\":9523:9533   */\n      swap6\n      pop\n        /* \"#utility.yul\":8602:9539   */\n      pop\n      pop\n      pop\n      pop\n      pop\n        /* \"#utility.yul\":8428:9539   */\n      swap3\n      swap2\n      pop\n      pop\n      jump\t// out\n        /* \"#utility.yul\":9545:10018   */\n    tag_69:\n        /* \"#utility.yul\":9738:9742   */\n      0x00\n        /* \"#utility.yul\":9776:9778   */\n      0x20\n        /* \"#utility.yul\":9765:9774   */\n      dup3\n        /* \"#utility.yul\":9761:9779   */\n      add\n        /* \"#utility.yul\":9753:9779   */\n      swap1\n      pop\n        /* \"#utility.yul\":9825:9834   */\n      dup2\n        /* \"#utility.yul\":9819:9823   */\n      dup2\n        /* \"#utility.yul\":9815:9835   */\n      sub\n        /* \"#utility.yul\":9811:9812   */\n      0x00\n        /* \"#utility.yul\":9800:9809   */\n      dup4\n        /* \"#utility.yul\":9796:9813   */\n      add\n        /* \"#utility.yul\":9789:9836   */\n      mstore\n        /* \"#utility.yul\":9853:10011   */\n      tag_394\n        /* \"#utility.yul\":10006:10010   */\n      dup2\n        /* \"#utility.yul\":9997:10003   */\n      dup5\n        /* \"#utility.yul\":9853:10011   */\n      tag_276\n      jump\t// in\n    tag_394:\n        /* \"#utility.yul\":9845:10011   */\n      swap1\n      pop\n        /* \"#utility.yul\":9545:10018   */\n      swap3\n      swap2\n      pop\n      pop\n      jump\t// out\n        /* \"#utility.yul\":10024:10142   */\n    tag_277:\n        /* \"#utility.yul\":10111:10135   */\n      tag_396\n        /* \"#utility.yul\":10129:10134   */\n      dup2\n        /* \"#utility.yul\":10111:10135   */\n      tag_256\n      jump\t// in\n    tag_396:\n        /* \"#utility.yul\":10106:10109   */\n      dup3\n        /* \"#utility.yul\":10099:10136   */\n      mstore\n        /* \"#utility.yul\":10024:10142   */\n      pop\n      pop\n      jump\t// out\n        /* \"#utility.yul\":10148:10370   */\n    tag_76:\n        /* \"#utility.yul\":10241:10245   */\n      0x00\n        /* \"#utility.yul\":10279:10281   */\n      0x20\n        /* \"#utility.yul\":10268:10277   */\n      dup3\n        /* \"#utility.yul\":10264:10282   */\n      add\n        /* \"#utility.yul\":10256:10282   */\n      swap1\n      pop\n        /* \"#utility.yul\":10292:10363   */\n      tag_398\n        /* \"#utility.yul\":10360:10361   */\n      0x00\n        /* \"#utility.yul\":10349:10358   */\n      dup4\n        /* \"#utility.yul\":10345:10362   */\n      add\n        /* \"#utility.yul\":10336:10342   */\n      dup5\n        /* \"#utility.yul\":10292:10363   */\n      tag_277\n      jump\t// in\n    tag_398:\n        /* \"#utility.yul\":10148:10370   */\n      swap3\n      swap2\n      pop\n      pop\n      jump\t// out\n        /* \"#utility.yul\":10376:10850   */\n    tag_89:\n        /* \"#utility.yul\":10444:10450   */\n      0x00\n        /* \"#utility.yul\":10452:10458   */\n      dup1\n        /* \"#utility.yul\":10501:10503   */\n      0x40\n        /* \"#utility.yul\":10489:10498   */\n      dup4\n        /* \"#utility.yul\":10480:10487   */\n      dup6\n        /* \"#utility.yul\":10476:10499   */\n      sub\n        /* \"#utility.yul\":10472:10504   */\n      slt\n        /* \"#utility.yul\":10469:10588   */\n      iszero\n      tag_400\n      jumpi\n        /* \"#utility.yul\":10507:10586   */\n      tag_401\n      tag_253\n      jump\t// in\n    tag_401:\n        /* \"#utility.yul\":10469:10588   */\n    tag_400:\n        /* \"#utility.yul\":10627:10628   */\n      0x00\n        /* \"#utility.yul\":10652:10705   */\n      tag_402\n        /* \"#utility.yul\":10697:10704   */\n      dup6\n        /* \"#utility.yul\":10688:10694   */\n      dup3\n        /* \"#utility.yul\":10677:10686   */\n      dup7\n        /* \"#utility.yul\":10673:10695   */\n      add\n        /* \"#utility.yul\":10652:10705   */\n      tag_258\n      jump\t// in\n    tag_402:\n        /* \"#utility.yul\":10642:10705   */\n      swap3\n      pop\n        /* \"#utility.yul\":10598:10715   */\n      pop\n        /* \"#utility.yul\":10754:10756   */\n      0x20\n        /* \"#utility.yul\":10780:10833   */\n      tag_403\n        /* \"#utility.yul\":10825:10832   */\n      dup6\n        /* \"#utility.yul\":10816:10822   */\n      dup3\n        /* \"#utility.yul\":10805:10814   */\n      dup7\n        /* \"#utility.yul\":10801:10823   */\n      add\n        /* \"#utility.yul\":10780:10833   */\n      tag_258\n      jump\t// in\n    tag_403:\n        /* \"#utility.yul\":10770:10833   */\n      swap2\n      pop\n        /* \"#utility.yul\":10725:10843   */\n      pop\n        /* \"#utility.yul\":10376:10850   */\n      swap3\n      pop\n      swap3\n      swap1\n      pop\n      jump\t// out\n        /* \"#utility.yul\":10856:11036   */\n    tag_278:\n        /* \"#utility.yul\":10904:10981   */\n      0x4e487b7100000000000000000000000000000000000000000000000000000000\n        /* \"#utility.yul\":10901:10902   */\n      0x00\n        /* \"#utility.yul\":10894:10982   */\n      mstore\n        /* \"#utility.yul\":11001:11005   */\n      0x22\n        /* \"#utility.yul\":10998:10999   */\n      0x04\n        /* \"#utility.yul\":10991:11006   */\n      mstore\n        /* \"#utility.yul\":11025:11029   */\n      0x24\n        /* \"#utility.yul\":11022:11023   */\n      0x00\n        /* \"#utility.yul\":11015:11030   */\n      revert\n        /* \"#utility.yul\":11042:11362   */\n    tag_97:\n        /* \"#utility.yul\":11086:11092   */\n      0x00\n        /* \"#utility.yul\":11123:11124   */\n      0x02\n        /* \"#utility.yul\":11117:11121   */\n      dup3\n        /* \"#utility.yul\":11113:11125   */\n      div\n        /* \"#utility.yul\":11103:11125   */\n      swap1\n      pop\n        /* \"#utility.yul\":11170:11171   */\n      0x01\n        /* \"#utility.yul\":11164:11168   */\n      dup3\n        /* \"#utility.yul\":11160:11172   */\n      and\n        /* \"#utility.yul\":11191:11209   */\n      dup1\n        /* \"#utility.yul\":11181:11262   */\n      tag_406\n      jumpi\n        /* \"#utility.yul\":11247:11251   */\n      0x7f\n        /* \"#utility.yul\":11239:11245   */\n      dup3\n        /* \"#utility.yul\":11235:11252   */\n      and\n        /* \"#utility.yul\":11225:11252   */\n      swap2\n      pop\n        /* \"#utility.yul\":11181:11262   */\n    tag_406:\n        /* \"#utility.yul\":11309:11311   */\n      0x20\n        /* \"#utility.yul\":11301:11307   */\n      dup3\n        /* \"#utility.yul\":11298:11312   */\n      lt\n        /* \"#utility.yul\":11278:11296   */\n      dup2\n        /* \"#utility.yul\":11275:11313   */\n      sub\n        /* \"#utility.yul\":11272:11356   */\n      tag_407\n      jumpi\n        /* \"#utility.yul\":11328:11346   */\n      tag_408\n      tag_278\n      jump\t// in\n    tag_408:\n        /* \"#utility.yul\":11272:11356   */\n    tag_407:\n        /* \"#utility.yul\":11093:11362   */\n      pop\n        /* \"#utility.yul\":11042:11362   */\n      swap2\n      swap1\n      pop\n      jump\t// out\n        /* \"#utility.yul\":11368:11533   */\n    tag_279:\n        /* \"#utility.yul\":11508:11525   */\n      0x496e76616c6964206974656d2049440000000000000000000000000000000000\n        /* \"#utility.yul\":11504:11505   */\n      0x00\n        /* \"#utility.yul\":11496:11502   */\n      dup3\n        /* \"#utility.yul\":11492:11506   */\n      add\n        /* \"#utility.yul\":11485:11526   */\n      mstore\n        /* \"#utility.yul\":11368:11533   */\n      pop\n      jump\t// out\n        /* \"#utility.yul\":11539:11905   */\n    tag_280:\n        /* \"#utility.yul\":11681:11684   */\n      0x00\n        /* \"#utility.yul\":11702:11769   */\n      tag_411\n        /* \"#utility.yul\":11766:11768   */\n      0x0f\n        /* \"#utility.yul\":11761:11764   */\n      dup4\n        /* \"#utility.yul\":11702:11769   */\n      tag_248\n      jump\t// in\n    tag_411:\n        /* \"#utility.yul\":11695:11769   */\n      swap2\n      pop\n        /* \"#utility.yul\":11778:11871   */\n      tag_412\n        /* \"#utility.yul\":11867:11870   */\n      dup3\n        /* \"#utility.yul\":11778:11871   */\n      tag_279\n      jump\t// in\n    tag_412:\n        /* \"#utility.yul\":11896:11898   */\n      0x20\n        /* \"#utility.yul\":11891:11894   */\n      dup3\n        /* \"#utility.yul\":11887:11899   */\n      add\n        /* \"#utility.yul\":11880:11899   */\n      swap1\n      pop\n        /* \"#utility.yul\":11539:11905   */\n      swap2\n      swap1\n      pop\n      jump\t// out\n        /* \"#utility.yul\":11911:12330   */\n    tag_169:\n        /* \"#utility.yul\":12077:12081   */\n      0x00\n        /* \"#utility.yul\":12115:12117   */\n      0x20\n        /* \"#utility.yul\":12104:12113   */\n      dup3\n        /* \"#utility.yul\":12100:12118   */\n      add\n        /* \"#utility.yul\":12092:12118   */\n      swap1\n      pop\n        /* \"#utility.yul\":12164:12173   */\n      dup2\n        /* \"#utility.yul\":12158:12162   */\n      dup2\n        /* \"#utility.yul\":12154:12174   */\n      sub\n        /* \"#utility.yul\":12150:12151   */\n      0x00\n        /* \"#utility.yul\":12139:12148   */\n      dup4\n        /* \"#utility.yul\":12135:12152   */\n      add\n        /* \"#utility.yul\":12128:12175   */\n      mstore\n        /* \"#utility.yul\":12192:12323   */\n      tag_414\n        /* \"#utility.yul\":12318:12322   */\n      dup2\n        /* \"#utility.yul\":12192:12323   */\n      tag_280\n      jump\t// in\n    tag_414:\n        /* \"#utility.yul\":12184:12323   */\n      swap1\n      pop\n        /* \"#utility.yul\":11911:12330   */\n      swap2\n      swap1\n      pop\n      jump\t// out\n        /* \"#utility.yul\":12336:12516   */\n    tag_281:\n        /* \"#utility.yul\":12384:12461   */\n      0x4e487b7100000000000000000000000000000000000000000000000000000000\n        /* \"#utility.yul\":12381:12382   */\n      0x00\n        /* \"#utility.yul\":12374:12462   */\n      mstore\n        /* \"#utility.yul\":12481:12485   */\n      0x11\n        /* \"#utility.yul\":12478:12479   */\n      0x04\n        /* \"#utility.yul\":12471:12486   */\n      mstore\n        /* \"#utility.yul\":12505:12509   */\n      0x24\n        /* \"#utility.yul\":12502:12503   */\n      0x00\n        /* \"#utility.yul\":12495:12510   */\n      revert\n        /* \"#utility.yul\":12522:12716   */\n    tag_171:\n        /* \"#utility.yul\":12562:12566   */\n      0x00\n        /* \"#utility.yul\":12582:12602   */\n      tag_417\n        /* \"#utility.yul\":12600:12601   */\n      dup3\n        /* \"#utility.yul\":12582:12602   */\n      tag_259\n      jump\t// in\n    tag_417:\n        /* \"#utility.yul\":12577:12602   */\n      swap2\n      pop\n        /* \"#utility.yul\":12616:12636   */\n      tag_418\n        /* \"#utility.yul\":12634:12635   */\n      dup4\n        /* \"#utility.yul\":12616:12636   */\n      tag_259\n      jump\t// in\n    tag_418:\n        /* \"#utility.yul\":12611:12636   */\n      swap3\n      pop\n        /* \"#utility.yul\":12660:12661   */\n      dup3\n        /* \"#utility.yul\":12657:12658   */\n      dup3\n        /* \"#utility.yul\":12653:12662   */\n      sub\n        /* \"#utility.yul\":12645:12662   */\n      swap1\n      pop\n        /* \"#utility.yul\":12684:12685   */\n      dup2\n        /* \"#utility.yul\":12678:12682   */\n      dup2\n        /* \"#utility.yul\":12675:12686   */\n      gt\n        /* \"#utility.yul\":12672:12709   */\n      iszero\n      tag_419\n      jumpi\n        /* \"#utility.yul\":12689:12707   */\n      tag_420\n      tag_281\n      jump\t// in\n    tag_420:\n        /* \"#utility.yul\":12672:12709   */\n    tag_419:\n        /* \"#utility.yul\":12522:12716   */\n      swap3\n      swap2\n      pop\n      pop\n      jump\t// out\n        /* \"#utility.yul\":12722:12902   */\n    tag_174:\n        /* \"#utility.yul\":12770:12847   */\n      0x4e487b7100000000000000000000000000000000000000000000000000000000\n        /* \"#utility.yul\":12767:12768   */\n      0x00\n        /* \"#utility.yul\":12760:12848   */\n      mstore\n        /* \"#utility.yul\":12867:12871   */\n      0x32\n        /* \"#utility.yul\":12864:12865   */\n      0x04\n        /* \"#utility.yul\":12857:12872   */\n      mstore\n        /* \"#utility.yul\":12891:12895   */\n      0x24\n        /* \"#utility.yul\":12888:12889   */\n      0x00\n        /* \"#utility.yul\":12881:12896   */\n      revert\n        /* \"#utility.yul\":12908:13077   */\n    tag_282:\n        /* \"#utility.yul\":13048:13069   */\n      0x496e73756666696369656e7420746f6b656e7300000000000000000000000000\n        /* \"#utility.yul\":13044:13045   */\n      0x00\n        /* \"#utility.yul\":13036:13042   */\n      dup3\n        /* \"#utility.yul\":13032:13046   */\n      add\n        /* \"#utility.yul\":13025:13070   */\n      mstore\n        /* \"#utility.yul\":12908:13077   */\n      pop\n      jump\t// out\n        /* \"#utility.yul\":13083:13449   */\n    tag_283:\n        /* \"#utility.yul\":13225:13228   */\n      0x00\n        /* \"#utility.yul\":13246:13313   */\n      tag_424\n        /* \"#utility.yul\":13310:13312   */\n      0x13\n        /* \"#utility.yul\":13305:13308   */\n      dup4\n        /* \"#utility.yul\":13246:13313   */\n      tag_248\n      jump\t// in\n    tag_424:\n        /* \"#utility.yul\":13239:13313   */\n      swap2\n      pop\n        /* \"#utility.yul\":13322:13415   */\n      tag_425\n        /* \"#utility.yul\":13411:13414   */\n      dup3\n        /* \"#utility.yul\":13322:13415   */\n      tag_282\n      jump\t// in\n    tag_425:\n        /* \"#utility.yul\":13440:13442   */\n      0x20\n        /* \"#utility.yul\":13435:13438   */\n      dup3\n        /* \"#utility.yul\":13431:13443   */\n      add\n        /* \"#utility.yul\":13424:13443   */\n      swap1\n      pop\n        /* \"#utility.yul\":13083:13449   */\n      swap2\n      swap1\n      pop\n      jump\t// out\n        /* \"#utility.yul\":13455:13874   */\n    tag_184:\n        /* \"#utility.yul\":13621:13625   */\n      0x00\n        /* \"#utility.yul\":13659:13661   */\n      0x20\n        /* \"#utility.yul\":13648:13657   */\n      dup3\n        /* \"#utility.yul\":13644:13662   */\n      add\n        /* \"#utility.yul\":13636:13662   */\n      swap1\n      pop\n        /* \"#utility.yul\":13708:13717   */\n      dup2\n        /* \"#utility.yul\":13702:13706   */\n      dup2\n        /* \"#utility.yul\":13698:13718   */\n      sub\n        /* \"#utility.yul\":13694:13695   */\n      0x00\n        /* \"#utility.yul\":13683:13692   */\n      dup4\n        /* \"#utility.yul\":13679:13696   */\n      add\n        /* \"#utility.yul\":13672:13719   */\n      mstore\n        /* \"#utility.yul\":13736:13867   */\n      tag_427\n        /* \"#utility.yul\":13862:13866   */\n      dup2\n        /* \"#utility.yul\":13736:13867   */\n      tag_283\n      jump\t// in\n    tag_427:\n        /* \"#utility.yul\":13728:13867   */\n      swap1\n      pop\n        /* \"#utility.yul\":13455:13874   */\n      swap2\n      swap1\n      pop\n      jump\t// out\n        /* \"#utility.yul\":13880:14060   */\n    tag_284:\n        /* \"#utility.yul\":13928:14005   */\n      0x4e487b7100000000000000000000000000000000000000000000000000000000\n        /* \"#utility.yul\":13925:13926   */\n      0x00\n        /* \"#utility.yul\":13918:14006   */\n      mstore\n        /* \"#utility.yul\":14025:14029   */\n      0x41\n        /* \"#utility.yul\":14022:14023   */\n      0x04\n        /* \"#utility.yul\":14015:14030   */\n      mstore\n        /* \"#utility.yul\":14049:14053   */\n      0x24\n        /* \"#utility.yul\":14046:14047   */\n      0x00\n        /* \"#utility.yul\":14039:14054   */\n      revert\n        /* \"#utility.yul\":14066:14207   */\n    tag_285:\n        /* \"#utility.yul\":14115:14119   */\n      0x00\n        /* \"#utility.yul\":14138:14141   */\n      dup2\n        /* \"#utility.yul\":14130:14141   */\n      swap1\n      pop\n        /* \"#utility.yul\":14161:14164   */\n      dup2\n        /* \"#utility.yul\":14158:14159   */\n      0x00\n        /* \"#utility.yul\":14151:14165   */\n      mstore\n        /* \"#utility.yul\":14195:14199   */\n      0x20\n        /* \"#utility.yul\":14192:14193   */\n      0x00\n        /* \"#utility.yul\":14182:14200   */\n      keccak256\n        /* \"#utility.yul\":14174:14200   */\n      swap1\n      pop\n        /* \"#utility.yul\":14066:14207   */\n      swap2\n      swap1\n      pop\n      jump\t// out\n        /* \"#utility.yul\":14213:14306   */\n    tag_286:\n        /* \"#utility.yul\":14250:14256   */\n      0x00\n        /* \"#utility.yul\":14297:14299   */\n      0x20\n        /* \"#utility.yul\":14292:14294   */\n      0x1f\n        /* \"#utility.yul\":14285:14290   */\n      dup4\n        /* \"#utility.yul\":14281:14295   */\n      add\n        /* \"#utility.yul\":14277:14300   */\n      div\n        /* \"#utility.yul\":14267:14300   */\n      swap1\n      pop\n        /* \"#utility.yul\":14213:14306   */\n      swap2\n      swap1\n      pop\n      jump\t// out\n        /* \"#utility.yul\":14312:14419   */\n    tag_287:\n        /* \"#utility.yul\":14356:14364   */\n      0x00\n        /* \"#utility.yul\":14406:14411   */\n      dup3\n        /* \"#utility.yul\":14400:14404   */\n      dup3\n        /* \"#utility.yul\":14396:14412   */\n      shl\n        /* \"#utility.yul\":14375:14412   */\n      swap1\n      pop\n        /* \"#utility.yul\":14312:14419   */\n      swap3\n      swap2\n      pop\n      pop\n      jump\t// out\n        /* \"#utility.yul\":14425:14818   */\n    tag_288:\n        /* \"#utility.yul\":14494:14500   */\n      0x00\n        /* \"#utility.yul\":14544:14545   */\n      0x08\n        /* \"#utility.yul\":14532:14542   */\n      dup4\n        /* \"#utility.yul\":14528:14546   */\n      mul\n        /* \"#utility.yul\":14567:14664   */\n      tag_433\n        /* \"#utility.yul\":14597:14663   */\n      0xffffffffffffffffffffffffffffffffffffffffffffffffffffffffffffffff\n        /* \"#utility.yul\":14586:14595   */\n      dup3\n        /* \"#utility.yul\":14567:14664   */\n      tag_287\n      jump\t// in\n    tag_433:\n        /* \"#utility.yul\":14685:14724   */\n      tag_434\n        /* \"#utility.yul\":14715:14723   */\n      dup7\n        /* \"#utility.yul\":14704:14713   */\n      dup4\n        /* \"#utility.yul\":14685:14724   */\n      tag_287\n      jump\t// in\n    tag_434:\n        /* \"#utility.yul\":14673:14724   */\n      swap6\n      pop\n        /* \"#utility.yul\":14757:14761   */\n      dup1\n        /* \"#utility.yul\":14753:14762   */\n      not\n        /* \"#utility.yul\":14746:14751   */\n      dup5\n        /* \"#utility.yul\":14742:14763   */\n      and\n        /* \"#utility.yul\":14733:14763   */\n      swap4\n      pop\n        /* \"#utility.yul\":14806:14810   */\n      dup1\n        /* \"#utility.yul\":14796:14804   */\n      dup7\n        /* \"#utility.yul\":14792:14811   */\n      and\n        /* \"#utility.yul\":14785:14790   */\n      dup5\n        /* \"#utility.yul\":14782:14812   */\n      or\n        /* \"#utility.yul\":14772:14812   */\n      swap3\n      pop\n        /* \"#utility.yul\":14501:14818   */\n      pop\n      pop\n        /* \"#utility.yul\":14425:14818   */\n      swap4\n      swap3\n      pop\n      pop\n      pop\n      jump\t// out\n        /* \"#utility.yul\":14824:14884   */\n    tag_289:\n        /* \"#utility.yul\":14852:14855   */\n      0x00\n        /* \"#utility.yul\":14873:14878   */\n      dup2\n        /* \"#utility.yul\":14866:14878   */\n      swap1\n      pop\n        /* \"#utility.yul\":14824:14884   */\n      swap2\n      swap1\n      pop\n      jump\t// out\n        /* \"#utility.yul\":14890:15032   */\n    tag_290:\n        /* \"#utility.yul\":14940:14949   */\n      0x00\n        /* \"#utility.yul\":14973:15026   */\n      tag_437\n        /* \"#utility.yul\":14991:15025   */\n      tag_438\n        /* \"#utility.yul\":15000:15024   */\n      tag_439\n        /* \"#utility.yul\":15018:15023   */\n      dup5\n        /* \"#utility.yul\":15000:15024   */\n      tag_259\n      jump\t// in\n    tag_439:\n        /* \"#utility.yul\":14991:15025   */\n      tag_289\n      jump\t// in\n    tag_438:\n        /* \"#utility.yul\":14973:15026   */\n      tag_259\n      jump\t// in\n    tag_437:\n        /* \"#utility.yul\":14960:15026   */\n      swap1\n      pop\n        /* \"#utility.yul\":14890:15032   */\n      swap2\n      swap1\n      pop\n      jump\t// out\n        /* \"#utility.yul\":15038:15113   */\n    tag_291:\n        /* \"#utility.yul\":15081:15084   */\n      0x00\n        /* \"#utility.yul\":15102:15107   */\n      dup2\n        /* \"#utility.yul\":15095:15107   */\n      swap1\n      pop\n        /* \"#utility.yul\":15038:15113   */\n      swap2\n      swap1\n      pop\n      jump\t// out\n        /* \"#utility.yul\":15119:15388   */\n    tag_292:\n        /* \"#utility.yul\":15229:15268   */\n      tag_442\n        /* \"#utility.yul\":15260:15267   */\n      dup4\n        /* \"#utility.yul\":15229:15268   */\n      tag_290\n      jump\t// in\n    tag_442:\n        /* \"#utility.yul\":15290:15381   */\n      tag_443\n        /* \"#utility.yul\":15339:15380   */\n      tag_444\n        /* \"#utility.yul\":15363:15379   */\n      dup3\n        /* \"#utility.yul\":15339:15380   */\n      tag_291\n      jump\t// in\n    tag_444:\n        /* \"#utility.yul\":15331:15337   */\n      dup5\n        /* \"#utility.yul\":15324:15328   */\n      dup5\n        /* \"#utility.yul\":15318:15329   */\n      sload\n        /* \"#utility.yul\":15290:15381   */\n      tag_288\n      jump\t// in\n    tag_443:\n        /* \"#utility.yul\":15284:15288   */\n      dup3\n        /* \"#utility.yul\":15277:15382   */\n      sstore\n        /* \"#utility.yul\":15195:15388   */\n      pop\n        /* \"#utility.yul\":15119:15388   */\n      pop\n      pop\n      pop\n      jump\t// out\n        /* \"#utility.yul\":15394:15467   */\n    tag_293:\n        /* \"#utility.yul\":15439:15442   */\n      0x00\n        /* \"#utility.yul\":15394:15467   */\n      swap1\n      jump\t// out\n        /* \"#utility.yul\":15473:15662   */\n    tag_294:\n        /* \"#utility.yul\":15550:15582   */\n      tag_447\n      tag_293\n      jump\t// in\n    tag_447:\n        /* \"#utility.yul\":15591:15656   */\n      tag_448\n        /* \"#utility.yul\":15649:15655   */\n      dup2\n        /* \"#utility.yul\":15641:15647   */\n      dup5\n        /* \"#utility.yul\":15635:15639   */\n      dup5\n        /* \"#utility.yul\":15591:15656   */\n      tag_292\n      jump\t// in\n    tag_448:\n        /* \"#utility.yul\":15526:15662   */\n      pop\n        /* \"#utility.yul\":15473:15662   */\n      pop\n      pop\n      jump\t// out\n        /* \"#utility.yul\":15668:15854   */\n    tag_295:\n        /* \"#utility.yul\":15728:15848   */\n    tag_450:\n        /* \"#utility.yul\":15745:15748   */\n      dup2\n        /* \"#utility.yul\":15738:15743   */\n      dup2\n        /* \"#utility.yul\":15735:15749   */\n      lt\n        /* \"#utility.yul\":15728:15848   */\n      iszero\n      tag_452\n      jumpi\n        /* \"#utility.yul\":15799:15838   */\n      tag_453\n        /* \"#utility.yul\":15836:15837   */\n      0x00\n        /* \"#utility.yul\":15829:15834   */\n      dup3\n        /* \"#utility.yul\":15799:15838   */\n      tag_294\n      jump\t// in\n    tag_453:\n        /* \"#utility.yul\":15772:15773   */\n      0x01\n        /* \"#utility.yul\":15765:15770   */\n      dup2\n        /* \"#utility.yul\":15761:15774   */\n      add\n        /* \"#utility.yul\":15752:15774   */\n      swap1\n      pop\n        /* \"#utility.yul\":15728:15848   */\n      jump(tag_450)\n    tag_452:\n        /* \"#utility.yul\":15668:15854   */\n      pop\n      pop\n      jump\t// out\n        /* \"#utility.yul\":15860:16403   */\n    tag_296:\n        /* \"#utility.yul\":15961:15963   */\n      0x1f\n        /* \"#utility.yul\":15956:15959   */\n      dup3\n        /* \"#utility.yul\":15953:15964   */\n      gt\n        /* \"#utility.yul\":15950:16396   */\n      iszero\n      tag_455\n      jumpi\n        /* \"#utility.yul\":15995:16033   */\n      tag_456\n        /* \"#utility.yul\":16027:16032   */\n      dup2\n        /* \"#utility.yul\":15995:16033   */\n      tag_285\n      jump\t// in\n    tag_456:\n        /* \"#utility.yul\":16079:16108   */\n      tag_457\n        /* \"#utility.yul\":16097:16107   */\n      dup5\n        /* \"#utility.yul\":16079:16108   */\n      tag_286\n      jump\t// in\n    tag_457:\n        /* \"#utility.yul\":16069:16077   */\n      dup2\n        /* \"#utility.yul\":16065:16109   */\n      add\n        /* \"#utility.yul\":16262:16264   */\n      0x20\n        /* \"#utility.yul\":16250:16260   */\n      dup6\n        /* \"#utility.yul\":16247:16265   */\n      lt\n        /* \"#utility.yul\":16244:16293   */\n      iszero\n      tag_458\n      jumpi\n        /* \"#utility.yul\":16283:16291   */\n      dup2\n        /* \"#utility.yul\":16268:16291   */\n      swap1\n      pop\n        /* \"#utility.yul\":16244:16293   */\n    tag_458:\n        /* \"#utility.yul\":16306:16386   */\n      tag_459\n        /* \"#utility.yul\":16362:16384   */\n      tag_460\n        /* \"#utility.yul\":16380:16383   */\n      dup6\n        /* \"#utility.yul\":16362:16384   */\n      tag_286\n      jump\t// in\n    tag_460:\n        /* \"#utility.yul\":16352:16360   */\n      dup4\n        /* \"#utility.yul\":16348:16385   */\n      add\n        /* \"#utility.yul\":16335:16346   */\n      dup3\n        /* \"#utility.yul\":16306:16386   */\n      tag_295\n      jump\t// in\n    tag_459:\n        /* \"#utility.yul\":15965:16396   */\n      pop\n      pop\n        /* \"#utility.yul\":15950:16396   */\n    tag_455:\n        /* \"#utility.yul\":15860:16403   */\n      pop\n      pop\n      pop\n      jump\t// out\n        /* \"#utility.yul\":16409:16526   */\n    tag_297:\n        /* \"#utility.yul\":16463:16471   */\n      0x00\n        /* \"#utility.yul\":16513:16518   */\n      dup3\n        /* \"#utility.yul\":16507:16511   */\n      dup3\n        /* \"#utility.yul\":16503:16519   */\n      shr\n        /* \"#utility.yul\":16482:16519   */\n      swap1\n      pop\n        /* \"#utility.yul\":16409:16526   */\n      swap3\n      swap2\n      pop\n      pop\n      jump\t// out\n        /* \"#utility.yul\":16532:16701   */\n    tag_298:\n        /* \"#utility.yul\":16576:16582   */\n      0x00\n        /* \"#utility.yul\":16609:16660   */\n      tag_463\n        /* \"#utility.yul\":16657:16658   */\n      0x00\n        /* \"#utility.yul\":16653:16659   */\n      not\n        /* \"#utility.yul\":16645:16650   */\n      dup5\n        /* \"#utility.yul\":16642:16643   */\n      0x08\n        /* \"#utility.yul\":16638:16651   */\n      mul\n        /* \"#utility.yul\":16609:16660   */\n      tag_297\n      jump\t// in\n    tag_463:\n        /* \"#utility.yul\":16605:16661   */\n      not\n        /* \"#utility.yul\":16690:16694   */\n      dup1\n        /* \"#utility.yul\":16684:16688   */\n      dup4\n        /* \"#utility.yul\":16680:16695   */\n      and\n        /* \"#utility.yul\":16670:16695   */\n      swap2\n      pop\n        /* \"#utility.yul\":16583:16701   */\n      pop\n        /* \"#utility.yul\":16532:16701   */\n      swap3\n      swap2\n      pop\n      pop\n      jump\t// out\n        /* \"#utility.yul\":16706:17001   */\n    tag_299:\n        /* \"#utility.yul\":16782:16786   */\n      0x00\n        /* \"#utility.yul\":16928:16957   */\n      tag_465\n        /* \"#utility.yul\":16953:16956   */\n      dup4\n        /* \"#utility.yul\":16947:16951   */\n      dup4\n        /* \"#utility.yul\":16928:16957   */\n      tag_298\n      jump\t// in\n    tag_465:\n        /* \"#utility.yul\":16920:16957   */\n      swap2\n      pop\n        /* \"#utility.yul\":16990:16993   */\n      dup3\n        /* \"#utility.yul\":16987:16988   */\n      0x02\n        /* \"#utility.yul\":16983:16994   */\n      mul\n        /* \"#utility.yul\":16977:16981   */\n      dup3\n        /* \"#utility.yul\":16974:16995   */\n      or\n        /* \"#utility.yul\":16966:16995   */\n      swap1\n      pop\n        /* \"#utility.yul\":16706:17001   */\n      swap3\n      swap2\n      pop\n      pop\n      jump\t// out\n        /* \"#utility.yul\":17006:18401   */\n    tag_188:\n        /* \"#utility.yul\":17123:17160   */\n      tag_467\n        /* \"#utility.yul\":17156:17159   */\n      dup3\n        /* \"#utility.yul\":17123:17160   */\n      tag_247\n      jump\t// in\n    tag_467:\n        /* \"#utility.yul\":17225:17243   */\n      0xffffffffffffffff\n        /* \"#utility.yul\":17217:17223   */\n      dup2\n        /* \"#utility.yul\":17214:17244   */\n      gt\n        /* \"#utility.yul\":17211:17267   */\n      iszero\n      tag_468\n      jumpi\n        /* \"#utility.yul\":17247:17265   */\n      tag_469\n      tag_284\n      jump\t// in\n    tag_469:\n        /* \"#utility.yul\":17211:17267   */\n    tag_468:\n        /* \"#utility.yul\":17291:17329   */\n      tag_470\n        /* \"#utility.yul\":17323:17327   */\n      dup3\n        /* \"#utility.yul\":17317:17328   */\n      sload\n        /* \"#utility.yul\":17291:17329   */\n      tag_97\n      jump\t// in\n    tag_470:\n        /* \"#utility.yul\":17376:17443   */\n      tag_471\n        /* \"#utility.yul\":17436:17442   */\n      dup3\n        /* \"#utility.yul\":17428:17434   */\n      dup3\n        /* \"#utility.yul\":17422:17426   */\n      dup6\n        /* \"#utility.yul\":17376:17443   */\n      tag_296\n      jump\t// in\n    tag_471:\n        /* \"#utility.yul\":17470:17471   */\n      0x00\n        /* \"#utility.yul\":17494:17498   */\n      0x20\n        /* \"#utility.yul\":17481:17498   */\n      swap1\n      pop\n        /* \"#utility.yul\":17526:17528   */\n      0x1f\n        /* \"#utility.yul\":17518:17524   */\n      dup4\n        /* \"#utility.yul\":17515:17529   */\n      gt\n        /* \"#utility.yul\":17543:17544   */\n      0x01\n        /* \"#utility.yul\":17538:18156   */\n      dup2\n      eq\n      tag_473\n      jumpi\n        /* \"#utility.yul\":18200:18201   */\n      0x00\n        /* \"#utility.yul\":18217:18223   */\n      dup5\n        /* \"#utility.yul\":18214:18291   */\n      iszero\n      tag_474\n      jumpi\n        /* \"#utility.yul\":18266:18275   */\n      dup3\n        /* \"#utility.yul\":18261:18264   */\n      dup8\n        /* \"#utility.yul\":18257:18276   */\n      add\n        /* \"#utility.yul\":18251:18277   */\n      mload\n        /* \"#utility.yul\":18242:18277   */\n      swap1\n      pop\n        /* \"#utility.yul\":18214:18291   */\n    tag_474:\n        /* \"#utility.yul\":18317:18384   */\n      tag_475\n        /* \"#utility.yul\":18377:18383   */\n      dup6\n        /* \"#utility.yul\":18370:18375   */\n      dup3\n        /* \"#utility.yul\":18317:18384   */\n      tag_299\n      jump\t// in\n    tag_475:\n        /* \"#utility.yul\":18311:18315   */\n      dup7\n        /* \"#utility.yul\":18304:18385   */\n      sstore\n        /* \"#utility.yul\":18173:18395   */\n      pop\n        /* \"#utility.yul\":17508:18395   */\n      jump(tag_472)\n        /* \"#utility.yul\":17538:18156   */\n    tag_473:\n        /* \"#utility.yul\":17590:17594   */\n      0x1f\n        /* \"#utility.yul\":17586:17595   */\n      not\n        /* \"#utility.yul\":17578:17584   */\n      dup5\n        /* \"#utility.yul\":17574:17596   */\n      and\n        /* \"#utility.yul\":17624:17661   */\n      tag_476\n        /* \"#utility.yul\":17656:17660   */\n      dup7\n        /* \"#utility.yul\":17624:17661   */\n      tag_285\n      jump\t// in\n    tag_476:\n        /* \"#utility.yul\":17683:17684   */\n      0x00\n        /* \"#utility.yul\":17697:17905   */\n    tag_477:\n        /* \"#utility.yul\":17711:17718   */\n      dup3\n        /* \"#utility.yul\":17708:17709   */\n      dup2\n        /* \"#utility.yul\":17705:17719   */\n      lt\n        /* \"#utility.yul\":17697:17905   */\n      iszero\n      tag_479\n      jumpi\n        /* \"#utility.yul\":17790:17799   */\n      dup5\n        /* \"#utility.yul\":17785:17788   */\n      dup10\n        /* \"#utility.yul\":17781:17800   */\n      add\n        /* \"#utility.yul\":17775:17801   */\n      mload\n        /* \"#utility.yul\":17767:17773   */\n      dup3\n        /* \"#utility.yul\":17760:17802   */\n      sstore\n        /* \"#utility.yul\":17841:17842   */\n      0x01\n        /* \"#utility.yul\":17833:17839   */\n      dup3\n        /* \"#utility.yul\":17829:17843   */\n      add\n        /* \"#utility.yul\":17819:17843   */\n      swap2\n      pop\n        /* \"#utility.yul\":17888:17890   */\n      0x20\n        /* \"#utility.yul\":17877:17886   */\n      dup6\n        /* \"#utility.yul\":17873:17891   */\n      add\n        /* \"#utility.yul\":17860:17891   */\n      swap5\n      pop\n        /* \"#utility.yul\":17734:17738   */\n      0x20\n        /* \"#utility.yul\":17731:17732   */\n      dup2\n        /* \"#utility.yul\":17727:17739   */\n      add\n        /* \"#utility.yul\":17722:17739   */\n      swap1\n      pop\n        /* \"#utility.yul\":17697:17905   */\n      jump(tag_477)\n    tag_479:\n        /* \"#utility.yul\":17933:17939   */\n      dup7\n        /* \"#utility.yul\":17924:17931   */\n      dup4\n        /* \"#utility.yul\":17921:17940   */\n      lt\n        /* \"#utility.yul\":17918:18097   */\n      iszero\n      tag_480\n      jumpi\n        /* \"#utility.yul\":17991:18000   */\n      dup5\n        /* \"#utility.yul\":17986:17989   */\n      dup10\n        /* \"#utility.yul\":17982:18001   */\n      add\n        /* \"#utility.yul\":17976:18002   */\n      mload\n        /* \"#utility.yul\":18034:18082   */\n      tag_481\n        /* \"#utility.yul\":18076:18080   */\n      0x1f\n        /* \"#utility.yul\":18068:18074   */\n      dup10\n        /* \"#utility.yul\":18064:18081   */\n      and\n        /* \"#utility.yul\":18053:18062   */\n      dup3\n        /* \"#utility.yul\":18034:18082   */\n      tag_298\n      jump\t// in\n    tag_481:\n        /* \"#utility.yul\":18026:18032   */\n      dup4\n        /* \"#utility.yul\":18019:18083   */\n      sstore\n        /* \"#utility.yul\":17941:18097   */\n      pop\n        /* \"#utility.yul\":17918:18097   */\n    tag_480:\n        /* \"#utility.yul\":18143:18144   */\n      0x01\n        /* \"#utility.yul\":18139:18140   */\n      0x02\n        /* \"#utility.yul\":18131:18137   */\n      dup9\n        /* \"#utility.yul\":18127:18141   */\n      mul\n        /* \"#utility.yul\":18123:18145   */\n      add\n        /* \"#utility.yul\":18117:18121   */\n      dup9\n        /* \"#utility.yul\":18110:18146   */\n      sstore\n        /* \"#utility.yul\":17545:18156   */\n      pop\n      pop\n      pop\n        /* \"#utility.yul\":17508:18395   */\n    tag_472:\n      pop\n        /* \"#utility.yul\":17098:18401   */\n      pop\n      pop\n      pop\n        /* \"#utility.yul\":17006:18401   */\n      pop\n      pop\n      jump\t// out\n        /* \"#utility.yul\":18407:18849   */\n    tag_206:\n        /* \"#utility.yul\":18556:18560   */\n      0x00\n        /* \"#utility.yul\":18594:18596   */\n      0x60\n        /* \"#utility.yul\":18583:18592   */\n      dup3\n        /* \"#utility.yul\":18579:18597   */\n      add\n        /* \"#utility.yul\":18571:18597   */\n      swap1\n      pop\n        /* \"#utility.yul\":18607:18678   */\n      tag_483\n        /* \"#utility.yul\":18675:18676   */\n      0x00\n        /* \"#utility.yul\":18664:18673   */\n      dup4\n        /* \"#utility.yul\":18660:18677   */\n      add\n        /* \"#utility.yul\":18651:18657   */\n      dup7\n        /* \"#utility.yul\":18607:18678   */\n      tag_277\n      jump\t// in\n    tag_483:\n        /* \"#utility.yul\":18688:18760   */\n      tag_484\n        /* \"#utility.yul\":18756:18758   */\n      0x20\n        /* \"#utility.yul\":18745:18754   */\n      dup4\n        /* \"#utility.yul\":18741:18759   */\n      add\n        /* \"#utility.yul\":18732:18738   */\n      dup6\n        /* \"#utility.yul\":18688:18760   */\n      tag_264\n      jump\t// in\n    tag_484:\n        /* \"#utility.yul\":18770:18842   */\n      tag_485\n        /* \"#utility.yul\":18838:18840   */\n      0x40\n        /* \"#utility.yul\":18827:18836   */\n      dup4\n        /* \"#utility.yul\":18823:18841   */\n      add\n        /* \"#utility.yul\":18814:18820   */\n      dup5\n        /* \"#utility.yul\":18770:18842   */\n      tag_264\n      jump\t// in\n    tag_485:\n        /* \"#utility.yul\":18407:18849   */\n      swap5\n      swap4\n      pop\n      pop\n      pop\n      pop\n      jump\t// out\n        /* \"#utility.yul\":18855:19046   */\n    tag_240:\n        /* \"#utility.yul\":18895:18898   */\n      0x00\n        /* \"#utility.yul\":18914:18934   */\n      tag_487\n        /* \"#utility.yul\":18932:18933   */\n      dup3\n        /* \"#utility.yul\":18914:18934   */\n      tag_259\n      jump\t// in\n    tag_487:\n        /* \"#utility.yul\":18909:18934   */\n      swap2\n      pop\n        /* \"#utility.yul\":18948:18968   */\n      tag_488\n        /* \"#utility.yul\":18966:18967   */\n      dup4\n        /* \"#utility.yul\":18948:18968   */\n      tag_259\n      jump\t// in\n    tag_488:\n        /* \"#utility.yul\":18943:18968   */\n      swap3\n      pop\n        /* \"#utility.yul\":18991:18992   */\n      dup3\n        /* \"#utility.yul\":18988:18989   */\n      dup3\n        /* \"#utility.yul\":18984:18993   */\n      add\n        /* \"#utility.yul\":18977:18993   */\n      swap1\n      pop\n        /* \"#utility.yul\":19012:19015   */\n      dup1\n        /* \"#utility.yul\":19009:19010   */\n      dup3\n        /* \"#utility.yul\":19006:19016   */\n      gt\n        /* \"#utility.yul\":19003:19039   */\n      iszero\n      tag_489\n      jumpi\n        /* \"#utility.yul\":19019:19037   */\n      tag_490\n      tag_281\n      jump\t// in\n    tag_490:\n        /* \"#utility.yul\":19003:19039   */\n    tag_489:\n        /* \"#utility.yul\":18855:19046   */\n      swap3\n      swap2\n      pop\n      pop\n      jump\t// out\n\n    auxdata: 0xa264697066735822122030f5c63ec857f443a371312851564ba2bd50b4302d4559b056062b843574529164736f6c634300081a0033\n}\n",
				"bytecode": {
					"linkReferences": {},
					"object": "608060405234801561000f575f80fd5b5060405161260f38038061260f833981810160405281019061003191906104f7565b806040518060400160405280600981526020017f466f6f64546f6b656e00000000000000000000000000000000000000000000008152506040518060400160405280600481526020017f464f4f440000000000000000000000000000000000000000000000000000000081525081600390816100ad919061075c565b5080600490816100bd919061075c565b5050505f73ffffffffffffffffffffffffffffffffffffffff168173ffffffffffffffffffffffffffffffffffffffff1603610130575f6040517f1e4fbdf7000000000000000000000000000000000000000000000000000000008152600401610127919061083a565b60405180910390fd5b61013f816103d660201b60201c565b5060066040518060600160405280600181526020016040518060400160405280600581526020017f50697a7a610000000000000000000000000000000000000000000000000000008152508152602001600a815250908060018154018082558091505060019003905f5260205f2090600302015f909190919091505f820151815f015560208201518160010190816101d7919061075c565b5060408201518160020155505060066040518060600160405280600281526020016040518060400160405280600681526020017f42757267657200000000000000000000000000000000000000000000000000008152508152602001600f815250908060018154018082558091505060019003905f5260205f2090600302015f909190919091505f820151815f0155602082015181600101908161027b919061075c565b5060408201518160020155505060066040518060600160405280600381526020016040518060400160405280600581526020017f537573686900000000000000000000000000000000000000000000000000000081525081526020016019815250908060018154018082558091505060019003905f5260205f2090600302015f909190919091505f820151815f0155602082015181600101908161031f919061075c565b5060408201518160020155505060066040518060600160405280600481526020016040518060400160405280600581526020017f537465616b00000000000000000000000000000000000000000000000000000081525081526020016032815250908060018154018082558091505060019003905f5260205f2090600302015f909190919091505f820151815f015560208201518160010190816103c3919061075c565b5060408201518160020155505050610853565b5f60055f9054906101000a900473ffffffffffffffffffffffffffffffffffffffff1690508160055f6101000a81548173ffffffffffffffffffffffffffffffffffffffff021916908373ffffffffffffffffffffffffffffffffffffffff1602179055508173ffffffffffffffffffffffffffffffffffffffff168173ffffffffffffffffffffffffffffffffffffffff167f8be0079c531659141344cd1fd0a4f28419497f9722a3daafe3b4186f6b6457e060405160405180910390a35050565b5f80fd5b5f73ffffffffffffffffffffffffffffffffffffffff82169050919050565b5f6104c68261049d565b9050919050565b6104d6816104bc565b81146104e0575f80fd5b50565b5f815190506104f1816104cd565b92915050565b5f6020828403121561050c5761050b610499565b5b5f610519848285016104e3565b91505092915050565b5f81519050919050565b7f4e487b71000000000000000000000000000000000000000000000000000000005f52604160045260245ffd5b7f4e487b71000000000000000000000000000000000000000000000000000000005f52602260045260245ffd5b5f600282049050600182168061059d57607f821691505b6020821081036105b0576105af610559565b5b50919050565b5f819050815f5260205f209050919050565b5f6020601f8301049050919050565b5f82821b905092915050565b5f600883026106127fffffffffffffffffffffffffffffffffffffffffffffffffffffffffffffffff826105d7565b61061c86836105d7565b95508019841693508086168417925050509392505050565b5f819050919050565b5f819050919050565b5f61066061065b61065684610634565b61063d565b610634565b9050919050565b5f819050919050565b61067983610646565b61068d61068582610667565b8484546105e3565b825550505050565b5f90565b6106a1610695565b6106ac818484610670565b505050565b5b818110156106cf576106c45f82610699565b6001810190506106b2565b5050565b601f821115610714576106e5816105b6565b6106ee846105c8565b810160208510156106fd578190505b610711610709856105c8565b8301826106b1565b50505b505050565b5f82821c905092915050565b5f6107345f1984600802610719565b1980831691505092915050565b5f61074c8383610725565b9150826002028217905092915050565b61076582610522565b67ffffffffffffffff81111561077e5761077d61052c565b5b6107888254610586565b6107938282856106d3565b5f60209050601f8311600181146107c4575f84156107b2578287015190505b6107bc8582610741565b865550610823565b601f1984166107d2866105b6565b5f5b828110156107f9578489015182556001820191506020850194506020810190506107d4565b868310156108165784890151610812601f891682610725565b8355505b6001600288020188555050505b505050505050565b610834816104bc565b82525050565b5f60208201905061084d5f83018461082b565b92915050565b611daf806108605f395ff3fe608060405234801561000f575f80fd5b5060043610610114575f3560e01c8063715018a6116100a057806395d89b411161006f57806395d89b41146102d0578063a9059cbb146102ee578063db006a751461031e578063dd62ed3e1461033a578063f2fde38b1461036a57610114565b8063715018a61461026c578063734e450d146102765780638cffa21c146102945780638da5cb5b146102b257610114565b806323b872dd116100e757806323b872dd146101b6578063313ce567146101e657806340c10f191461020457806342966c681461022057806370a082311461023c57610114565b806306fdde0314610118578063095ea7b3146101365780630ac52e651461016657806318160ddd14610198575b5f80fd5b610120610386565b60405161012d9190611479565b60405180910390f35b610150600480360381019061014b919061152a565b610416565b60405161015d9190611582565b60405180910390f35b610180600480360381019061017b919061159b565b610438565b60405161018f939291906115d5565b60405180910390f35b6101a06104f3565b6040516101ad9190611611565b60405180910390f35b6101d060048036038101906101cb919061162a565b6104fc565b6040516101dd9190611582565b60405180910390f35b6101ee61052a565b6040516101fb9190611695565b60405180910390f35b61021e6004803603810190610219919061152a565b61052e565b005b61023a6004803603810190610235919061159b565b610544565b005b610256600480360381019061025191906116ae565b610551565b6040516102639190611611565b60405180910390f35b610274610596565b005b61027e6105a9565b60405161028b9190611838565b60405180910390f35b61029c6106a8565b6040516102a99190611838565b60405180910390f35b6102ba6107e2565b6040516102c79190611867565b60405180910390f35b6102d861080a565b6040516102e59190611479565b60405180910390f35b6103086004803603810190610303919061152a565b61089a565b6040516103159190611582565b60405180910390f35b6103386004803603810190610333919061159b565b6108bc565b005b610354600480360381019061034f9190611880565b610b38565b6040516103619190611611565b60405180910390f35b610384600480360381019061037f91906116ae565b610bba565b005b606060038054610395906118eb565b80601f01602080910402602001604051908101604052809291908181526020018280546103c1906118eb565b801561040c5780601f106103e35761010080835404028352916020019161040c565b820191905f5260205f20905b8154815290600101906020018083116103ef57829003601f168201915b5050505050905090565b5f80610420610c3e565b905061042d818585610c45565b600191505092915050565b60068181548110610447575f80fd5b905f5260205f2090600302015f91509050805f01549080600101805461046c906118eb565b80601f0160208091040260200160405190810160405280929190818152602001828054610498906118eb565b80156104e35780601f106104ba576101008083540402835291602001916104e3565b820191905f5260205f20905b8154815290600101906020018083116104c657829003601f168201915b5050505050908060020154905083565b5f600254905090565b5f80610506610c3e565b9050610513858285610c57565b61051e858585610ce9565b60019150509392505050565b5f90565b610536610dd9565b6105408282610e60565b5050565b61054e3382610edf565b50565b5f805f8373ffffffffffffffffffffffffffffffffffffffff1673ffffffffffffffffffffffffffffffffffffffff1681526020019081526020015f20549050919050565b61059e610dd9565b6105a75f610f5e565b565b60606006805480602002602001604051908101604052809291908181526020015f905b8282101561069f578382905f5260205f2090600302016040518060600160405290815f8201548152602001600182018054610606906118eb565b80601f0160208091040260200160405190810160405280929190818152602001828054610632906118eb565b801561067d5780601f106106545761010080835404028352916020019161067d565b820191905f5260205f20905b81548152906001019060200180831161066057829003601f168201915b50505050508152602001600282015481525050815260200190600101906105cc565b50505050905090565b606060075f3373ffffffffffffffffffffffffffffffffffffffff1673ffffffffffffffffffffffffffffffffffffffff1681526020019081526020015f20805480602002602001604051908101604052809291908181526020015f905b828210156107d9578382905f5260205f2090600302016040518060600160405290815f8201548152602001600182018054610740906118eb565b80601f016020809104026020016040519081016040528092919081815260200182805461076c906118eb565b80156107b75780601f1061078e576101008083540402835291602001916107b7565b820191905f5260205f20905b81548152906001019060200180831161079a57829003601f168201915b5050505050815260200160028201548152505081526020019060010190610706565b50505050905090565b5f60055f9054906101000a900473ffffffffffffffffffffffffffffffffffffffff16905090565b606060048054610819906118eb565b80601f0160208091040260200160405190810160405280929190818152602001828054610845906118eb565b80156108905780601f1061086757610100808354040283529160200191610890565b820191905f5260205f20905b81548152906001019060200180831161087357829003601f168201915b5050505050905090565b5f806108a4610c3e565b90506108b1818585610ce9565b600191505092915050565b5f811180156108d057506006805490508111155b61090f576040517f08c379a000000000000000000000000000000000000000000000000000000000815260040161090690611965565b60405180910390fd5b5f600660018361091f91906119b0565b815481106109305761092f6119e3565b5b905f5260205f2090600302016040518060600160405290815f8201548152602001600182018054610960906118eb565b80601f016020809104026020016040519081016040528092919081815260200182805461098c906118eb565b80156109d75780601f106109ae576101008083540402835291602001916109d7565b820191905f5260205f20905b8154815290600101906020018083116109ba57829003601f168201915b50505050508152602001600282015481525050905080604001516109fa33610551565b1015610a3b576040517f08c379a0000000000000000000000000000000000000000000000000000000008152600401610a3290611a5a565b60405180910390fd5b610a49338260400151610edf565b60075f3373ffffffffffffffffffffffffffffffffffffffff1673ffffffffffffffffffffffffffffffffffffffff1681526020019081526020015f2081908060018154018082558091505060019003905f5260205f2090600302015f909190919091505f820151815f01556020820151816001019081610aca9190611c42565b506040820151816002015550503373ffffffffffffffffffffffffffffffffffffffff167f2748aed474e8b2615b65f003a5fac4b64d8c9eb9c911daf175b6103f3802cd4c825f015183602001518460400151604051610b2c939291906115d5565b60405180910390a25050565b5f60015f8473ffffffffffffffffffffffffffffffffffffffff1673ffffffffffffffffffffffffffffffffffffffff1681526020019081526020015f205f8373ffffffffffffffffffffffffffffffffffffffff1673ffffffffffffffffffffffffffffffffffffffff1681526020019081526020015f2054905092915050565b610bc2610dd9565b5f73ffffffffffffffffffffffffffffffffffffffff168173ffffffffffffffffffffffffffffffffffffffff1603610c32575f6040517f1e4fbdf7000000000000000000000000000000000000000000000000000000008152600401610c299190611867565b60405180910390fd5b610c3b81610f5e565b50565b5f33905090565b610c528383836001611021565b505050565b5f610c628484610b38565b90507fffffffffffffffffffffffffffffffffffffffffffffffffffffffffffffffff8114610ce35781811015610cd4578281836040517ffb8f41b2000000000000000000000000000000000000000000000000000000008152600401610ccb93929190611d11565b60405180910390fd5b610ce284848484035f611021565b5b50505050565b5f73ffffffffffffffffffffffffffffffffffffffff168373ffffffffffffffffffffffffffffffffffffffff1603610d59575f6040517f96c6fd1e000000000000000000000000000000000000000000000000000000008152600401610d509190611867565b60405180910390fd5b5f73ffffffffffffffffffffffffffffffffffffffff168273ffffffffffffffffffffffffffffffffffffffff1603610dc9575f6040517fec442f05000000000000000000000000000000000000000000000000000000008152600401610dc09190611867565b60405180910390fd5b610dd48383836111f0565b505050565b610de1610c3e565b73ffffffffffffffffffffffffffffffffffffffff16610dff6107e2565b73ffffffffffffffffffffffffffffffffffffffff1614610e5e57610e22610c3e565b6040517f118cdaa7000000000000000000000000000000000000000000000000000000008152600401610e559190611867565b60405180910390fd5b565b5f73ffffffffffffffffffffffffffffffffffffffff168273ffffffffffffffffffffffffffffffffffffffff1603610ed0575f6040517fec442f05000000000000000000000000000000000000000000000000000000008152600401610ec79190611867565b60405180910390fd5b610edb5f83836111f0565b5050565b5f73ffffffffffffffffffffffffffffffffffffffff168273ffffffffffffffffffffffffffffffffffffffff1603610f4f575f6040517f96c6fd1e000000000000000000000000000000000000000000000000000000008152600401610f469190611867565b60405180910390fd5b610f5a825f836111f0565b5050565b5f60055f9054906101000a900473ffffffffffffffffffffffffffffffffffffffff1690508160055f6101000a81548173ffffffffffffffffffffffffffffffffffffffff021916908373ffffffffffffffffffffffffffffffffffffffff1602179055508173ffffffffffffffffffffffffffffffffffffffff168173ffffffffffffffffffffffffffffffffffffffff167f8be0079c531659141344cd1fd0a4f28419497f9722a3daafe3b4186f6b6457e060405160405180910390a35050565b5f73ffffffffffffffffffffffffffffffffffffffff168473ffffffffffffffffffffffffffffffffffffffff1603611091575f6040517fe602df050000000000000000000000000000000000000000000000000000000081526004016110889190611867565b60405180910390fd5b5f73ffffffffffffffffffffffffffffffffffffffff168373ffffffffffffffffffffffffffffffffffffffff1603611101575f6040517f94280d620000000000000000000000000000000000000000000000000000000081526004016110f89190611867565b60405180910390fd5b8160015f8673ffffffffffffffffffffffffffffffffffffffff1673ffffffffffffffffffffffffffffffffffffffff1681526020019081526020015f205f8573ffffffffffffffffffffffffffffffffffffffff1673ffffffffffffffffffffffffffffffffffffffff1681526020019081526020015f208190555080156111ea578273ffffffffffffffffffffffffffffffffffffffff168473ffffffffffffffffffffffffffffffffffffffff167f8c5be1e5ebec7d5bd14f71427d1e84f3dd0314c0f7b2291e5b200ac8c7c3b925846040516111e19190611611565b60405180910390a35b50505050565b5f73ffffffffffffffffffffffffffffffffffffffff168373ffffffffffffffffffffffffffffffffffffffff1603611240578060025f8282546112349190611d46565b9250508190555061130e565b5f805f8573ffffffffffffffffffffffffffffffffffffffff1673ffffffffffffffffffffffffffffffffffffffff1681526020019081526020015f20549050818110156112c9578381836040517fe450d38c0000000000000000000000000000000000000000000000000000000081526004016112c093929190611d11565b60405180910390fd5b8181035f808673ffffffffffffffffffffffffffffffffffffffff1673ffffffffffffffffffffffffffffffffffffffff1681526020019081526020015f2081905550505b5f73ffffffffffffffffffffffffffffffffffffffff168273ffffffffffffffffffffffffffffffffffffffff1603611355578060025f828254039250508190555061139f565b805f808473ffffffffffffffffffffffffffffffffffffffff1673ffffffffffffffffffffffffffffffffffffffff1681526020019081526020015f205f82825401925050819055505b8173ffffffffffffffffffffffffffffffffffffffff168373ffffffffffffffffffffffffffffffffffffffff167fddf252ad1be2c89b69c2b068fc378daa952ba7f163c4a11628f55a4df523b3ef836040516113fc9190611611565b60405180910390a3505050565b5f81519050919050565b5f82825260208201905092915050565b8281835e5f83830152505050565b5f601f19601f8301169050919050565b5f61144b82611409565b6114558185611413565b9350611465818560208601611423565b61146e81611431565b840191505092915050565b5f6020820190508181035f8301526114918184611441565b905092915050565b5f80fd5b5f73ffffffffffffffffffffffffffffffffffffffff82169050919050565b5f6114c68261149d565b9050919050565b6114d6816114bc565b81146114e0575f80fd5b50565b5f813590506114f1816114cd565b92915050565b5f819050919050565b611509816114f7565b8114611513575f80fd5b50565b5f8135905061152481611500565b92915050565b5f80604083850312156115405761153f611499565b5b5f61154d858286016114e3565b925050602061155e85828601611516565b9150509250929050565b5f8115159050919050565b61157c81611568565b82525050565b5f6020820190506115955f830184611573565b92915050565b5f602082840312156115b0576115af611499565b5b5f6115bd84828501611516565b91505092915050565b6115cf816114f7565b82525050565b5f6060820190506115e85f8301866115c6565b81810360208301526115fa8185611441565b905061160960408301846115c6565b949350505050565b5f6020820190506116245f8301846115c6565b92915050565b5f805f6060848603121561164157611640611499565b5b5f61164e868287016114e3565b935050602061165f868287016114e3565b925050604061167086828701611516565b9150509250925092565b5f60ff82169050919050565b61168f8161167a565b82525050565b5f6020820190506116a85f830184611686565b92915050565b5f602082840312156116c3576116c2611499565b5b5f6116d0848285016114e3565b91505092915050565b5f81519050919050565b5f82825260208201905092915050565b5f819050602082019050919050565b61170b816114f7565b82525050565b5f82825260208201905092915050565b5f61172b82611409565b6117358185611711565b9350611745818560208601611423565b61174e81611431565b840191505092915050565b5f606083015f83015161176e5f860182611702565b50602083015184820360208601526117868282611721565b915050604083015161179b6040860182611702565b508091505092915050565b5f6117b18383611759565b905092915050565b5f602082019050919050565b5f6117cf826116d9565b6117d981856116e3565b9350836020820285016117eb856116f3565b805f5b85811015611826578484038952815161180785826117a6565b9450611812836117b9565b925060208a019950506001810190506117ee565b50829750879550505050505092915050565b5f6020820190508181035f83015261185081846117c5565b905092915050565b611861816114bc565b82525050565b5f60208201905061187a5f830184611858565b92915050565b5f806040838503121561189657611895611499565b5b5f6118a3858286016114e3565b92505060206118b4858286016114e3565b9150509250929050565b7f4e487b71000000000000000000000000000000000000000000000000000000005f52602260045260245ffd5b5f600282049050600182168061190257607f821691505b602082108103611915576119146118be565b5b50919050565b7f496e76616c6964206974656d20494400000000000000000000000000000000005f82015250565b5f61194f600f83611413565b915061195a8261191b565b602082019050919050565b5f6020820190508181035f83015261197c81611943565b9050919050565b7f4e487b71000000000000000000000000000000000000000000000000000000005f52601160045260245ffd5b5f6119ba826114f7565b91506119c5836114f7565b92508282039050818111156119dd576119dc611983565b5b92915050565b7f4e487b71000000000000000000000000000000000000000000000000000000005f52603260045260245ffd5b7f496e73756666696369656e7420746f6b656e73000000000000000000000000005f82015250565b5f611a44601383611413565b9150611a4f82611a10565b602082019050919050565b5f6020820190508181035f830152611a7181611a38565b9050919050565b7f4e487b71000000000000000000000000000000000000000000000000000000005f52604160045260245ffd5b5f819050815f5260205f209050919050565b5f6020601f8301049050919050565b5f82821b905092915050565b5f60088302611b017fffffffffffffffffffffffffffffffffffffffffffffffffffffffffffffffff82611ac6565b611b0b8683611ac6565b95508019841693508086168417925050509392505050565b5f819050919050565b5f611b46611b41611b3c846114f7565b611b23565b6114f7565b9050919050565b5f819050919050565b611b5f83611b2c565b611b73611b6b82611b4d565b848454611ad2565b825550505050565b5f90565b611b87611b7b565b611b92818484611b56565b505050565b5b81811015611bb557611baa5f82611b7f565b600181019050611b98565b5050565b601f821115611bfa57611bcb81611aa5565b611bd484611ab7565b81016020851015611be3578190505b611bf7611bef85611ab7565b830182611b97565b50505b505050565b5f82821c905092915050565b5f611c1a5f1984600802611bff565b1980831691505092915050565b5f611c328383611c0b565b9150826002028217905092915050565b611c4b82611409565b67ffffffffffffffff811115611c6457611c63611a78565b5b611c6e82546118eb565b611c79828285611bb9565b5f60209050601f831160018114611caa575f8415611c98578287015190505b611ca28582611c27565b865550611d09565b601f198416611cb886611aa5565b5f5b82811015611cdf57848901518255600182019150602085019450602081019050611cba565b86831015611cfc5784890151611cf8601f891682611c0b565b8355505b6001600288020188555050505b505050505050565b5f606082019050611d245f830186611858565b611d3160208301856115c6565b611d3e60408301846115c6565b949350505050565b5f611d50826114f7565b9150611d5b836114f7565b9250828201905080821115611d7357611d72611983565b5b9291505056fea264697066735822122030f5c63ec857f443a371312851564ba2bd50b4302d4559b056062b843574529164736f6c634300081a0033",
					"opcodes": "PUSH1 0x80 PUSH1 0x40 MSTORE CALLVALUE DUP1 ISZERO PUSH2 0xF JUMPI PUSH0 DUP1 REVERT JUMPDEST POP PUSH1 0x40 MLOAD PUSH2 0x260F CODESIZE SUB DUP1 PUSH2 0x260F DUP4 CODECOPY DUP2 DUP2 ADD PUSH1 0x40 MSTORE DUP2 ADD SWAP1 PUSH2 0x31 SWAP2 SWAP1 PUSH2 0x4F7 JUMP JUMPDEST DUP1 PUSH1 0x40 MLOAD DUP1 PUSH1 0x40 ADD PUSH1 0x40 MSTORE DUP1 PUSH1 0x9 DUP2 MSTORE PUSH1 0x20 ADD PUSH32 0x466F6F64546F6B656E0000000000000000000000000000000000000000000000 DUP2 MSTORE POP PUSH1 0x40 MLOAD DUP1 PUSH1 0x40 ADD PUSH1 0x40 MSTORE DUP1 PUSH1 0x4 DUP2 MSTORE PUSH1 0x20 ADD PUSH32 0x464F4F4400000000000000000000000000000000000000000000000000000000 DUP2 MSTORE POP DUP2 PUSH1 0x3 SWAP1 DUP2 PUSH2 0xAD SWAP2 SWAP1 PUSH2 0x75C JUMP JUMPDEST POP DUP1 PUSH1 0x4 SWAP1 DUP2 PUSH2 0xBD SWAP2 SWAP1 PUSH2 0x75C JUMP JUMPDEST POP POP POP PUSH0 PUSH20 0xFFFFFFFFFFFFFFFFFFFFFFFFFFFFFFFFFFFFFFFF AND DUP2 PUSH20 0xFFFFFFFFFFFFFFFFFFFFFFFFFFFFFFFFFFFFFFFF AND SUB PUSH2 0x130 JUMPI PUSH0 PUSH1 0x40 MLOAD PUSH32 0x1E4FBDF700000000000000000000000000000000000000000000000000000000 DUP2 MSTORE PUSH1 0x4 ADD PUSH2 0x127 SWAP2 SWAP1 PUSH2 0x83A JUMP JUMPDEST PUSH1 0x40 MLOAD DUP1 SWAP2 SUB SWAP1 REVERT JUMPDEST PUSH2 0x13F DUP2 PUSH2 0x3D6 PUSH1 0x20 SHL PUSH1 0x20 SHR JUMP JUMPDEST POP PUSH1 0x6 PUSH1 0x40 MLOAD DUP1 PUSH1 0x60 ADD PUSH1 0x40 MSTORE DUP1 PUSH1 0x1 DUP2 MSTORE PUSH1 0x20 ADD PUSH1 0x40 MLOAD DUP1 PUSH1 0x40 ADD PUSH1 0x40 MSTORE DUP1 PUSH1 0x5 DUP2 MSTORE PUSH1 0x20 ADD PUSH32 0x50697A7A61000000000000000000000000000000000000000000000000000000 DUP2 MSTORE POP DUP2 MSTORE PUSH1 0x20 ADD PUSH1 0xA DUP2 MSTORE POP SWAP1 DUP1 PUSH1 0x1 DUP2 SLOAD ADD DUP1 DUP3 SSTORE DUP1 SWAP2 POP POP PUSH1 0x1 SWAP1 SUB SWAP1 PUSH0 MSTORE PUSH1 0x20 PUSH0 KECCAK256 SWAP1 PUSH1 0x3 MUL ADD PUSH0 SWAP1 SWAP2 SWAP1 SWAP2 SWAP1 SWAP2 POP PUSH0 DUP3 ADD MLOAD DUP2 PUSH0 ADD SSTORE PUSH1 0x20 DUP3 ADD MLOAD DUP2 PUSH1 0x1 ADD SWAP1 DUP2 PUSH2 0x1D7 SWAP2 SWAP1 PUSH2 0x75C JUMP JUMPDEST POP PUSH1 0x40 DUP3 ADD MLOAD DUP2 PUSH1 0x2 ADD SSTORE POP POP PUSH1 0x6 PUSH1 0x40 MLOAD DUP1 PUSH1 0x60 ADD PUSH1 0x40 MSTORE DUP1 PUSH1 0x2 DUP2 MSTORE PUSH1 0x20 ADD PUSH1 0x40 MLOAD DUP1 PUSH1 0x40 ADD PUSH1 0x40 MSTORE DUP1 PUSH1 0x6 DUP2 MSTORE PUSH1 0x20 ADD PUSH32 0x4275726765720000000000000000000000000000000000000000000000000000 DUP2 MSTORE POP DUP2 MSTORE PUSH1 0x20 ADD PUSH1 0xF DUP2 MSTORE POP SWAP1 DUP1 PUSH1 0x1 DUP2 SLOAD ADD DUP1 DUP3 SSTORE DUP1 SWAP2 POP POP PUSH1 0x1 SWAP1 SUB SWAP1 PUSH0 MSTORE PUSH1 0x20 PUSH0 KECCAK256 SWAP1 PUSH1 0x3 MUL ADD PUSH0 SWAP1 SWAP2 SWAP1 SWAP2 SWAP1 SWAP2 POP PUSH0 DUP3 ADD MLOAD DUP2 PUSH0 ADD SSTORE PUSH1 0x20 DUP3 ADD MLOAD DUP2 PUSH1 0x1 ADD SWAP1 DUP2 PUSH2 0x27B SWAP2 SWAP1 PUSH2 0x75C JUMP JUMPDEST POP PUSH1 0x40 DUP3 ADD MLOAD DUP2 PUSH1 0x2 ADD SSTORE POP POP PUSH1 0x6 PUSH1 0x40 MLOAD DUP1 PUSH1 0x60 ADD PUSH1 0x40 MSTORE DUP1 PUSH1 0x3 DUP2 MSTORE PUSH1 0x20 ADD PUSH1 0x40 MLOAD DUP1 PUSH1 0x40 ADD PUSH1 0x40 MSTORE DUP1 PUSH1 0x5 DUP2 MSTORE PUSH1 0x20 ADD PUSH32 0x5375736869000000000000000000000000000000000000000000000000000000 DUP2 MSTORE POP DUP2 MSTORE PUSH1 0x20 ADD PUSH1 0x19 DUP2 MSTORE POP SWAP1 DUP1 PUSH1 0x1 DUP2 SLOAD ADD DUP1 DUP3 SSTORE DUP1 SWAP2 POP POP PUSH1 0x1 SWAP1 SUB SWAP1 PUSH0 MSTORE PUSH1 0x20 PUSH0 KECCAK256 SWAP1 PUSH1 0x3 MUL ADD PUSH0 SWAP1 SWAP2 SWAP1 SWAP2 SWAP1 SWAP2 POP PUSH0 DUP3 ADD MLOAD DUP2 PUSH0 ADD SSTORE PUSH1 0x20 DUP3 ADD MLOAD DUP2 PUSH1 0x1 ADD SWAP1 DUP2 PUSH2 0x31F SWAP2 SWAP1 PUSH2 0x75C JUMP JUMPDEST POP PUSH1 0x40 DUP3 ADD MLOAD DUP2 PUSH1 0x2 ADD SSTORE POP POP PUSH1 0x6 PUSH1 0x40 MLOAD DUP1 PUSH1 0x60 ADD PUSH1 0x40 MSTORE DUP1 PUSH1 0x4 DUP2 MSTORE PUSH1 0x20 ADD PUSH1 0x40 MLOAD DUP1 PUSH1 0x40 ADD PUSH1 0x40 MSTORE DUP1 PUSH1 0x5 DUP2 MSTORE PUSH1 0x20 ADD PUSH32 0x537465616B000000000000000000000000000000000000000000000000000000 DUP2 MSTORE POP DUP2 MSTORE PUSH1 0x20 ADD PUSH1 0x32 DUP2 MSTORE POP SWAP1 DUP1 PUSH1 0x1 DUP2 SLOAD ADD DUP1 DUP3 SSTORE DUP1 SWAP2 POP POP PUSH1 0x1 SWAP1 SUB SWAP1 PUSH0 MSTORE PUSH1 0x20 PUSH0 KECCAK256 SWAP1 PUSH1 0x3 MUL ADD PUSH0 SWAP1 SWAP2 SWAP1 SWAP2 SWAP1 SWAP2 POP PUSH0 DUP3 ADD MLOAD DUP2 PUSH0 ADD SSTORE PUSH1 0x20 DUP3 ADD MLOAD DUP2 PUSH1 0x1 ADD SWAP1 DUP2 PUSH2 0x3C3 SWAP2 SWAP1 PUSH2 0x75C JUMP JUMPDEST POP PUSH1 0x40 DUP3 ADD MLOAD DUP2 PUSH1 0x2 ADD SSTORE POP POP POP PUSH2 0x853 JUMP JUMPDEST PUSH0 PUSH1 0x5 PUSH0 SWAP1 SLOAD SWAP1 PUSH2 0x100 EXP SWAP1 DIV PUSH20 0xFFFFFFFFFFFFFFFFFFFFFFFFFFFFFFFFFFFFFFFF AND SWAP1 POP DUP2 PUSH1 0x5 PUSH0 PUSH2 0x100 EXP DUP2 SLOAD DUP2 PUSH20 0xFFFFFFFFFFFFFFFFFFFFFFFFFFFFFFFFFFFFFFFF MUL NOT AND SWAP1 DUP4 PUSH20 0xFFFFFFFFFFFFFFFFFFFFFFFFFFFFFFFFFFFFFFFF AND MUL OR SWAP1 SSTORE POP DUP2 PUSH20 0xFFFFFFFFFFFFFFFFFFFFFFFFFFFFFFFFFFFFFFFF AND DUP2 PUSH20 0xFFFFFFFFFFFFFFFFFFFFFFFFFFFFFFFFFFFFFFFF AND PUSH32 0x8BE0079C531659141344CD1FD0A4F28419497F9722A3DAAFE3B4186F6B6457E0 PUSH1 0x40 MLOAD PUSH1 0x40 MLOAD DUP1 SWAP2 SUB SWAP1 LOG3 POP POP JUMP JUMPDEST PUSH0 DUP1 REVERT JUMPDEST PUSH0 PUSH20 0xFFFFFFFFFFFFFFFFFFFFFFFFFFFFFFFFFFFFFFFF DUP3 AND SWAP1 POP SWAP2 SWAP1 POP JUMP JUMPDEST PUSH0 PUSH2 0x4C6 DUP3 PUSH2 0x49D JUMP JUMPDEST SWAP1 POP SWAP2 SWAP1 POP JUMP JUMPDEST PUSH2 0x4D6 DUP2 PUSH2 0x4BC JUMP JUMPDEST DUP2 EQ PUSH2 0x4E0 JUMPI PUSH0 DUP1 REVERT JUMPDEST POP JUMP JUMPDEST PUSH0 DUP2 MLOAD SWAP1 POP PUSH2 0x4F1 DUP2 PUSH2 0x4CD JUMP JUMPDEST SWAP3 SWAP2 POP POP JUMP JUMPDEST PUSH0 PUSH1 0x20 DUP3 DUP5 SUB SLT ISZERO PUSH2 0x50C JUMPI PUSH2 0x50B PUSH2 0x499 JUMP JUMPDEST JUMPDEST PUSH0 PUSH2 0x519 DUP5 DUP3 DUP6 ADD PUSH2 0x4E3 JUMP JUMPDEST SWAP2 POP POP SWAP3 SWAP2 POP POP JUMP JUMPDEST PUSH0 DUP2 MLOAD SWAP1 POP SWAP2 SWAP1 POP JUMP JUMPDEST PUSH32 0x4E487B7100000000000000000000000000000000000000000000000000000000 PUSH0 MSTORE PUSH1 0x41 PUSH1 0x4 MSTORE PUSH1 0x24 PUSH0 REVERT JUMPDEST PUSH32 0x4E487B7100000000000000000000000000000000000000000000000000000000 PUSH0 MSTORE PUSH1 0x22 PUSH1 0x4 MSTORE PUSH1 0x24 PUSH0 REVERT JUMPDEST PUSH0 PUSH1 0x2 DUP3 DIV SWAP1 POP PUSH1 0x1 DUP3 AND DUP1 PUSH2 0x59D JUMPI PUSH1 0x7F DUP3 AND SWAP2 POP JUMPDEST PUSH1 0x20 DUP3 LT DUP2 SUB PUSH2 0x5B0 JUMPI PUSH2 0x5AF PUSH2 0x559 JUMP JUMPDEST JUMPDEST POP SWAP2 SWAP1 POP JUMP JUMPDEST PUSH0 DUP2 SWAP1 POP DUP2 PUSH0 MSTORE PUSH1 0x20 PUSH0 KECCAK256 SWAP1 POP SWAP2 SWAP1 POP JUMP JUMPDEST PUSH0 PUSH1 0x20 PUSH1 0x1F DUP4 ADD DIV SWAP1 POP SWAP2 SWAP1 POP JUMP JUMPDEST PUSH0 DUP3 DUP3 SHL SWAP1 POP SWAP3 SWAP2 POP POP JUMP JUMPDEST PUSH0 PUSH1 0x8 DUP4 MUL PUSH2 0x612 PUSH32 0xFFFFFFFFFFFFFFFFFFFFFFFFFFFFFFFFFFFFFFFFFFFFFFFFFFFFFFFFFFFFFFFF DUP3 PUSH2 0x5D7 JUMP JUMPDEST PUSH2 0x61C DUP7 DUP4 PUSH2 0x5D7 JUMP JUMPDEST SWAP6 POP DUP1 NOT DUP5 AND SWAP4 POP DUP1 DUP7 AND DUP5 OR SWAP3 POP POP POP SWAP4 SWAP3 POP POP POP JUMP JUMPDEST PUSH0 DUP2 SWAP1 POP SWAP2 SWAP1 POP JUMP JUMPDEST PUSH0 DUP2 SWAP1 POP SWAP2 SWAP1 POP JUMP JUMPDEST PUSH0 PUSH2 0x660 PUSH2 0x65B PUSH2 0x656 DUP5 PUSH2 0x634 JUMP JUMPDEST PUSH2 0x63D JUMP JUMPDEST PUSH2 0x634 JUMP JUMPDEST SWAP1 POP SWAP2 SWAP1 POP JUMP JUMPDEST PUSH0 DUP2 SWAP1 POP SWAP2 SWAP1 POP JUMP JUMPDEST PUSH2 0x679 DUP4 PUSH2 0x646 JUMP JUMPDEST PUSH2 0x68D PUSH2 0x685 DUP3 PUSH2 0x667 JUMP JUMPDEST DUP5 DUP5 SLOAD PUSH2 0x5E3 JUMP JUMPDEST DUP3 SSTORE POP POP POP POP JUMP JUMPDEST PUSH0 SWAP1 JUMP JUMPDEST PUSH2 0x6A1 PUSH2 0x695 JUMP JUMPDEST PUSH2 0x6AC DUP2 DUP5 DUP5 PUSH2 0x670 JUMP JUMPDEST POP POP POP JUMP JUMPDEST JUMPDEST DUP2 DUP2 LT ISZERO PUSH2 0x6CF JUMPI PUSH2 0x6C4 PUSH0 DUP3 PUSH2 0x699 JUMP JUMPDEST PUSH1 0x1 DUP2 ADD SWAP1 POP PUSH2 0x6B2 JUMP JUMPDEST POP POP JUMP JUMPDEST PUSH1 0x1F DUP3 GT ISZERO PUSH2 0x714 JUMPI PUSH2 0x6E5 DUP2 PUSH2 0x5B6 JUMP JUMPDEST PUSH2 0x6EE DUP5 PUSH2 0x5C8 JUMP JUMPDEST DUP2 ADD PUSH1 0x20 DUP6 LT ISZERO PUSH2 0x6FD JUMPI DUP2 SWAP1 POP JUMPDEST PUSH2 0x711 PUSH2 0x709 DUP6 PUSH2 0x5C8 JUMP JUMPDEST DUP4 ADD DUP3 PUSH2 0x6B1 JUMP JUMPDEST POP POP JUMPDEST POP POP POP JUMP JUMPDEST PUSH0 DUP3 DUP3 SHR SWAP1 POP SWAP3 SWAP2 POP POP JUMP JUMPDEST PUSH0 PUSH2 0x734 PUSH0 NOT DUP5 PUSH1 0x8 MUL PUSH2 0x719 JUMP JUMPDEST NOT DUP1 DUP4 AND SWAP2 POP POP SWAP3 SWAP2 POP POP JUMP JUMPDEST PUSH0 PUSH2 0x74C DUP4 DUP4 PUSH2 0x725 JUMP JUMPDEST SWAP2 POP DUP3 PUSH1 0x2 MUL DUP3 OR SWAP1 POP SWAP3 SWAP2 POP POP JUMP JUMPDEST PUSH2 0x765 DUP3 PUSH2 0x522 JUMP JUMPDEST PUSH8 0xFFFFFFFFFFFFFFFF DUP2 GT ISZERO PUSH2 0x77E JUMPI PUSH2 0x77D PUSH2 0x52C JUMP JUMPDEST JUMPDEST PUSH2 0x788 DUP3 SLOAD PUSH2 0x586 JUMP JUMPDEST PUSH2 0x793 DUP3 DUP3 DUP6 PUSH2 0x6D3 JUMP JUMPDEST PUSH0 PUSH1 0x20 SWAP1 POP PUSH1 0x1F DUP4 GT PUSH1 0x1 DUP2 EQ PUSH2 0x7C4 JUMPI PUSH0 DUP5 ISZERO PUSH2 0x7B2 JUMPI DUP3 DUP8 ADD MLOAD SWAP1 POP JUMPDEST PUSH2 0x7BC DUP6 DUP3 PUSH2 0x741 JUMP JUMPDEST DUP7 SSTORE POP PUSH2 0x823 JUMP JUMPDEST PUSH1 0x1F NOT DUP5 AND PUSH2 0x7D2 DUP7 PUSH2 0x5B6 JUMP JUMPDEST PUSH0 JUMPDEST DUP3 DUP2 LT ISZERO PUSH2 0x7F9 JUMPI DUP5 DUP10 ADD MLOAD DUP3 SSTORE PUSH1 0x1 DUP3 ADD SWAP2 POP PUSH1 0x20 DUP6 ADD SWAP5 POP PUSH1 0x20 DUP2 ADD SWAP1 POP PUSH2 0x7D4 JUMP JUMPDEST DUP7 DUP4 LT ISZERO PUSH2 0x816 JUMPI DUP5 DUP10 ADD MLOAD PUSH2 0x812 PUSH1 0x1F DUP10 AND DUP3 PUSH2 0x725 JUMP JUMPDEST DUP4 SSTORE POP JUMPDEST PUSH1 0x1 PUSH1 0x2 DUP9 MUL ADD DUP9 SSTORE POP POP POP JUMPDEST POP POP POP POP POP POP JUMP JUMPDEST PUSH2 0x834 DUP2 PUSH2 0x4BC JUMP JUMPDEST DUP3 MSTORE POP POP JUMP JUMPDEST PUSH0 PUSH1 0x20 DUP3 ADD SWAP1 POP PUSH2 0x84D PUSH0 DUP4 ADD DUP5 PUSH2 0x82B JUMP JUMPDEST SWAP3 SWAP2 POP POP JUMP JUMPDEST PUSH2 0x1DAF DUP1 PUSH2 0x860 PUSH0 CODECOPY PUSH0 RETURN INVALID PUSH1 0x80 PUSH1 0x40 MSTORE CALLVALUE DUP1 ISZERO PUSH2 0xF JUMPI PUSH0 DUP1 REVERT JUMPDEST POP PUSH1 0x4 CALLDATASIZE LT PUSH2 0x114 JUMPI PUSH0 CALLDATALOAD PUSH1 0xE0 SHR DUP1 PUSH4 0x715018A6 GT PUSH2 0xA0 JUMPI DUP1 PUSH4 0x95D89B41 GT PUSH2 0x6F JUMPI DUP1 PUSH4 0x95D89B41 EQ PUSH2 0x2D0 JUMPI DUP1 PUSH4 0xA9059CBB EQ PUSH2 0x2EE JUMPI DUP1 PUSH4 0xDB006A75 EQ PUSH2 0x31E JUMPI DUP1 PUSH4 0xDD62ED3E EQ PUSH2 0x33A JUMPI DUP1 PUSH4 0xF2FDE38B EQ PUSH2 0x36A JUMPI PUSH2 0x114 JUMP JUMPDEST DUP1 PUSH4 0x715018A6 EQ PUSH2 0x26C JUMPI DUP1 PUSH4 0x734E450D EQ PUSH2 0x276 JUMPI DUP1 PUSH4 0x8CFFA21C EQ PUSH2 0x294 JUMPI DUP1 PUSH4 0x8DA5CB5B EQ PUSH2 0x2B2 JUMPI PUSH2 0x114 JUMP JUMPDEST DUP1 PUSH4 0x23B872DD GT PUSH2 0xE7 JUMPI DUP1 PUSH4 0x23B872DD EQ PUSH2 0x1B6 JUMPI DUP1 PUSH4 0x313CE567 EQ PUSH2 0x1E6 JUMPI DUP1 PUSH4 0x40C10F19 EQ PUSH2 0x204 JUMPI DUP1 PUSH4 0x42966C68 EQ PUSH2 0x220 JUMPI DUP1 PUSH4 0x70A08231 EQ PUSH2 0x23C JUMPI PUSH2 0x114 JUMP JUMPDEST DUP1 PUSH4 0x6FDDE03 EQ PUSH2 0x118 JUMPI DUP1 PUSH4 0x95EA7B3 EQ PUSH2 0x136 JUMPI DUP1 PUSH4 0xAC52E65 EQ PUSH2 0x166 JUMPI DUP1 PUSH4 0x18160DDD EQ PUSH2 0x198 JUMPI JUMPDEST PUSH0 DUP1 REVERT JUMPDEST PUSH2 0x120 PUSH2 0x386 JUMP JUMPDEST PUSH1 0x40 MLOAD PUSH2 0x12D SWAP2 SWAP1 PUSH2 0x1479 JUMP JUMPDEST PUSH1 0x40 MLOAD DUP1 SWAP2 SUB SWAP1 RETURN JUMPDEST PUSH2 0x150 PUSH1 0x4 DUP1 CALLDATASIZE SUB DUP2 ADD SWAP1 PUSH2 0x14B SWAP2 SWAP1 PUSH2 0x152A JUMP JUMPDEST PUSH2 0x416 JUMP JUMPDEST PUSH1 0x40 MLOAD PUSH2 0x15D SWAP2 SWAP1 PUSH2 0x1582 JUMP JUMPDEST PUSH1 0x40 MLOAD DUP1 SWAP2 SUB SWAP1 RETURN JUMPDEST PUSH2 0x180 PUSH1 0x4 DUP1 CALLDATASIZE SUB DUP2 ADD SWAP1 PUSH2 0x17B SWAP2 SWAP1 PUSH2 0x159B JUMP JUMPDEST PUSH2 0x438 JUMP JUMPDEST PUSH1 0x40 MLOAD PUSH2 0x18F SWAP4 SWAP3 SWAP2 SWAP1 PUSH2 0x15D5 JUMP JUMPDEST PUSH1 0x40 MLOAD DUP1 SWAP2 SUB SWAP1 RETURN JUMPDEST PUSH2 0x1A0 PUSH2 0x4F3 JUMP JUMPDEST PUSH1 0x40 MLOAD PUSH2 0x1AD SWAP2 SWAP1 PUSH2 0x1611 JUMP JUMPDEST PUSH1 0x40 MLOAD DUP1 SWAP2 SUB SWAP1 RETURN JUMPDEST PUSH2 0x1D0 PUSH1 0x4 DUP1 CALLDATASIZE SUB DUP2 ADD SWAP1 PUSH2 0x1CB SWAP2 SWAP1 PUSH2 0x162A JUMP JUMPDEST PUSH2 0x4FC JUMP JUMPDEST PUSH1 0x40 MLOAD PUSH2 0x1DD SWAP2 SWAP1 PUSH2 0x1582 JUMP JUMPDEST PUSH1 0x40 MLOAD DUP1 SWAP2 SUB SWAP1 RETURN JUMPDEST PUSH2 0x1EE PUSH2 0x52A JUMP JUMPDEST PUSH1 0x40 MLOAD PUSH2 0x1FB SWAP2 SWAP1 PUSH2 0x1695 JUMP JUMPDEST PUSH1 0x40 MLOAD DUP1 SWAP2 SUB SWAP1 RETURN JUMPDEST PUSH2 0x21E PUSH1 0x4 DUP1 CALLDATASIZE SUB DUP2 ADD SWAP1 PUSH2 0x219 SWAP2 SWAP1 PUSH2 0x152A JUMP JUMPDEST PUSH2 0x52E JUMP JUMPDEST STOP JUMPDEST PUSH2 0x23A PUSH1 0x4 DUP1 CALLDATASIZE SUB DUP2 ADD SWAP1 PUSH2 0x235 SWAP2 SWAP1 PUSH2 0x159B JUMP JUMPDEST PUSH2 0x544 JUMP JUMPDEST STOP JUMPDEST PUSH2 0x256 PUSH1 0x4 DUP1 CALLDATASIZE SUB DUP2 ADD SWAP1 PUSH2 0x251 SWAP2 SWAP1 PUSH2 0x16AE JUMP JUMPDEST PUSH2 0x551 JUMP JUMPDEST PUSH1 0x40 MLOAD PUSH2 0x263 SWAP2 SWAP1 PUSH2 0x1611 JUMP JUMPDEST PUSH1 0x40 MLOAD DUP1 SWAP2 SUB SWAP1 RETURN JUMPDEST PUSH2 0x274 PUSH2 0x596 JUMP JUMPDEST STOP JUMPDEST PUSH2 0x27E PUSH2 0x5A9 JUMP JUMPDEST PUSH1 0x40 MLOAD PUSH2 0x28B SWAP2 SWAP1 PUSH2 0x1838 JUMP JUMPDEST PUSH1 0x40 MLOAD DUP1 SWAP2 SUB SWAP1 RETURN JUMPDEST PUSH2 0x29C PUSH2 0x6A8 JUMP JUMPDEST PUSH1 0x40 MLOAD PUSH2 0x2A9 SWAP2 SWAP1 PUSH2 0x1838 JUMP JUMPDEST PUSH1 0x40 MLOAD DUP1 SWAP2 SUB SWAP1 RETURN JUMPDEST PUSH2 0x2BA PUSH2 0x7E2 JUMP JUMPDEST PUSH1 0x40 MLOAD PUSH2 0x2C7 SWAP2 SWAP1 PUSH2 0x1867 JUMP JUMPDEST PUSH1 0x40 MLOAD DUP1 SWAP2 SUB SWAP1 RETURN JUMPDEST PUSH2 0x2D8 PUSH2 0x80A JUMP JUMPDEST PUSH1 0x40 MLOAD PUSH2 0x2E5 SWAP2 SWAP1 PUSH2 0x1479 JUMP JUMPDEST PUSH1 0x40 MLOAD DUP1 SWAP2 SUB SWAP1 RETURN JUMPDEST PUSH2 0x308 PUSH1 0x4 DUP1 CALLDATASIZE SUB DUP2 ADD SWAP1 PUSH2 0x303 SWAP2 SWAP1 PUSH2 0x152A JUMP JUMPDEST PUSH2 0x89A JUMP JUMPDEST PUSH1 0x40 MLOAD PUSH2 0x315 SWAP2 SWAP1 PUSH2 0x1582 JUMP JUMPDEST PUSH1 0x40 MLOAD DUP1 SWAP2 SUB SWAP1 RETURN JUMPDEST PUSH2 0x338 PUSH1 0x4 DUP1 CALLDATASIZE SUB DUP2 ADD SWAP1 PUSH2 0x333 SWAP2 SWAP1 PUSH2 0x159B JUMP JUMPDEST PUSH2 0x8BC JUMP JUMPDEST STOP JUMPDEST PUSH2 0x354 PUSH1 0x4 DUP1 CALLDATASIZE SUB DUP2 ADD SWAP1 PUSH2 0x34F SWAP2 SWAP1 PUSH2 0x1880 JUMP JUMPDEST PUSH2 0xB38 JUMP JUMPDEST PUSH1 0x40 MLOAD PUSH2 0x361 SWAP2 SWAP1 PUSH2 0x1611 JUMP JUMPDEST PUSH1 0x40 MLOAD DUP1 SWAP2 SUB SWAP1 RETURN JUMPDEST PUSH2 0x384 PUSH1 0x4 DUP1 CALLDATASIZE SUB DUP2 ADD SWAP1 PUSH2 0x37F SWAP2 SWAP1 PUSH2 0x16AE JUMP JUMPDEST PUSH2 0xBBA JUMP JUMPDEST STOP JUMPDEST PUSH1 0x60 PUSH1 0x3 DUP1 SLOAD PUSH2 0x395 SWAP1 PUSH2 0x18EB JUMP JUMPDEST DUP1 PUSH1 0x1F ADD PUSH1 0x20 DUP1 SWAP2 DIV MUL PUSH1 0x20 ADD PUSH1 0x40 MLOAD SWAP1 DUP2 ADD PUSH1 0x40 MSTORE DUP1 SWAP3 SWAP2 SWAP1 DUP2 DUP2 MSTORE PUSH1 0x20 ADD DUP3 DUP1 SLOAD PUSH2 0x3C1 SWAP1 PUSH2 0x18EB JUMP JUMPDEST DUP1 ISZERO PUSH2 0x40C JUMPI DUP1 PUSH1 0x1F LT PUSH2 0x3E3 JUMPI PUSH2 0x100 DUP1 DUP4 SLOAD DIV MUL DUP4 MSTORE SWAP2 PUSH1 0x20 ADD SWAP2 PUSH2 0x40C JUMP JUMPDEST DUP3 ADD SWAP2 SWAP1 PUSH0 MSTORE PUSH1 0x20 PUSH0 KECCAK256 SWAP1 JUMPDEST DUP2 SLOAD DUP2 MSTORE SWAP1 PUSH1 0x1 ADD SWAP1 PUSH1 0x20 ADD DUP1 DUP4 GT PUSH2 0x3EF JUMPI DUP3 SWAP1 SUB PUSH1 0x1F AND DUP3 ADD SWAP2 JUMPDEST POP POP POP POP POP SWAP1 POP SWAP1 JUMP JUMPDEST PUSH0 DUP1 PUSH2 0x420 PUSH2 0xC3E JUMP JUMPDEST SWAP1 POP PUSH2 0x42D DUP2 DUP6 DUP6 PUSH2 0xC45 JUMP JUMPDEST PUSH1 0x1 SWAP2 POP POP SWAP3 SWAP2 POP POP JUMP JUMPDEST PUSH1 0x6 DUP2 DUP2 SLOAD DUP2 LT PUSH2 0x447 JUMPI PUSH0 DUP1 REVERT JUMPDEST SWAP1 PUSH0 MSTORE PUSH1 0x20 PUSH0 KECCAK256 SWAP1 PUSH1 0x3 MUL ADD PUSH0 SWAP2 POP SWAP1 POP DUP1 PUSH0 ADD SLOAD SWAP1 DUP1 PUSH1 0x1 ADD DUP1 SLOAD PUSH2 0x46C SWAP1 PUSH2 0x18EB JUMP JUMPDEST DUP1 PUSH1 0x1F ADD PUSH1 0x20 DUP1 SWAP2 DIV MUL PUSH1 0x20 ADD PUSH1 0x40 MLOAD SWAP1 DUP2 ADD PUSH1 0x40 MSTORE DUP1 SWAP3 SWAP2 SWAP1 DUP2 DUP2 MSTORE PUSH1 0x20 ADD DUP3 DUP1 SLOAD PUSH2 0x498 SWAP1 PUSH2 0x18EB JUMP JUMPDEST DUP1 ISZERO PUSH2 0x4E3 JUMPI DUP1 PUSH1 0x1F LT PUSH2 0x4BA JUMPI PUSH2 0x100 DUP1 DUP4 SLOAD DIV MUL DUP4 MSTORE SWAP2 PUSH1 0x20 ADD SWAP2 PUSH2 0x4E3 JUMP JUMPDEST DUP3 ADD SWAP2 SWAP1 PUSH0 MSTORE PUSH1 0x20 PUSH0 KECCAK256 SWAP1 JUMPDEST DUP2 SLOAD DUP2 MSTORE SWAP1 PUSH1 0x1 ADD SWAP1 PUSH1 0x20 ADD DUP1 DUP4 GT PUSH2 0x4C6 JUMPI DUP3 SWAP1 SUB PUSH1 0x1F AND DUP3 ADD SWAP2 JUMPDEST POP POP POP POP POP SWAP1 DUP1 PUSH1 0x2 ADD SLOAD SWAP1 POP DUP4 JUMP JUMPDEST PUSH0 PUSH1 0x2 SLOAD SWAP1 POP SWAP1 JUMP JUMPDEST PUSH0 DUP1 PUSH2 0x506 PUSH2 0xC3E JUMP JUMPDEST SWAP1 POP PUSH2 0x513 DUP6 DUP3 DUP6 PUSH2 0xC57 JUMP JUMPDEST PUSH2 0x51E DUP6 DUP6 DUP6 PUSH2 0xCE9 JUMP JUMPDEST PUSH1 0x1 SWAP2 POP POP SWAP4 SWAP3 POP POP POP JUMP JUMPDEST PUSH0 SWAP1 JUMP JUMPDEST PUSH2 0x536 PUSH2 0xDD9 JUMP JUMPDEST PUSH2 0x540 DUP3 DUP3 PUSH2 0xE60 JUMP JUMPDEST POP POP JUMP JUMPDEST PUSH2 0x54E CALLER DUP3 PUSH2 0xEDF JUMP JUMPDEST POP JUMP JUMPDEST PUSH0 DUP1 PUSH0 DUP4 PUSH20 0xFFFFFFFFFFFFFFFFFFFFFFFFFFFFFFFFFFFFFFFF AND PUSH20 0xFFFFFFFFFFFFFFFFFFFFFFFFFFFFFFFFFFFFFFFF AND DUP2 MSTORE PUSH1 0x20 ADD SWAP1 DUP2 MSTORE PUSH1 0x20 ADD PUSH0 KECCAK256 SLOAD SWAP1 POP SWAP2 SWAP1 POP JUMP JUMPDEST PUSH2 0x59E PUSH2 0xDD9 JUMP JUMPDEST PUSH2 0x5A7 PUSH0 PUSH2 0xF5E JUMP JUMPDEST JUMP JUMPDEST PUSH1 0x60 PUSH1 0x6 DUP1 SLOAD DUP1 PUSH1 0x20 MUL PUSH1 0x20 ADD PUSH1 0x40 MLOAD SWAP1 DUP2 ADD PUSH1 0x40 MSTORE DUP1 SWAP3 SWAP2 SWAP1 DUP2 DUP2 MSTORE PUSH1 0x20 ADD PUSH0 SWAP1 JUMPDEST DUP3 DUP3 LT ISZERO PUSH2 0x69F JUMPI DUP4 DUP3 SWAP1 PUSH0 MSTORE PUSH1 0x20 PUSH0 KECCAK256 SWAP1 PUSH1 0x3 MUL ADD PUSH1 0x40 MLOAD DUP1 PUSH1 0x60 ADD PUSH1 0x40 MSTORE SWAP1 DUP2 PUSH0 DUP3 ADD SLOAD DUP2 MSTORE PUSH1 0x20 ADD PUSH1 0x1 DUP3 ADD DUP1 SLOAD PUSH2 0x606 SWAP1 PUSH2 0x18EB JUMP JUMPDEST DUP1 PUSH1 0x1F ADD PUSH1 0x20 DUP1 SWAP2 DIV MUL PUSH1 0x20 ADD PUSH1 0x40 MLOAD SWAP1 DUP2 ADD PUSH1 0x40 MSTORE DUP1 SWAP3 SWAP2 SWAP1 DUP2 DUP2 MSTORE PUSH1 0x20 ADD DUP3 DUP1 SLOAD PUSH2 0x632 SWAP1 PUSH2 0x18EB JUMP JUMPDEST DUP1 ISZERO PUSH2 0x67D JUMPI DUP1 PUSH1 0x1F LT PUSH2 0x654 JUMPI PUSH2 0x100 DUP1 DUP4 SLOAD DIV MUL DUP4 MSTORE SWAP2 PUSH1 0x20 ADD SWAP2 PUSH2 0x67D JUMP JUMPDEST DUP3 ADD SWAP2 SWAP1 PUSH0 MSTORE PUSH1 0x20 PUSH0 KECCAK256 SWAP1 JUMPDEST DUP2 SLOAD DUP2 MSTORE SWAP1 PUSH1 0x1 ADD SWAP1 PUSH1 0x20 ADD DUP1 DUP4 GT PUSH2 0x660 JUMPI DUP3 SWAP1 SUB PUSH1 0x1F AND DUP3 ADD SWAP2 JUMPDEST POP POP POP POP POP DUP2 MSTORE PUSH1 0x20 ADD PUSH1 0x2 DUP3 ADD SLOAD DUP2 MSTORE POP POP DUP2 MSTORE PUSH1 0x20 ADD SWAP1 PUSH1 0x1 ADD SWAP1 PUSH2 0x5CC JUMP JUMPDEST POP POP POP POP SWAP1 POP SWAP1 JUMP JUMPDEST PUSH1 0x60 PUSH1 0x7 PUSH0 CALLER PUSH20 0xFFFFFFFFFFFFFFFFFFFFFFFFFFFFFFFFFFFFFFFF AND PUSH20 0xFFFFFFFFFFFFFFFFFFFFFFFFFFFFFFFFFFFFFFFF AND DUP2 MSTORE PUSH1 0x20 ADD SWAP1 DUP2 MSTORE PUSH1 0x20 ADD PUSH0 KECCAK256 DUP1 SLOAD DUP1 PUSH1 0x20 MUL PUSH1 0x20 ADD PUSH1 0x40 MLOAD SWAP1 DUP2 ADD PUSH1 0x40 MSTORE DUP1 SWAP3 SWAP2 SWAP1 DUP2 DUP2 MSTORE PUSH1 0x20 ADD PUSH0 SWAP1 JUMPDEST DUP3 DUP3 LT ISZERO PUSH2 0x7D9 JUMPI DUP4 DUP3 SWAP1 PUSH0 MSTORE PUSH1 0x20 PUSH0 KECCAK256 SWAP1 PUSH1 0x3 MUL ADD PUSH1 0x40 MLOAD DUP1 PUSH1 0x60 ADD PUSH1 0x40 MSTORE SWAP1 DUP2 PUSH0 DUP3 ADD SLOAD DUP2 MSTORE PUSH1 0x20 ADD PUSH1 0x1 DUP3 ADD DUP1 SLOAD PUSH2 0x740 SWAP1 PUSH2 0x18EB JUMP JUMPDEST DUP1 PUSH1 0x1F ADD PUSH1 0x20 DUP1 SWAP2 DIV MUL PUSH1 0x20 ADD PUSH1 0x40 MLOAD SWAP1 DUP2 ADD PUSH1 0x40 MSTORE DUP1 SWAP3 SWAP2 SWAP1 DUP2 DUP2 MSTORE PUSH1 0x20 ADD DUP3 DUP1 SLOAD PUSH2 0x76C SWAP1 PUSH2 0x18EB JUMP JUMPDEST DUP1 ISZERO PUSH2 0x7B7 JUMPI DUP1 PUSH1 0x1F LT PUSH2 0x78E JUMPI PUSH2 0x100 DUP1 DUP4 SLOAD DIV MUL DUP4 MSTORE SWAP2 PUSH1 0x20 ADD SWAP2 PUSH2 0x7B7 JUMP JUMPDEST DUP3 ADD SWAP2 SWAP1 PUSH0 MSTORE PUSH1 0x20 PUSH0 KECCAK256 SWAP1 JUMPDEST DUP2 SLOAD DUP2 MSTORE SWAP1 PUSH1 0x1 ADD SWAP1 PUSH1 0x20 ADD DUP1 DUP4 GT PUSH2 0x79A JUMPI DUP3 SWAP1 SUB PUSH1 0x1F AND DUP3 ADD SWAP2 JUMPDEST POP POP POP POP POP DUP2 MSTORE PUSH1 0x20 ADD PUSH1 0x2 DUP3 ADD SLOAD DUP2 MSTORE POP POP DUP2 MSTORE PUSH1 0x20 ADD SWAP1 PUSH1 0x1 ADD SWAP1 PUSH2 0x706 JUMP JUMPDEST POP POP POP POP SWAP1 POP SWAP1 JUMP JUMPDEST PUSH0 PUSH1 0x5 PUSH0 SWAP1 SLOAD SWAP1 PUSH2 0x100 EXP SWAP1 DIV PUSH20 0xFFFFFFFFFFFFFFFFFFFFFFFFFFFFFFFFFFFFFFFF AND SWAP1 POP SWAP1 JUMP JUMPDEST PUSH1 0x60 PUSH1 0x4 DUP1 SLOAD PUSH2 0x819 SWAP1 PUSH2 0x18EB JUMP JUMPDEST DUP1 PUSH1 0x1F ADD PUSH1 0x20 DUP1 SWAP2 DIV MUL PUSH1 0x20 ADD PUSH1 0x40 MLOAD SWAP1 DUP2 ADD PUSH1 0x40 MSTORE DUP1 SWAP3 SWAP2 SWAP1 DUP2 DUP2 MSTORE PUSH1 0x20 ADD DUP3 DUP1 SLOAD PUSH2 0x845 SWAP1 PUSH2 0x18EB JUMP JUMPDEST DUP1 ISZERO PUSH2 0x890 JUMPI DUP1 PUSH1 0x1F LT PUSH2 0x867 JUMPI PUSH2 0x100 DUP1 DUP4 SLOAD DIV MUL DUP4 MSTORE SWAP2 PUSH1 0x20 ADD SWAP2 PUSH2 0x890 JUMP JUMPDEST DUP3 ADD SWAP2 SWAP1 PUSH0 MSTORE PUSH1 0x20 PUSH0 KECCAK256 SWAP1 JUMPDEST DUP2 SLOAD DUP2 MSTORE SWAP1 PUSH1 0x1 ADD SWAP1 PUSH1 0x20 ADD DUP1 DUP4 GT PUSH2 0x873 JUMPI DUP3 SWAP1 SUB PUSH1 0x1F AND DUP3 ADD SWAP2 JUMPDEST POP POP POP POP POP SWAP1 POP SWAP1 JUMP JUMPDEST PUSH0 DUP1 PUSH2 0x8A4 PUSH2 0xC3E JUMP JUMPDEST SWAP1 POP PUSH2 0x8B1 DUP2 DUP6 DUP6 PUSH2 0xCE9 JUMP JUMPDEST PUSH1 0x1 SWAP2 POP POP SWAP3 SWAP2 POP POP JUMP JUMPDEST PUSH0 DUP2 GT DUP1 ISZERO PUSH2 0x8D0 JUMPI POP PUSH1 0x6 DUP1 SLOAD SWAP1 POP DUP2 GT ISZERO JUMPDEST PUSH2 0x90F JUMPI PUSH1 0x40 MLOAD PUSH32 0x8C379A000000000000000000000000000000000000000000000000000000000 DUP2 MSTORE PUSH1 0x4 ADD PUSH2 0x906 SWAP1 PUSH2 0x1965 JUMP JUMPDEST PUSH1 0x40 MLOAD DUP1 SWAP2 SUB SWAP1 REVERT JUMPDEST PUSH0 PUSH1 0x6 PUSH1 0x1 DUP4 PUSH2 0x91F SWAP2 SWAP1 PUSH2 0x19B0 JUMP JUMPDEST DUP2 SLOAD DUP2 LT PUSH2 0x930 JUMPI PUSH2 0x92F PUSH2 0x19E3 JUMP JUMPDEST JUMPDEST SWAP1 PUSH0 MSTORE PUSH1 0x20 PUSH0 KECCAK256 SWAP1 PUSH1 0x3 MUL ADD PUSH1 0x40 MLOAD DUP1 PUSH1 0x60 ADD PUSH1 0x40 MSTORE SWAP1 DUP2 PUSH0 DUP3 ADD SLOAD DUP2 MSTORE PUSH1 0x20 ADD PUSH1 0x1 DUP3 ADD DUP1 SLOAD PUSH2 0x960 SWAP1 PUSH2 0x18EB JUMP JUMPDEST DUP1 PUSH1 0x1F ADD PUSH1 0x20 DUP1 SWAP2 DIV MUL PUSH1 0x20 ADD PUSH1 0x40 MLOAD SWAP1 DUP2 ADD PUSH1 0x40 MSTORE DUP1 SWAP3 SWAP2 SWAP1 DUP2 DUP2 MSTORE PUSH1 0x20 ADD DUP3 DUP1 SLOAD PUSH2 0x98C SWAP1 PUSH2 0x18EB JUMP JUMPDEST DUP1 ISZERO PUSH2 0x9D7 JUMPI DUP1 PUSH1 0x1F LT PUSH2 0x9AE JUMPI PUSH2 0x100 DUP1 DUP4 SLOAD DIV MUL DUP4 MSTORE SWAP2 PUSH1 0x20 ADD SWAP2 PUSH2 0x9D7 JUMP JUMPDEST DUP3 ADD SWAP2 SWAP1 PUSH0 MSTORE PUSH1 0x20 PUSH0 KECCAK256 SWAP1 JUMPDEST DUP2 SLOAD DUP2 MSTORE SWAP1 PUSH1 0x1 ADD SWAP1 PUSH1 0x20 ADD DUP1 DUP4 GT PUSH2 0x9BA JUMPI DUP3 SWAP1 SUB PUSH1 0x1F AND DUP3 ADD SWAP2 JUMPDEST POP POP POP POP POP DUP2 MSTORE PUSH1 0x20 ADD PUSH1 0x2 DUP3 ADD SLOAD DUP2 MSTORE POP POP SWAP1 POP DUP1 PUSH1 0x40 ADD MLOAD PUSH2 0x9FA CALLER PUSH2 0x551 JUMP JUMPDEST LT ISZERO PUSH2 0xA3B JUMPI PUSH1 0x40 MLOAD PUSH32 0x8C379A000000000000000000000000000000000000000000000000000000000 DUP2 MSTORE PUSH1 0x4 ADD PUSH2 0xA32 SWAP1 PUSH2 0x1A5A JUMP JUMPDEST PUSH1 0x40 MLOAD DUP1 SWAP2 SUB SWAP1 REVERT JUMPDEST PUSH2 0xA49 CALLER DUP3 PUSH1 0x40 ADD MLOAD PUSH2 0xEDF JUMP JUMPDEST PUSH1 0x7 PUSH0 CALLER PUSH20 0xFFFFFFFFFFFFFFFFFFFFFFFFFFFFFFFFFFFFFFFF AND PUSH20 0xFFFFFFFFFFFFFFFFFFFFFFFFFFFFFFFFFFFFFFFF AND DUP2 MSTORE PUSH1 0x20 ADD SWAP1 DUP2 MSTORE PUSH1 0x20 ADD PUSH0 KECCAK256 DUP2 SWAP1 DUP1 PUSH1 0x1 DUP2 SLOAD ADD DUP1 DUP3 SSTORE DUP1 SWAP2 POP POP PUSH1 0x1 SWAP1 SUB SWAP1 PUSH0 MSTORE PUSH1 0x20 PUSH0 KECCAK256 SWAP1 PUSH1 0x3 MUL ADD PUSH0 SWAP1 SWAP2 SWAP1 SWAP2 SWAP1 SWAP2 POP PUSH0 DUP3 ADD MLOAD DUP2 PUSH0 ADD SSTORE PUSH1 0x20 DUP3 ADD MLOAD DUP2 PUSH1 0x1 ADD SWAP1 DUP2 PUSH2 0xACA SWAP2 SWAP1 PUSH2 0x1C42 JUMP JUMPDEST POP PUSH1 0x40 DUP3 ADD MLOAD DUP2 PUSH1 0x2 ADD SSTORE POP POP CALLER PUSH20 0xFFFFFFFFFFFFFFFFFFFFFFFFFFFFFFFFFFFFFFFF AND PUSH32 0x2748AED474E8B2615B65F003A5FAC4B64D8C9EB9C911DAF175B6103F3802CD4C DUP3 PUSH0 ADD MLOAD DUP4 PUSH1 0x20 ADD MLOAD DUP5 PUSH1 0x40 ADD MLOAD PUSH1 0x40 MLOAD PUSH2 0xB2C SWAP4 SWAP3 SWAP2 SWAP1 PUSH2 0x15D5 JUMP JUMPDEST PUSH1 0x40 MLOAD DUP1 SWAP2 SUB SWAP1 LOG2 POP POP JUMP JUMPDEST PUSH0 PUSH1 0x1 PUSH0 DUP5 PUSH20 0xFFFFFFFFFFFFFFFFFFFFFFFFFFFFFFFFFFFFFFFF AND PUSH20 0xFFFFFFFFFFFFFFFFFFFFFFFFFFFFFFFFFFFFFFFF AND DUP2 MSTORE PUSH1 0x20 ADD SWAP1 DUP2 MSTORE PUSH1 0x20 ADD PUSH0 KECCAK256 PUSH0 DUP4 PUSH20 0xFFFFFFFFFFFFFFFFFFFFFFFFFFFFFFFFFFFFFFFF AND PUSH20 0xFFFFFFFFFFFFFFFFFFFFFFFFFFFFFFFFFFFFFFFF AND DUP2 MSTORE PUSH1 0x20 ADD SWAP1 DUP2 MSTORE PUSH1 0x20 ADD PUSH0 KECCAK256 SLOAD SWAP1 POP SWAP3 SWAP2 POP POP JUMP JUMPDEST PUSH2 0xBC2 PUSH2 0xDD9 JUMP JUMPDEST PUSH0 PUSH20 0xFFFFFFFFFFFFFFFFFFFFFFFFFFFFFFFFFFFFFFFF AND DUP2 PUSH20 0xFFFFFFFFFFFFFFFFFFFFFFFFFFFFFFFFFFFFFFFF AND SUB PUSH2 0xC32 JUMPI PUSH0 PUSH1 0x40 MLOAD PUSH32 0x1E4FBDF700000000000000000000000000000000000000000000000000000000 DUP2 MSTORE PUSH1 0x4 ADD PUSH2 0xC29 SWAP2 SWAP1 PUSH2 0x1867 JUMP JUMPDEST PUSH1 0x40 MLOAD DUP1 SWAP2 SUB SWAP1 REVERT JUMPDEST PUSH2 0xC3B DUP2 PUSH2 0xF5E JUMP JUMPDEST POP JUMP JUMPDEST PUSH0 CALLER SWAP1 POP SWAP1 JUMP JUMPDEST PUSH2 0xC52 DUP4 DUP4 DUP4 PUSH1 0x1 PUSH2 0x1021 JUMP JUMPDEST POP POP POP JUMP JUMPDEST PUSH0 PUSH2 0xC62 DUP5 DUP5 PUSH2 0xB38 JUMP JUMPDEST SWAP1 POP PUSH32 0xFFFFFFFFFFFFFFFFFFFFFFFFFFFFFFFFFFFFFFFFFFFFFFFFFFFFFFFFFFFFFFFF DUP2 EQ PUSH2 0xCE3 JUMPI DUP2 DUP2 LT ISZERO PUSH2 0xCD4 JUMPI DUP3 DUP2 DUP4 PUSH1 0x40 MLOAD PUSH32 0xFB8F41B200000000000000000000000000000000000000000000000000000000 DUP2 MSTORE PUSH1 0x4 ADD PUSH2 0xCCB SWAP4 SWAP3 SWAP2 SWAP1 PUSH2 0x1D11 JUMP JUMPDEST PUSH1 0x40 MLOAD DUP1 SWAP2 SUB SWAP1 REVERT JUMPDEST PUSH2 0xCE2 DUP5 DUP5 DUP5 DUP5 SUB PUSH0 PUSH2 0x1021 JUMP JUMPDEST JUMPDEST POP POP POP POP JUMP JUMPDEST PUSH0 PUSH20 0xFFFFFFFFFFFFFFFFFFFFFFFFFFFFFFFFFFFFFFFF AND DUP4 PUSH20 0xFFFFFFFFFFFFFFFFFFFFFFFFFFFFFFFFFFFFFFFF AND SUB PUSH2 0xD59 JUMPI PUSH0 PUSH1 0x40 MLOAD PUSH32 0x96C6FD1E00000000000000000000000000000000000000000000000000000000 DUP2 MSTORE PUSH1 0x4 ADD PUSH2 0xD50 SWAP2 SWAP1 PUSH2 0x1867 JUMP JUMPDEST PUSH1 0x40 MLOAD DUP1 SWAP2 SUB SWAP1 REVERT JUMPDEST PUSH0 PUSH20 0xFFFFFFFFFFFFFFFFFFFFFFFFFFFFFFFFFFFFFFFF AND DUP3 PUSH20 0xFFFFFFFFFFFFFFFFFFFFFFFFFFFFFFFFFFFFFFFF AND SUB PUSH2 0xDC9 JUMPI PUSH0 PUSH1 0x40 MLOAD PUSH32 0xEC442F0500000000000000000000000000000000000000000000000000000000 DUP2 MSTORE PUSH1 0x4 ADD PUSH2 0xDC0 SWAP2 SWAP1 PUSH2 0x1867 JUMP JUMPDEST PUSH1 0x40 MLOAD DUP1 SWAP2 SUB SWAP1 REVERT JUMPDEST PUSH2 0xDD4 DUP4 DUP4 DUP4 PUSH2 0x11F0 JUMP JUMPDEST POP POP POP JUMP JUMPDEST PUSH2 0xDE1 PUSH2 0xC3E JUMP JUMPDEST PUSH20 0xFFFFFFFFFFFFFFFFFFFFFFFFFFFFFFFFFFFFFFFF AND PUSH2 0xDFF PUSH2 0x7E2 JUMP JUMPDEST PUSH20 0xFFFFFFFFFFFFFFFFFFFFFFFFFFFFFFFFFFFFFFFF AND EQ PUSH2 0xE5E JUMPI PUSH2 0xE22 PUSH2 0xC3E JUMP JUMPDEST PUSH1 0x40 MLOAD PUSH32 0x118CDAA700000000000000000000000000000000000000000000000000000000 DUP2 MSTORE PUSH1 0x4 ADD PUSH2 0xE55 SWAP2 SWAP1 PUSH2 0x1867 JUMP JUMPDEST PUSH1 0x40 MLOAD DUP1 SWAP2 SUB SWAP1 REVERT JUMPDEST JUMP JUMPDEST PUSH0 PUSH20 0xFFFFFFFFFFFFFFFFFFFFFFFFFFFFFFFFFFFFFFFF AND DUP3 PUSH20 0xFFFFFFFFFFFFFFFFFFFFFFFFFFFFFFFFFFFFFFFF AND SUB PUSH2 0xED0 JUMPI PUSH0 PUSH1 0x40 MLOAD PUSH32 0xEC442F0500000000000000000000000000000000000000000000000000000000 DUP2 MSTORE PUSH1 0x4 ADD PUSH2 0xEC7 SWAP2 SWAP1 PUSH2 0x1867 JUMP JUMPDEST PUSH1 0x40 MLOAD DUP1 SWAP2 SUB SWAP1 REVERT JUMPDEST PUSH2 0xEDB PUSH0 DUP4 DUP4 PUSH2 0x11F0 JUMP JUMPDEST POP POP JUMP JUMPDEST PUSH0 PUSH20 0xFFFFFFFFFFFFFFFFFFFFFFFFFFFFFFFFFFFFFFFF AND DUP3 PUSH20 0xFFFFFFFFFFFFFFFFFFFFFFFFFFFFFFFFFFFFFFFF AND SUB PUSH2 0xF4F JUMPI PUSH0 PUSH1 0x40 MLOAD PUSH32 0x96C6FD1E00000000000000000000000000000000000000000000000000000000 DUP2 MSTORE PUSH1 0x4 ADD PUSH2 0xF46 SWAP2 SWAP1 PUSH2 0x1867 JUMP JUMPDEST PUSH1 0x40 MLOAD DUP1 SWAP2 SUB SWAP1 REVERT JUMPDEST PUSH2 0xF5A DUP3 PUSH0 DUP4 PUSH2 0x11F0 JUMP JUMPDEST POP POP JUMP JUMPDEST PUSH0 PUSH1 0x5 PUSH0 SWAP1 SLOAD SWAP1 PUSH2 0x100 EXP SWAP1 DIV PUSH20 0xFFFFFFFFFFFFFFFFFFFFFFFFFFFFFFFFFFFFFFFF AND SWAP1 POP DUP2 PUSH1 0x5 PUSH0 PUSH2 0x100 EXP DUP2 SLOAD DUP2 PUSH20 0xFFFFFFFFFFFFFFFFFFFFFFFFFFFFFFFFFFFFFFFF MUL NOT AND SWAP1 DUP4 PUSH20 0xFFFFFFFFFFFFFFFFFFFFFFFFFFFFFFFFFFFFFFFF AND MUL OR SWAP1 SSTORE POP DUP2 PUSH20 0xFFFFFFFFFFFFFFFFFFFFFFFFFFFFFFFFFFFFFFFF AND DUP2 PUSH20 0xFFFFFFFFFFFFFFFFFFFFFFFFFFFFFFFFFFFFFFFF AND PUSH32 0x8BE0079C531659141344CD1FD0A4F28419497F9722A3DAAFE3B4186F6B6457E0 PUSH1 0x40 MLOAD PUSH1 0x40 MLOAD DUP1 SWAP2 SUB SWAP1 LOG3 POP POP JUMP JUMPDEST PUSH0 PUSH20 0xFFFFFFFFFFFFFFFFFFFFFFFFFFFFFFFFFFFFFFFF AND DUP5 PUSH20 0xFFFFFFFFFFFFFFFFFFFFFFFFFFFFFFFFFFFFFFFF AND SUB PUSH2 0x1091 JUMPI PUSH0 PUSH1 0x40 MLOAD PUSH32 0xE602DF0500000000000000000000000000000000000000000000000000000000 DUP2 MSTORE PUSH1 0x4 ADD PUSH2 0x1088 SWAP2 SWAP1 PUSH2 0x1867 JUMP JUMPDEST PUSH1 0x40 MLOAD DUP1 SWAP2 SUB SWAP1 REVERT JUMPDEST PUSH0 PUSH20 0xFFFFFFFFFFFFFFFFFFFFFFFFFFFFFFFFFFFFFFFF AND DUP4 PUSH20 0xFFFFFFFFFFFFFFFFFFFFFFFFFFFFFFFFFFFFFFFF AND SUB PUSH2 0x1101 JUMPI PUSH0 PUSH1 0x40 MLOAD PUSH32 0x94280D6200000000000000000000000000000000000000000000000000000000 DUP2 MSTORE PUSH1 0x4 ADD PUSH2 0x10F8 SWAP2 SWAP1 PUSH2 0x1867 JUMP JUMPDEST PUSH1 0x40 MLOAD DUP1 SWAP2 SUB SWAP1 REVERT JUMPDEST DUP2 PUSH1 0x1 PUSH0 DUP7 PUSH20 0xFFFFFFFFFFFFFFFFFFFFFFFFFFFFFFFFFFFFFFFF AND PUSH20 0xFFFFFFFFFFFFFFFFFFFFFFFFFFFFFFFFFFFFFFFF AND DUP2 MSTORE PUSH1 0x20 ADD SWAP1 DUP2 MSTORE PUSH1 0x20 ADD PUSH0 KECCAK256 PUSH0 DUP6 PUSH20 0xFFFFFFFFFFFFFFFFFFFFFFFFFFFFFFFFFFFFFFFF AND PUSH20 0xFFFFFFFFFFFFFFFFFFFFFFFFFFFFFFFFFFFFFFFF AND DUP2 MSTORE PUSH1 0x20 ADD SWAP1 DUP2 MSTORE PUSH1 0x20 ADD PUSH0 KECCAK256 DUP2 SWAP1 SSTORE POP DUP1 ISZERO PUSH2 0x11EA JUMPI DUP3 PUSH20 0xFFFFFFFFFFFFFFFFFFFFFFFFFFFFFFFFFFFFFFFF AND DUP5 PUSH20 0xFFFFFFFFFFFFFFFFFFFFFFFFFFFFFFFFFFFFFFFF AND PUSH32 0x8C5BE1E5EBEC7D5BD14F71427D1E84F3DD0314C0F7B2291E5B200AC8C7C3B925 DUP5 PUSH1 0x40 MLOAD PUSH2 0x11E1 SWAP2 SWAP1 PUSH2 0x1611 JUMP JUMPDEST PUSH1 0x40 MLOAD DUP1 SWAP2 SUB SWAP1 LOG3 JUMPDEST POP POP POP POP JUMP JUMPDEST PUSH0 PUSH20 0xFFFFFFFFFFFFFFFFFFFFFFFFFFFFFFFFFFFFFFFF AND DUP4 PUSH20 0xFFFFFFFFFFFFFFFFFFFFFFFFFFFFFFFFFFFFFFFF AND SUB PUSH2 0x1240 JUMPI DUP1 PUSH1 0x2 PUSH0 DUP3 DUP3 SLOAD PUSH2 0x1234 SWAP2 SWAP1 PUSH2 0x1D46 JUMP JUMPDEST SWAP3 POP POP DUP2 SWAP1 SSTORE POP PUSH2 0x130E JUMP JUMPDEST PUSH0 DUP1 PUSH0 DUP6 PUSH20 0xFFFFFFFFFFFFFFFFFFFFFFFFFFFFFFFFFFFFFFFF AND PUSH20 0xFFFFFFFFFFFFFFFFFFFFFFFFFFFFFFFFFFFFFFFF AND DUP2 MSTORE PUSH1 0x20 ADD SWAP1 DUP2 MSTORE PUSH1 0x20 ADD PUSH0 KECCAK256 SLOAD SWAP1 POP DUP2 DUP2 LT ISZERO PUSH2 0x12C9 JUMPI DUP4 DUP2 DUP4 PUSH1 0x40 MLOAD PUSH32 0xE450D38C00000000000000000000000000000000000000000000000000000000 DUP2 MSTORE PUSH1 0x4 ADD PUSH2 0x12C0 SWAP4 SWAP3 SWAP2 SWAP1 PUSH2 0x1D11 JUMP JUMPDEST PUSH1 0x40 MLOAD DUP1 SWAP2 SUB SWAP1 REVERT JUMPDEST DUP2 DUP2 SUB PUSH0 DUP1 DUP7 PUSH20 0xFFFFFFFFFFFFFFFFFFFFFFFFFFFFFFFFFFFFFFFF AND PUSH20 0xFFFFFFFFFFFFFFFFFFFFFFFFFFFFFFFFFFFFFFFF AND DUP2 MSTORE PUSH1 0x20 ADD SWAP1 DUP2 MSTORE PUSH1 0x20 ADD PUSH0 KECCAK256 DUP2 SWAP1 SSTORE POP POP JUMPDEST PUSH0 PUSH20 0xFFFFFFFFFFFFFFFFFFFFFFFFFFFFFFFFFFFFFFFF AND DUP3 PUSH20 0xFFFFFFFFFFFFFFFFFFFFFFFFFFFFFFFFFFFFFFFF AND SUB PUSH2 0x1355 JUMPI DUP1 PUSH1 0x2 PUSH0 DUP3 DUP3 SLOAD SUB SWAP3 POP POP DUP2 SWAP1 SSTORE POP PUSH2 0x139F JUMP JUMPDEST DUP1 PUSH0 DUP1 DUP5 PUSH20 0xFFFFFFFFFFFFFFFFFFFFFFFFFFFFFFFFFFFFFFFF AND PUSH20 0xFFFFFFFFFFFFFFFFFFFFFFFFFFFFFFFFFFFFFFFF AND DUP2 MSTORE PUSH1 0x20 ADD SWAP1 DUP2 MSTORE PUSH1 0x20 ADD PUSH0 KECCAK256 PUSH0 DUP3 DUP3 SLOAD ADD SWAP3 POP POP DUP2 SWAP1 SSTORE POP JUMPDEST DUP2 PUSH20 0xFFFFFFFFFFFFFFFFFFFFFFFFFFFFFFFFFFFFFFFF AND DUP4 PUSH20 0xFFFFFFFFFFFFFFFFFFFFFFFFFFFFFFFFFFFFFFFF AND PUSH32 0xDDF252AD1BE2C89B69C2B068FC378DAA952BA7F163C4A11628F55A4DF523B3EF DUP4 PUSH1 0x40 MLOAD PUSH2 0x13FC SWAP2 SWAP1 PUSH2 0x1611 JUMP JUMPDEST PUSH1 0x40 MLOAD DUP1 SWAP2 SUB SWAP1 LOG3 POP POP POP JUMP JUMPDEST PUSH0 DUP2 MLOAD SWAP1 POP SWAP2 SWAP1 POP JUMP JUMPDEST PUSH0 DUP3 DUP3 MSTORE PUSH1 0x20 DUP3 ADD SWAP1 POP SWAP3 SWAP2 POP POP JUMP JUMPDEST DUP3 DUP2 DUP4 MCOPY PUSH0 DUP4 DUP4 ADD MSTORE POP POP POP JUMP JUMPDEST PUSH0 PUSH1 0x1F NOT PUSH1 0x1F DUP4 ADD AND SWAP1 POP SWAP2 SWAP1 POP JUMP JUMPDEST PUSH0 PUSH2 0x144B DUP3 PUSH2 0x1409 JUMP JUMPDEST PUSH2 0x1455 DUP2 DUP6 PUSH2 0x1413 JUMP JUMPDEST SWAP4 POP PUSH2 0x1465 DUP2 DUP6 PUSH1 0x20 DUP7 ADD PUSH2 0x1423 JUMP JUMPDEST PUSH2 0x146E DUP2 PUSH2 0x1431 JUMP JUMPDEST DUP5 ADD SWAP2 POP POP SWAP3 SWAP2 POP POP JUMP JUMPDEST PUSH0 PUSH1 0x20 DUP3 ADD SWAP1 POP DUP2 DUP2 SUB PUSH0 DUP4 ADD MSTORE PUSH2 0x1491 DUP2 DUP5 PUSH2 0x1441 JUMP JUMPDEST SWAP1 POP SWAP3 SWAP2 POP POP JUMP JUMPDEST PUSH0 DUP1 REVERT JUMPDEST PUSH0 PUSH20 0xFFFFFFFFFFFFFFFFFFFFFFFFFFFFFFFFFFFFFFFF DUP3 AND SWAP1 POP SWAP2 SWAP1 POP JUMP JUMPDEST PUSH0 PUSH2 0x14C6 DUP3 PUSH2 0x149D JUMP JUMPDEST SWAP1 POP SWAP2 SWAP1 POP JUMP JUMPDEST PUSH2 0x14D6 DUP2 PUSH2 0x14BC JUMP JUMPDEST DUP2 EQ PUSH2 0x14E0 JUMPI PUSH0 DUP1 REVERT JUMPDEST POP JUMP JUMPDEST PUSH0 DUP2 CALLDATALOAD SWAP1 POP PUSH2 0x14F1 DUP2 PUSH2 0x14CD JUMP JUMPDEST SWAP3 SWAP2 POP POP JUMP JUMPDEST PUSH0 DUP2 SWAP1 POP SWAP2 SWAP1 POP JUMP JUMPDEST PUSH2 0x1509 DUP2 PUSH2 0x14F7 JUMP JUMPDEST DUP2 EQ PUSH2 0x1513 JUMPI PUSH0 DUP1 REVERT JUMPDEST POP JUMP JUMPDEST PUSH0 DUP2 CALLDATALOAD SWAP1 POP PUSH2 0x1524 DUP2 PUSH2 0x1500 JUMP JUMPDEST SWAP3 SWAP2 POP POP JUMP JUMPDEST PUSH0 DUP1 PUSH1 0x40 DUP4 DUP6 SUB SLT ISZERO PUSH2 0x1540 JUMPI PUSH2 0x153F PUSH2 0x1499 JUMP JUMPDEST JUMPDEST PUSH0 PUSH2 0x154D DUP6 DUP3 DUP7 ADD PUSH2 0x14E3 JUMP JUMPDEST SWAP3 POP POP PUSH1 0x20 PUSH2 0x155E DUP6 DUP3 DUP7 ADD PUSH2 0x1516 JUMP JUMPDEST SWAP2 POP POP SWAP3 POP SWAP3 SWAP1 POP JUMP JUMPDEST PUSH0 DUP2 ISZERO ISZERO SWAP1 POP SWAP2 SWAP1 POP JUMP JUMPDEST PUSH2 0x157C DUP2 PUSH2 0x1568 JUMP JUMPDEST DUP3 MSTORE POP POP JUMP JUMPDEST PUSH0 PUSH1 0x20 DUP3 ADD SWAP1 POP PUSH2 0x1595 PUSH0 DUP4 ADD DUP5 PUSH2 0x1573 JUMP JUMPDEST SWAP3 SWAP2 POP POP JUMP JUMPDEST PUSH0 PUSH1 0x20 DUP3 DUP5 SUB SLT ISZERO PUSH2 0x15B0 JUMPI PUSH2 0x15AF PUSH2 0x1499 JUMP JUMPDEST JUMPDEST PUSH0 PUSH2 0x15BD DUP5 DUP3 DUP6 ADD PUSH2 0x1516 JUMP JUMPDEST SWAP2 POP POP SWAP3 SWAP2 POP POP JUMP JUMPDEST PUSH2 0x15CF DUP2 PUSH2 0x14F7 JUMP JUMPDEST DUP3 MSTORE POP POP JUMP JUMPDEST PUSH0 PUSH1 0x60 DUP3 ADD SWAP1 POP PUSH2 0x15E8 PUSH0 DUP4 ADD DUP7 PUSH2 0x15C6 JUMP JUMPDEST DUP2 DUP2 SUB PUSH1 0x20 DUP4 ADD MSTORE PUSH2 0x15FA DUP2 DUP6 PUSH2 0x1441 JUMP JUMPDEST SWAP1 POP PUSH2 0x1609 PUSH1 0x40 DUP4 ADD DUP5 PUSH2 0x15C6 JUMP JUMPDEST SWAP5 SWAP4 POP POP POP POP JUMP JUMPDEST PUSH0 PUSH1 0x20 DUP3 ADD SWAP1 POP PUSH2 0x1624 PUSH0 DUP4 ADD DUP5 PUSH2 0x15C6 JUMP JUMPDEST SWAP3 SWAP2 POP POP JUMP JUMPDEST PUSH0 DUP1 PUSH0 PUSH1 0x60 DUP5 DUP7 SUB SLT ISZERO PUSH2 0x1641 JUMPI PUSH2 0x1640 PUSH2 0x1499 JUMP JUMPDEST JUMPDEST PUSH0 PUSH2 0x164E DUP7 DUP3 DUP8 ADD PUSH2 0x14E3 JUMP JUMPDEST SWAP4 POP POP PUSH1 0x20 PUSH2 0x165F DUP7 DUP3 DUP8 ADD PUSH2 0x14E3 JUMP JUMPDEST SWAP3 POP POP PUSH1 0x40 PUSH2 0x1670 DUP7 DUP3 DUP8 ADD PUSH2 0x1516 JUMP JUMPDEST SWAP2 POP POP SWAP3 POP SWAP3 POP SWAP3 JUMP JUMPDEST PUSH0 PUSH1 0xFF DUP3 AND SWAP1 POP SWAP2 SWAP1 POP JUMP JUMPDEST PUSH2 0x168F DUP2 PUSH2 0x167A JUMP JUMPDEST DUP3 MSTORE POP POP JUMP JUMPDEST PUSH0 PUSH1 0x20 DUP3 ADD SWAP1 POP PUSH2 0x16A8 PUSH0 DUP4 ADD DUP5 PUSH2 0x1686 JUMP JUMPDEST SWAP3 SWAP2 POP POP JUMP JUMPDEST PUSH0 PUSH1 0x20 DUP3 DUP5 SUB SLT ISZERO PUSH2 0x16C3 JUMPI PUSH2 0x16C2 PUSH2 0x1499 JUMP JUMPDEST JUMPDEST PUSH0 PUSH2 0x16D0 DUP5 DUP3 DUP6 ADD PUSH2 0x14E3 JUMP JUMPDEST SWAP2 POP POP SWAP3 SWAP2 POP POP JUMP JUMPDEST PUSH0 DUP2 MLOAD SWAP1 POP SWAP2 SWAP1 POP JUMP JUMPDEST PUSH0 DUP3 DUP3 MSTORE PUSH1 0x20 DUP3 ADD SWAP1 POP SWAP3 SWAP2 POP POP JUMP JUMPDEST PUSH0 DUP2 SWAP1 POP PUSH1 0x20 DUP3 ADD SWAP1 POP SWAP2 SWAP1 POP JUMP JUMPDEST PUSH2 0x170B DUP2 PUSH2 0x14F7 JUMP JUMPDEST DUP3 MSTORE POP POP JUMP JUMPDEST PUSH0 DUP3 DUP3 MSTORE PUSH1 0x20 DUP3 ADD SWAP1 POP SWAP3 SWAP2 POP POP JUMP JUMPDEST PUSH0 PUSH2 0x172B DUP3 PUSH2 0x1409 JUMP JUMPDEST PUSH2 0x1735 DUP2 DUP6 PUSH2 0x1711 JUMP JUMPDEST SWAP4 POP PUSH2 0x1745 DUP2 DUP6 PUSH1 0x20 DUP7 ADD PUSH2 0x1423 JUMP JUMPDEST PUSH2 0x174E DUP2 PUSH2 0x1431 JUMP JUMPDEST DUP5 ADD SWAP2 POP POP SWAP3 SWAP2 POP POP JUMP JUMPDEST PUSH0 PUSH1 0x60 DUP4 ADD PUSH0 DUP4 ADD MLOAD PUSH2 0x176E PUSH0 DUP7 ADD DUP3 PUSH2 0x1702 JUMP JUMPDEST POP PUSH1 0x20 DUP4 ADD MLOAD DUP5 DUP3 SUB PUSH1 0x20 DUP7 ADD MSTORE PUSH2 0x1786 DUP3 DUP3 PUSH2 0x1721 JUMP JUMPDEST SWAP2 POP POP PUSH1 0x40 DUP4 ADD MLOAD PUSH2 0x179B PUSH1 0x40 DUP7 ADD DUP3 PUSH2 0x1702 JUMP JUMPDEST POP DUP1 SWAP2 POP POP SWAP3 SWAP2 POP POP JUMP JUMPDEST PUSH0 PUSH2 0x17B1 DUP4 DUP4 PUSH2 0x1759 JUMP JUMPDEST SWAP1 POP SWAP3 SWAP2 POP POP JUMP JUMPDEST PUSH0 PUSH1 0x20 DUP3 ADD SWAP1 POP SWAP2 SWAP1 POP JUMP JUMPDEST PUSH0 PUSH2 0x17CF DUP3 PUSH2 0x16D9 JUMP JUMPDEST PUSH2 0x17D9 DUP2 DUP6 PUSH2 0x16E3 JUMP JUMPDEST SWAP4 POP DUP4 PUSH1 0x20 DUP3 MUL DUP6 ADD PUSH2 0x17EB DUP6 PUSH2 0x16F3 JUMP JUMPDEST DUP1 PUSH0 JUMPDEST DUP6 DUP2 LT ISZERO PUSH2 0x1826 JUMPI DUP5 DUP5 SUB DUP10 MSTORE DUP2 MLOAD PUSH2 0x1807 DUP6 DUP3 PUSH2 0x17A6 JUMP JUMPDEST SWAP5 POP PUSH2 0x1812 DUP4 PUSH2 0x17B9 JUMP JUMPDEST SWAP3 POP PUSH1 0x20 DUP11 ADD SWAP10 POP POP PUSH1 0x1 DUP2 ADD SWAP1 POP PUSH2 0x17EE JUMP JUMPDEST POP DUP3 SWAP8 POP DUP8 SWAP6 POP POP POP POP POP POP SWAP3 SWAP2 POP POP JUMP JUMPDEST PUSH0 PUSH1 0x20 DUP3 ADD SWAP1 POP DUP2 DUP2 SUB PUSH0 DUP4 ADD MSTORE PUSH2 0x1850 DUP2 DUP5 PUSH2 0x17C5 JUMP JUMPDEST SWAP1 POP SWAP3 SWAP2 POP POP JUMP JUMPDEST PUSH2 0x1861 DUP2 PUSH2 0x14BC JUMP JUMPDEST DUP3 MSTORE POP POP JUMP JUMPDEST PUSH0 PUSH1 0x20 DUP3 ADD SWAP1 POP PUSH2 0x187A PUSH0 DUP4 ADD DUP5 PUSH2 0x1858 JUMP JUMPDEST SWAP3 SWAP2 POP POP JUMP JUMPDEST PUSH0 DUP1 PUSH1 0x40 DUP4 DUP6 SUB SLT ISZERO PUSH2 0x1896 JUMPI PUSH2 0x1895 PUSH2 0x1499 JUMP JUMPDEST JUMPDEST PUSH0 PUSH2 0x18A3 DUP6 DUP3 DUP7 ADD PUSH2 0x14E3 JUMP JUMPDEST SWAP3 POP POP PUSH1 0x20 PUSH2 0x18B4 DUP6 DUP3 DUP7 ADD PUSH2 0x14E3 JUMP JUMPDEST SWAP2 POP POP SWAP3 POP SWAP3 SWAP1 POP JUMP JUMPDEST PUSH32 0x4E487B7100000000000000000000000000000000000000000000000000000000 PUSH0 MSTORE PUSH1 0x22 PUSH1 0x4 MSTORE PUSH1 0x24 PUSH0 REVERT JUMPDEST PUSH0 PUSH1 0x2 DUP3 DIV SWAP1 POP PUSH1 0x1 DUP3 AND DUP1 PUSH2 0x1902 JUMPI PUSH1 0x7F DUP3 AND SWAP2 POP JUMPDEST PUSH1 0x20 DUP3 LT DUP2 SUB PUSH2 0x1915 JUMPI PUSH2 0x1914 PUSH2 0x18BE JUMP JUMPDEST JUMPDEST POP SWAP2 SWAP1 POP JUMP JUMPDEST PUSH32 0x496E76616C6964206974656D2049440000000000000000000000000000000000 PUSH0 DUP3 ADD MSTORE POP JUMP JUMPDEST PUSH0 PUSH2 0x194F PUSH1 0xF DUP4 PUSH2 0x1413 JUMP JUMPDEST SWAP2 POP PUSH2 0x195A DUP3 PUSH2 0x191B JUMP JUMPDEST PUSH1 0x20 DUP3 ADD SWAP1 POP SWAP2 SWAP1 POP JUMP JUMPDEST PUSH0 PUSH1 0x20 DUP3 ADD SWAP1 POP DUP2 DUP2 SUB PUSH0 DUP4 ADD MSTORE PUSH2 0x197C DUP2 PUSH2 0x1943 JUMP JUMPDEST SWAP1 POP SWAP2 SWAP1 POP JUMP JUMPDEST PUSH32 0x4E487B7100000000000000000000000000000000000000000000000000000000 PUSH0 MSTORE PUSH1 0x11 PUSH1 0x4 MSTORE PUSH1 0x24 PUSH0 REVERT JUMPDEST PUSH0 PUSH2 0x19BA DUP3 PUSH2 0x14F7 JUMP JUMPDEST SWAP2 POP PUSH2 0x19C5 DUP4 PUSH2 0x14F7 JUMP JUMPDEST SWAP3 POP DUP3 DUP3 SUB SWAP1 POP DUP2 DUP2 GT ISZERO PUSH2 0x19DD JUMPI PUSH2 0x19DC PUSH2 0x1983 JUMP JUMPDEST JUMPDEST SWAP3 SWAP2 POP POP JUMP JUMPDEST PUSH32 0x4E487B7100000000000000000000000000000000000000000000000000000000 PUSH0 MSTORE PUSH1 0x32 PUSH1 0x4 MSTORE PUSH1 0x24 PUSH0 REVERT JUMPDEST PUSH32 0x496E73756666696369656E7420746F6B656E7300000000000000000000000000 PUSH0 DUP3 ADD MSTORE POP JUMP JUMPDEST PUSH0 PUSH2 0x1A44 PUSH1 0x13 DUP4 PUSH2 0x1413 JUMP JUMPDEST SWAP2 POP PUSH2 0x1A4F DUP3 PUSH2 0x1A10 JUMP JUMPDEST PUSH1 0x20 DUP3 ADD SWAP1 POP SWAP2 SWAP1 POP JUMP JUMPDEST PUSH0 PUSH1 0x20 DUP3 ADD SWAP1 POP DUP2 DUP2 SUB PUSH0 DUP4 ADD MSTORE PUSH2 0x1A71 DUP2 PUSH2 0x1A38 JUMP JUMPDEST SWAP1 POP SWAP2 SWAP1 POP JUMP JUMPDEST PUSH32 0x4E487B7100000000000000000000000000000000000000000000000000000000 PUSH0 MSTORE PUSH1 0x41 PUSH1 0x4 MSTORE PUSH1 0x24 PUSH0 REVERT JUMPDEST PUSH0 DUP2 SWAP1 POP DUP2 PUSH0 MSTORE PUSH1 0x20 PUSH0 KECCAK256 SWAP1 POP SWAP2 SWAP1 POP JUMP JUMPDEST PUSH0 PUSH1 0x20 PUSH1 0x1F DUP4 ADD DIV SWAP1 POP SWAP2 SWAP1 POP JUMP JUMPDEST PUSH0 DUP3 DUP3 SHL SWAP1 POP SWAP3 SWAP2 POP POP JUMP JUMPDEST PUSH0 PUSH1 0x8 DUP4 MUL PUSH2 0x1B01 PUSH32 0xFFFFFFFFFFFFFFFFFFFFFFFFFFFFFFFFFFFFFFFFFFFFFFFFFFFFFFFFFFFFFFFF DUP3 PUSH2 0x1AC6 JUMP JUMPDEST PUSH2 0x1B0B DUP7 DUP4 PUSH2 0x1AC6 JUMP JUMPDEST SWAP6 POP DUP1 NOT DUP5 AND SWAP4 POP DUP1 DUP7 AND DUP5 OR SWAP3 POP POP POP SWAP4 SWAP3 POP POP POP JUMP JUMPDEST PUSH0 DUP2 SWAP1 POP SWAP2 SWAP1 POP JUMP JUMPDEST PUSH0 PUSH2 0x1B46 PUSH2 0x1B41 PUSH2 0x1B3C DUP5 PUSH2 0x14F7 JUMP JUMPDEST PUSH2 0x1B23 JUMP JUMPDEST PUSH2 0x14F7 JUMP JUMPDEST SWAP1 POP SWAP2 SWAP1 POP JUMP JUMPDEST PUSH0 DUP2 SWAP1 POP SWAP2 SWAP1 POP JUMP JUMPDEST PUSH2 0x1B5F DUP4 PUSH2 0x1B2C JUMP JUMPDEST PUSH2 0x1B73 PUSH2 0x1B6B DUP3 PUSH2 0x1B4D JUMP JUMPDEST DUP5 DUP5 SLOAD PUSH2 0x1AD2 JUMP JUMPDEST DUP3 SSTORE POP POP POP POP JUMP JUMPDEST PUSH0 SWAP1 JUMP JUMPDEST PUSH2 0x1B87 PUSH2 0x1B7B JUMP JUMPDEST PUSH2 0x1B92 DUP2 DUP5 DUP5 PUSH2 0x1B56 JUMP JUMPDEST POP POP POP JUMP JUMPDEST JUMPDEST DUP2 DUP2 LT ISZERO PUSH2 0x1BB5 JUMPI PUSH2 0x1BAA PUSH0 DUP3 PUSH2 0x1B7F JUMP JUMPDEST PUSH1 0x1 DUP2 ADD SWAP1 POP PUSH2 0x1B98 JUMP JUMPDEST POP POP JUMP JUMPDEST PUSH1 0x1F DUP3 GT ISZERO PUSH2 0x1BFA JUMPI PUSH2 0x1BCB DUP2 PUSH2 0x1AA5 JUMP JUMPDEST PUSH2 0x1BD4 DUP5 PUSH2 0x1AB7 JUMP JUMPDEST DUP2 ADD PUSH1 0x20 DUP6 LT ISZERO PUSH2 0x1BE3 JUMPI DUP2 SWAP1 POP JUMPDEST PUSH2 0x1BF7 PUSH2 0x1BEF DUP6 PUSH2 0x1AB7 JUMP JUMPDEST DUP4 ADD DUP3 PUSH2 0x1B97 JUMP JUMPDEST POP POP JUMPDEST POP POP POP JUMP JUMPDEST PUSH0 DUP3 DUP3 SHR SWAP1 POP SWAP3 SWAP2 POP POP JUMP JUMPDEST PUSH0 PUSH2 0x1C1A PUSH0 NOT DUP5 PUSH1 0x8 MUL PUSH2 0x1BFF JUMP JUMPDEST NOT DUP1 DUP4 AND SWAP2 POP POP SWAP3 SWAP2 POP POP JUMP JUMPDEST PUSH0 PUSH2 0x1C32 DUP4 DUP4 PUSH2 0x1C0B JUMP JUMPDEST SWAP2 POP DUP3 PUSH1 0x2 MUL DUP3 OR SWAP1 POP SWAP3 SWAP2 POP POP JUMP JUMPDEST PUSH2 0x1C4B DUP3 PUSH2 0x1409 JUMP JUMPDEST PUSH8 0xFFFFFFFFFFFFFFFF DUP2 GT ISZERO PUSH2 0x1C64 JUMPI PUSH2 0x1C63 PUSH2 0x1A78 JUMP JUMPDEST JUMPDEST PUSH2 0x1C6E DUP3 SLOAD PUSH2 0x18EB JUMP JUMPDEST PUSH2 0x1C79 DUP3 DUP3 DUP6 PUSH2 0x1BB9 JUMP JUMPDEST PUSH0 PUSH1 0x20 SWAP1 POP PUSH1 0x1F DUP4 GT PUSH1 0x1 DUP2 EQ PUSH2 0x1CAA JUMPI PUSH0 DUP5 ISZERO PUSH2 0x1C98 JUMPI DUP3 DUP8 ADD MLOAD SWAP1 POP JUMPDEST PUSH2 0x1CA2 DUP6 DUP3 PUSH2 0x1C27 JUMP JUMPDEST DUP7 SSTORE POP PUSH2 0x1D09 JUMP JUMPDEST PUSH1 0x1F NOT DUP5 AND PUSH2 0x1CB8 DUP7 PUSH2 0x1AA5 JUMP JUMPDEST PUSH0 JUMPDEST DUP3 DUP2 LT ISZERO PUSH2 0x1CDF JUMPI DUP5 DUP10 ADD MLOAD DUP3 SSTORE PUSH1 0x1 DUP3 ADD SWAP2 POP PUSH1 0x20 DUP6 ADD SWAP5 POP PUSH1 0x20 DUP2 ADD SWAP1 POP PUSH2 0x1CBA JUMP JUMPDEST DUP7 DUP4 LT ISZERO PUSH2 0x1CFC JUMPI DUP5 DUP10 ADD MLOAD PUSH2 0x1CF8 PUSH1 0x1F DUP10 AND DUP3 PUSH2 0x1C0B JUMP JUMPDEST DUP4 SSTORE POP JUMPDEST PUSH1 0x1 PUSH1 0x2 DUP9 MUL ADD DUP9 SSTORE POP POP POP JUMPDEST POP POP POP POP POP POP JUMP JUMPDEST PUSH0 PUSH1 0x60 DUP3 ADD SWAP1 POP PUSH2 0x1D24 PUSH0 DUP4 ADD DUP7 PUSH2 0x1858 JUMP JUMPDEST PUSH2 0x1D31 PUSH1 0x20 DUP4 ADD DUP6 PUSH2 0x15C6 JUMP JUMPDEST PUSH2 0x1D3E PUSH1 0x40 DUP4 ADD DUP5 PUSH2 0x15C6 JUMP JUMPDEST SWAP5 SWAP4 POP POP POP POP JUMP JUMPDEST PUSH0 PUSH2 0x1D50 DUP3 PUSH2 0x14F7 JUMP JUMPDEST SWAP2 POP PUSH2 0x1D5B DUP4 PUSH2 0x14F7 JUMP JUMPDEST SWAP3 POP DUP3 DUP3 ADD SWAP1 POP DUP1 DUP3 GT ISZERO PUSH2 0x1D73 JUMPI PUSH2 0x1D72 PUSH2 0x1983 JUMP JUMPDEST JUMPDEST SWAP3 SWAP2 POP POP JUMP INVALID LOG2 PUSH5 0x6970667358 0x22 SLT KECCAK256 ADDRESS CREATE2 0xC6 RETURNDATACOPY 0xC8 JUMPI DELEGATECALL NUMBER LOG3 PUSH18 0x312851564BA2BD50B4302D4559B056062B84 CALLDATALOAD PUSH21 0x529164736F6C634300081A00330000000000000000 "
				},
				"gasEstimates": {
					"creation": {
						"codeDepositCost": "1519800",
						"executionCost": "infinite",
						"totalCost": "infinite"
					},
					"external": {
						"allowance(address,address)": "infinite",
						"approve(address,uint256)": "infinite",
						"balanceOf(address)": "2940",
						"burn(uint256)": "infinite",
						"decimals()": "375",
						"foodItems(uint256)": "infinite",
						"getFoodItems()": "infinite",
						"getOwnedItems()": "infinite",
						"mint(address,uint256)": "infinite",
						"name()": "infinite",
						"owner()": "2604",
						"redeem(uint256)": "infinite",
						"renounceOwnership()": "infinite",
						"symbol()": "infinite",
						"totalSupply()": "2522",
						"transfer(address,uint256)": "infinite",
						"transferFrom(address,address,uint256)": "infinite",
						"transferOwnership(address)": "infinite"
					}
				},
				"methodIdentifiers": {
					"allowance(address,address)": "dd62ed3e",
					"approve(address,uint256)": "095ea7b3",
					"balanceOf(address)": "70a08231",
					"burn(uint256)": "42966c68",
					"decimals()": "313ce567",
					"foodItems(uint256)": "0ac52e65",
					"getFoodItems()": "734e450d",
					"getOwnedItems()": "8cffa21c",
					"mint(address,uint256)": "40c10f19",
					"name()": "06fdde03",
					"owner()": "8da5cb5b",
					"redeem(uint256)": "db006a75",
					"renounceOwnership()": "715018a6",
					"symbol()": "95d89b41",
					"totalSupply()": "18160ddd",
					"transfer(address,uint256)": "a9059cbb",
					"transferFrom(address,address,uint256)": "23b872dd",
					"transferOwnership(address)": "f2fde38b"
				}
			},
			"storageLayout": {
				"storage": [
					{
						"astId": 307,
						"contract": "DegenToken-main/contracts/DegenToken.sol:FoodToken",
						"label": "_balances",
						"offset": 0,
						"slot": "0",
						"type": "t_mapping(t_address,t_uint256)"
					},
					{
						"astId": 313,
						"contract": "DegenToken-main/contracts/DegenToken.sol:FoodToken",
						"label": "_allowances",
						"offset": 0,
						"slot": "1",
						"type": "t_mapping(t_address,t_mapping(t_address,t_uint256))"
					},
					{
						"astId": 315,
						"contract": "DegenToken-main/contracts/DegenToken.sol:FoodToken",
						"label": "_totalSupply",
						"offset": 0,
						"slot": "2",
						"type": "t_uint256"
					},
					{
						"astId": 317,
						"contract": "DegenToken-main/contracts/DegenToken.sol:FoodToken",
						"label": "_name",
						"offset": 0,
						"slot": "3",
						"type": "t_string_storage"
					},
					{
						"astId": 319,
						"contract": "DegenToken-main/contracts/DegenToken.sol:FoodToken",
						"label": "_symbol",
						"offset": 0,
						"slot": "4",
						"type": "t_string_storage"
					},
					{
						"astId": 8,
						"contract": "DegenToken-main/contracts/DegenToken.sol:FoodToken",
						"label": "_owner",
						"offset": 0,
						"slot": "5",
						"type": "t_address"
					},
					{
						"astId": 952,
						"contract": "DegenToken-main/contracts/DegenToken.sol:FoodToken",
						"label": "foodItems",
						"offset": 0,
						"slot": "6",
						"type": "t_array(t_struct(FoodItem)948_storage)dyn_storage"
					},
					{
						"astId": 958,
						"contract": "DegenToken-main/contracts/DegenToken.sol:FoodToken",
						"label": "ownedFoodItems",
						"offset": 0,
						"slot": "7",
						"type": "t_mapping(t_address,t_array(t_struct(FoodItem)948_storage)dyn_storage)"
					}
				],
				"types": {
					"t_address": {
						"encoding": "inplace",
						"label": "address",
						"numberOfBytes": "20"
					},
					"t_array(t_struct(FoodItem)948_storage)dyn_storage": {
						"base": "t_struct(FoodItem)948_storage",
						"encoding": "dynamic_array",
						"label": "struct FoodToken.FoodItem[]",
						"numberOfBytes": "32"
					},
					"t_mapping(t_address,t_array(t_struct(FoodItem)948_storage)dyn_storage)": {
						"encoding": "mapping",
						"key": "t_address",
						"label": "mapping(address => struct FoodToken.FoodItem[])",
						"numberOfBytes": "32",
						"value": "t_array(t_struct(FoodItem)948_storage)dyn_storage"
					},
					"t_mapping(t_address,t_mapping(t_address,t_uint256))": {
						"encoding": "mapping",
						"key": "t_address",
						"label": "mapping(address => mapping(address => uint256))",
						"numberOfBytes": "32",
						"value": "t_mapping(t_address,t_uint256)"
					},
					"t_mapping(t_address,t_uint256)": {
						"encoding": "mapping",
						"key": "t_address",
						"label": "mapping(address => uint256)",
						"numberOfBytes": "32",
						"value": "t_uint256"
					},
					"t_string_storage": {
						"encoding": "bytes",
						"label": "string",
						"numberOfBytes": "32"
					},
					"t_struct(FoodItem)948_storage": {
						"encoding": "inplace",
						"label": "struct FoodToken.FoodItem",
						"members": [
							{
								"astId": 943,
								"contract": "DegenToken-main/contracts/DegenToken.sol:FoodToken",
								"label": "id",
								"offset": 0,
								"slot": "0",
								"type": "t_uint256"
							},
							{
								"astId": 945,
								"contract": "DegenToken-main/contracts/DegenToken.sol:FoodToken",
								"label": "name",
								"offset": 0,
								"slot": "1",
								"type": "t_string_storage"
							},
							{
								"astId": 947,
								"contract": "DegenToken-main/contracts/DegenToken.sol:FoodToken",
								"label": "cost",
								"offset": 0,
								"slot": "2",
								"type": "t_uint256"
							}
						],
						"numberOfBytes": "96"
					},
					"t_uint256": {
						"encoding": "inplace",
						"label": "uint256",
						"numberOfBytes": "32"
					}
				}
			},
			"userdoc": {
				"kind": "user",
				"methods": {},
				"version": 1
			}
		}
	}
}